:020000040800F2
:10000000000002206909000865090008E978000875
:10001000650900086509000865090008000000007E
:10002000000000000000000000000000650900085A
:100030006509000800000000650900086D780008E7
:1000400065090008650900086509000865090008D8
:1000500065090008650900086509000865090008C8
:1000600065090008650900086509000829580008A5
:1000700035580008D5450008415800084D5800087B
:1000800021750008594D0008650900086509000838
:100090006509000865090008650900086509000888
:1000A0006509000865090008650900086509000878
:1000B00045610108516101085D6101088D4D00082D
:1000C00065090008994D000865090008C563000826
:1000D000D16300085573000885730008B9730008E0
:1000E00065090008650900080000000065090008AE
:1000F0006509000865090008650900086509000828
:1001000065090008D55B000869610108DD63000826
:10011000ED730008217400085547000865090008C0
:100120003D4700084947000801640008356400089D
:10013000557500086509000865090008650900088B
:1001400000000000000000000000000000000000AF
:10015000650900086509000865090008557400086C
:10016000A54D0008650900087D780008A178000801
:1001700065090008C57800086509000865090008D8
:10018000650900086509000889740008B974000849
:10019000E9630008F56300086509000865090008BF
:1001A0006509000865090008650900086509000877
:1001B0004955000865090008650900086509000837
:1001C0006509000865090008650900086509000857
:1001D0006509000865090008650900086509000847
:1001E0006509000865090008650900086509000837
:1001F0006509000865090008650900086509000827
:100200006509000865090008650900086509000816
:100210006509000865090008650900086509000806
:10022000650900086509000865090008000000006C
:10023000650900086509000800000000650900085C
:1002400065090008650900086509000865090008D6
:1002500065090008650900086509000865090008C6
:1002600065090008650900086509000865090008B6
:100270006509000865090008ED7400080000000029
:10028000650900086509000865090008000000000C
:080290000000000065090008F0
:1002980010B5054C237833B9044B13B10448AFF3B8
:1002A80000800123237010BD2006002400000000F8
:1002B800307F010808B5034B1BB103490348AFF36E
:1002C800008008BD0000000024060024307F0108DB
:1002D800034613F8012B002AFBD1181A013870477E
:1002E80081F0004102E000BF83F0004330B54FEADF
:1002F80041044FEA430594EA050F08BF90EA020F4C
:100308001FBF54EA000C55EA020C7FEA645C7FEADE
:10031800655C00F0E2804FEA5454D4EB5555B8BF01
:100328006D420CDD2C4480EA020281EA030382EA72
:10033800000083EA010180EA020281EA0303362D04
:1003480088BF30BD11F0004F4FEA01314FF4801CD7
:100358004CEA113102D0404261EB410113F0004FE9
:100368004FEA03334CEA133302D0524263EB4303A0
:1003780094EA050F00F0A780A4F10104D5F1200E3E
:100388000DDB02FA0EFC22FA05F2801841F1000199
:1003980003FA0EF2801843FA05F359410EE0A5F16D
:1003A80020050EF1200E012A03FA0EFC28BF4CF09E
:1003B800020C43FA05F3C01851EBE37101F0004554
:1003C80007D54FF0000EDCF1000C7EEB00006EEB61
:1003D8000101B1F5801F1BD3B1F5001F0CD34908EB
:1003E8005FEA30004FEA3C0C04F101044FEA445242
:1003F80012F5800F80F09A80BCF1004F08BF5FEAC9
:10040800500C50F1000041EB045141EA050130BDA8
:100418005FEA4C0C404141EB0101013C28BFB1F5BA
:10042800801FE9D291F0000F04BF01460020B1FA05
:1004380081F308BF2033A3F10B03B3F120020CDAD8
:100448000C3208DD02F1140CC2F10C0201FA0CF0B6
:1004580021FA02F10CE002F11402D8BFC2F1200C1B
:1004680001FA02F120FA0CFCDCBF41EA0C019040D1
:10047800E41AA2BF01EB0451294330BD6FEA04041A
:100488001F3C1CDA0C340EDC04F11404C4F1200205
:1004980020FA04F001FA02F340EA030021FA04F317
:1004A80045EA030130BDC4F10C04C4F1200220FA6E
:1004B80002F001FA04F340EA0300294630BD21FAAC
:1004C80004F0294630BD94F0000F83F4801306BF72
:1004D80081F480110134013D4EE77FEA645C18BF66
:1004E8007FEA655C29D094EA050F08BF90EA020FFD
:1004F80005D054EA000C04BF1946104630BD91EAF5
:10050800030F1EBF0021002030BD5FEA545C05D1F7
:100518004000494128BF41F0004130BD14F5800436
:100528003CBF01F5801130BD01F0004545F0FE41AA
:1005380041F470014FF0000030BD7FEA645C1ABFDF
:10054800194610467FEA655C1CBF0B46024650EA16
:10055800013406BF52EA033591EA030F41F4002142
:1005680030BD00BF90F0000F04BF0021704730B5C8
:100578004FF4806404F132044FF000054FF000019D
:1005880050E700BF90F0000F04BF0021704730B55E
:100598004FF4806404F1320410F0004548BF404233
:1005A8004FF000013EE700BF42004FEAE2014FEA88
:1005B80031014FEA02701FBF12F07F4393F07F4F63
:1005C80081F06051704732F07F4208BF704793F066
:1005D8007F4F04BF41F40021704730B54FF4607479
:1005E80001F0004521F000411CE700BF50EA01027C
:1005F80008BF704730B54FF000050AE050EA010225
:1006080008BF704730B511F0004502D5404261EB94
:1006180041014FF4806404F132045FEA915C3FF4D5
:10062800D8AE4FF003025FEADC0C18BF03325FEA72
:10063800DC0C18BF033202EBDC02C2F1200300FA23
:1006480003FC20FA02F001FA03FE40EA0E0021FA48
:1006580002F11444BDE600BF53B94AB9002908BFE6
:1006680000281CBF4FF0FF314FF0FF3000F074B985
:10067800ADF1080C6DE904CE00F006F8DDF804E0F1
:10068800DDE9022304B070472DE9F047089D0446D0
:100698008E46002B4DD18A42944669D9B2FA82F22D
:1006A80052B101FA02F3C2F1200120FA01F10CFA69
:1006B80002FC41EA030E94404FEA1C48210CBEFBA1
:1006C800F8F61FFA8CF708FB16E341EA034306FB2A
:1006D80007F199420AD91CEB030306F1FF3080F0B9
:1006E8001F81994240F21C81023E63445B1AA4B206
:1006F800B3FBF8F008FB103344EA034400FB07F7A8
:10070800A7420AD91CEB040400F1FF3380F00A81E8
:10071800A74240F207816444023840EA0640E41BDD
:1007280000261DB1D4400023C5E900433146BDE889
:10073800F0878B4209D9002D00F0EF800026C5E92B
:10074800000130463146BDE8F087B3FA83F6002E43
:100758004AD18B4202D3824200F2F980841A61EBBB
:10076800030301209E46002DE0D0C5E9004EDDE7D9
:1007780002B9FFDEB2FA82F2002A40F09280A1EBC1
:100788000C014FEA1C471FFA8CFE0126200CB1FB16
:10079800F7F307FB131140EA01410EFB03F088420F
:1007A80008D91CEB010103F1FF3802D2884200F29C
:1007B800CB804346091AA4B2B1FBF7F007FB10112E
:1007C80044EA01440EFB00FEA64508D91CEB0404CC
:1007D80000F1FF3102D2A64500F2BB800846A4EB27
:1007E8000E0440EA03409CE7C6F12007B34022FA12
:1007F80007FC4CEA030C20FA07F401FA06F31C4341
:10080800F9404FEA1C4900FA06F3B1FBF9F8200C4D
:100818001FFA8CFE09FB181140EA014108FB0EF093
:10082800884202FA06F20BD91CEB010108F1FF3AE3
:1008380080F08880884240F28580A8F102086144EF
:10084800091AA4B2B1FBF9F009FB101144EA0141FD
:1008580000FB0EFE8E4508D91CEB010100F1FF34A8
:100868006CD28E456AD90238614440EA0840A0FB40
:100878000294A1EB0E01A142C846A64656D353D016
:100888005DB1B3EB080261EB0E0101FA07F722FA3A
:1008980006F3F1401F43C5E9007100263146BDE863
:1008A800F087C2F12003D8400CFA02FC21FA03F3C6
:1008B800914001434FEA1C471FFA8CFEB3FBF7F047
:1008C80007FB10360B0C43EA064300FB0EF69E426C
:1008D80004FA02F408D91CEB030300F1FF382FD205
:1008E8009E422DD9023863449B1B89B2B3FBF7F6AD
:1008F80007FB163341EA034106FB0EF38B4208D986
:100908001CEB010106F1FF3816D28B4214D9023EC6
:100918006144C91A46EA004638E72E46284605E7E4
:100928000646E3E61846F8E64B45A9D2B9EB0208B5
:1009380064EB0C0E0138A3E74646EAE7204694E745
:100948004046D1E7D0467BE7023B614432E7304678
:1009580009E76444023842E7704700BFFEE7000039
:1009680009480A4A0A49121A16F050F909480A4A67
:100978000021121A16F072F907F0DEF916F012F9D2
:1009880002F0A2F8FEE700BF0000002420060024C1
:10099800647F010820060024E4DE0024034B1A18B3
:1009A80003EB80035B68107B5B68184748080024EA
:1009B800064B1A5C42B901221A541A1803EB800339
:1009C800107B5B681B6818470020704748080024A4
:1009D80030B4054C251804EB800460688468287BD3
:1009E800A44630BC604700BF4808002430B4054C1A
:1009F800251804EB80046068C468287BA44630BCD2
:100A0800604700BF48080024054B10B41C1803EBCE
:100A180080035B68207B1B695DF8044B184700BFA7
:100A280048080024006870470B0A017043700B0CDB
:100A3800090E8370C1707047024400F8011B904290
:100A4800FBD1704783690239023B8B4283BF4389DC
:100A5800C06A01FB0300002070470268490A836AE4
:100A680052890433B1FBF2F1186830B1814202D3E4
:100A7800091A0833F8E7586808447047C2F307238F
:100A88008A76CB760378032B01BF120C0A75120AFB
:100A98004A75704700F10B010022D30143EA520363
:100AA80010F8012B52FA83F38842DAB2F5D11046D6
:100AB80070470368014610B553B11846024610F84E
:100AC800014B1F2C10D93A2CF8D1581C824202D065
:100AD8004FF0FF3007E01B78303BD8B20128F7D839
:100AE800013218460A6010BD0020FCE738B50D46F3
:100AF800044618B9092000232B6038BD0368002B71
:100B0800F8D01A78002AF5D08188DA889142F1D194
:100B18005878FFF743FF10F00100EBD12368EBE7AB
:100B280001380A4411F8013B914200F8013FF9D11C
:100B380070472DE9F041066B00F1340804460123A3
:100B4800324641464078FFF751FF0546A8B9636A27
:100B5800E269F31AE070934202D2A778012F02D813
:100B68002846BDE8F081E36941466078013F1E44AC
:100B780001233246FFF73AFFF0E70125F0E7C37893
:100B88000BB1FFF7D6BF1846704738B5036B05465B
:100B98000C468B4210D0FFF7F2FF60B922460123C2
:100BA80005F134016878FFF713FF00281CBF4FF0E8
:100BB800FF3401202C6338BD0020FCE7002310B56A
:100BC800C3704FF0FF3304460363FFF7DEFF0346AD
:100BD80018BBB4F832124AF6552291421FD194F844
:100BE8003420E92A05D0626B0F4902F0FF128A42CD
:100BF80017D104F16A000D4AFFF714FF20F07F4077
:100C0800904208D002F14C5204F18600FFF70AFF27
:100C1800904218BF0223184610BD0423FBE70323A4
:100C2800F9E70223F7E700BFEB00900046415400C4
:100C38002DE9FF4100230F4615460B60FFF739FFEA
:100C4800061EC0F212818C4B53F82640002C00F08F
:100C58000E813C6005F0FE0523786BB16078FFF7E4
:100C68009DFEC10708D41DB110F0040500D00A2567
:100C7800284604B0BDE8F0810023F0B2237060700C
:100C8800FFF796FEC20700F1F4800DB14307EED4DA
:100C980000212046FFF792FF022840F0CB806F46E4
:100CA80004F5FD7304F23A213A4613F8040C10B126
:100CB8001846FFF7B7FE103342F8040B8B42F4D105
:100CC800002557F8046B002E00F0AB803146204613
:100CD800FFF774FF012800F2A580B4F83F30B3F5A0
:100CE800007F40F0AB80B4F84A1021B904F15800F5
:100CF800FFF798FE014694F84430E1615A1EA3704C
:100D0800012A00F29B8094F841506581002D00F083
:100D180095806A1E2A4240F09180B4F8458018F008
:100D28000F0FA4F8088040F08980B4F8470018B97C
:100D380004F15400FFF776FEB4F84270002F7DD01E
:100D480001FB03FE07EB181CF444604576D3A0EBC7
:100D58000C02AA42B2FBF5F370D34FF6F572934238
:100D680070D840F6F575AB428CBF022501250233D9
:100D780037440CEB0602032DA36126626762E26228
:100D880062D1B4F85E2052EA080257D19B0004F100
:100D98006000FFF747FEA06203F2FF13B1EB532F89
:100DA8004CD34FF0FF33032DC4E904334FF08003D5
:100DB80023712BD1B4F86430012B27D1711C204644
:100DC800FFF7E3FE10BBB4F832224AF65523207130
:100DD8009A421BD1294B04F13400FFF723FE9842B5
:100DE80014D103F1FF5304F50670FFF71BFE03F55A
:100DF80000532033984209D104F50770FFF712FE1B
:100E0800606104F50870FFF70DFE20611C4A25702B
:100E18000025138801339BB21380E380194BE360EC
:100E280026E703200135042D7FF44BAF042805D1B4
:100E380001251DE70428FBD0012801D90D2517E756
:100E480000264AE7032592E7B8F1000FF6D0022DF5
:100E58004FEA430277441ABFD21803F0010313463E
:100E6800A76218BF03EB520396E70B2500E70C2592
:100E7800FEE60325FCE600BF3C0600245252614111
:100E8800440600244606002401292DE9F0470646B9
:100E98000C46174674D983698B4271D90378022BA3
:100EA80040D0032B51D0012B6AD101EB5108416A84
:100EB80001EB5821FFF769FE054640BB14F0010419
:100EC80006F1340908F1010AC8F3080808BFFBB2A3
:100ED80030461FBF19F8083003F00F023B0103F03A
:100EE800F00318BF134309F808300123716AF3703F
:100EF80001EB5A21FFF749FE054640B9CAF3080A33
:100F080044B1C7F3071709F80A700123F37028469C
:100F1800BDE8F08719F80A30C7F3032723F00F0359
:100F28001F43F0E7416A01EB1421FFF72EFE054647
:100F38000028ECD1640006F1340304F4FF741F5553
:100F48001819C7F307274770DFE7416A01EBD41187
:100F5800FFF71BFE05460028D9D1A40006F134038B
:100F680027F0704704F4FE741C442046FFF75AFD2E
:100F780000F0704047EA00012046FFF755FDC4E73E
:100F88000225C4E7F8B50446FFF7F9FD0546002831
:100F980042D12378032B37D12779012F34D104F19B
:100FA8003406552301464FF400723046FFF744FDDE
:100FB80084F83232AA234122722104F5077084F89A
:100FC8003332522384F8372084F8343084F83530AB
:100FD800612384F8181284F8363084F81B3284F8B8
:100FE800191284F81A226169FFF71EFD216904F5B8
:100FF8000870FFF719FD226A3B46314601326078D6
:101008002263FFF7F3FC2571002260781146FFF791
:10101800FBFC003818BF0120F8BD03284B8B04BF28
:101028008A8A43EA0243184670470129F8B50646FA
:101038000C464ED9836999424BD20378022B29D0AA
:10104800032B34D0012B44D101EB5105416A01EB4C
:101058005521FFF79AFD10B14FF0FF30F8BD6F1C16
:10106800C5F30805716A3046354401EB572195F8F8
:101078003450FFF78AFD0028EED1C7F30807E307CD
:101088003E4496F8340045EA00204CBF0009C0F3FE
:101098000B00E3E7416A01EB1421FFF776FD002816
:1010A800DAD1640004F4FF742644B08ED6E7416AAE
:1010B80001EBD411FFF769FD0028CDD1A40006F19A
:1010C800340004F4FE742044FFF7ACFC20F07040B8
:1010D800C4E70120C2E773B50C4606461146056809
:1010E800012C2CD9AB69A34229D92AB14FF0FF3280
:1010F8002846FFF7C9FE40B9214630680194FFF73A
:1011080094FF0199044610B9002002B070BD01286F
:1011180015D0431C15D000222846FFF7B5FE00283D
:10112800F3D1D5E90532911E8B4205D201336B61AB
:101138002B7943F001032B71A242DDD8E4E70220AA
:10114800E3E70120E1E72DE9F041804605680F4615
:1011580071B92E69EEB1AB69B34298BF0126344626
:101168000134AB69A34217D8012E14D8002406E035
:101178002846FFF75AFF0128044603D801242046D1
:10118800BDE8F081431C30D0AB698342F7D83E46B6
:10119800E5E70126E3E702242146D8F80000FFF737
:1011A80044FF30B10128E9D001301ED0B442D7D174
:1011B800DCE74FF0FF3221462846FFF765FE90B97D
:1011C80057B92C61D5E90532023A934210D92B79E7
:1011D80043F001032B71D2E7224639462846FFF730
:1011E80053FE0028EDD00128C8D14FF0FF34C6E7E0
:1011F800013B6B61EBE7B1F5001FF8B506460C46FD
:1012080001D30220F8BDCA06FBD1826805680161D6
:10121800CAB92B78022B01D9AB6A9BB92B89B3EBDE
:10122800541FEED9AB6AB361B3697261002BE8D081
:1012380003EB54233435C4F308040020B3612C4471
:10124800F461DFE71A466F897F02BC42114604D277
:101258002846FFF7F7FBB061E6E73068FFF7E5FEE1
:10126800431C024606D00128CBD9AB698342C8D9B2
:10127800E41BEAE70120C5E703692DE9F04703F11C
:101288002008836905468A4693B1B8F5001F0FD236
:10129800C8F308090468B9F1000F4DD10133416959
:1012A800836139B92389B3EB581F45D80023AB6153
:1012B80004200BE06789013F17EA58273CD12046F4
:1012C800FFF7B3FE0128064602D80220BDE8F087E2
:1012D800421C01D10120F9E7A369834226D8BAF15B
:1012E800000FE3D069692846FFF72DFF064600285E
:1012F80035D00128E9D0431CECD02046FFF73FFC4D
:1013080001460028E6D104F134004FF400724FF092
:10131800010AFFF791FB31462046FFF793FB206354
:1013280063899F420FD3236BDB1B2363314620461F
:101338006E61FFF787FBA86134340020C5F8108080
:101348004C44EC61C2E7204684F803A0FFF7F1FBA8
:101358000028BFD1236B013701332363E0E707205F
:10136800B4E700002DE9F04F002185B00446D0F81D
:1013780000B0FFF740FF0646002840F098804FF085
:10138800FF084FF0FF3AC146C4F82CA0A16958469F
:10139800FFF7FBFB0646002840F08980E5692F78B7
:1013A800002F00F08880EA7AE52F02F03F03A3714E
:1013B80003D0100704D50F2B04D0C4F82CA050E09C
:1013C8000F2B56D194F82B30590640D47A0646D5BF
:1013D800236907F0BF0795F80D80E3626B7B4345EF
:1013E8003FD16B8B002B3CD12E780122DBF80C30DF
:1013F80006F03F06DFF8C89000930D23013E5E43D8
:1014080019F8013BEB5A7AB3FE2E2AD818460393F3
:1014180000F016FD009B711C029033F81600019134
:1014280000F00EFD029A82421BD1039B01991A46D5
:101438000E46224B9945E3D12B785B0604D51AB1A9
:10144800009B33F8163063B9013F5FFA87F9002132
:101458002046FFF711FF0646002897D027E0B94538
:10146800BCD04FF0FF09F2E74FF6FF718B42E0D096
:10147800F7E7B9F1000F04D12846FFF70BFB404509
:1014880015D094F82B6016F0010696D104F12002CD
:1014980005F10B0115F8013B12F8010B8D42A3EB86
:1014A800000302D0002BF5D087E7002B85D130460A
:1014B80005B0BDE8F08F0426F9E700BF9171010877
:1014C800847101082DE9F04F90F82B5089B004463B
:1014D80015F0A00540F08E800668F26832F81530E5
:1014E800002B66D104F120070C2205A83946FFF726
:1014F80017FB9DF81F30DB0740F1858040234FF034
:10150800010ADFF8348284F82B300B2205A938460B
:10151800D6F80C90FFF704FBBAF1050F59D9A9F1D9
:101528000201534631F8022F002A44D10DF113006D
:10153800072203F00F0C013A0CF13001392988BF5A
:101548000CF137010F2B00F801194FEA131142D89B
:1015580002F120037E216B4403F8141C3946002352
:101568009A4205D011F8010B03F1010C202834D15F
:1015780004F11F00072A03F1010397BF02F12001BC
:1015880020210132694498BF11F8141C072BC1545B
:10159800F0D92046FFF7E6FE814670BB0AF1010A42
:1015A800BAF1640FB1D14FF00709484609B0BDE858
:1015B800F08F013592E7102002F0010C52080CEB75
:1015C800430313F4803F18BF83EA08030138F3D1BB
:1015D800A8E75346AAE70B46ABE76346C0E7804651
:1015E80001212046FFF748FE814608B3B9F1040FF0
:1015F800D9D0DAE74FF00609D7E70428D5D19DF806
:101608001F3084F82B309DF81F3000212046D4F875
:1016180000A09B0745BF0C350D230125B5FBF3F54D
:1016280048BF0135FFF7E7FD81460028DED1804637
:10163800A1695046FFF7A9FA81460028D6D1E36987
:101648001B78E52B01D0002BC9D108F101084545CD
:10165800C6D1013D55D021692046A1EB4511FFF7C0
:10166800CAFD81460028A0D14FF6FF783846FFF71B
:1016780011FA0190A1693046FFF787FA81460028E0
:1016880093D1E369E9B2019A4FF00D0CD6F80CE05A
:101698005A734FF00F02DFF8A4A0DA724A1E1873CB
:1016A8000CFB02F284469876D87640451AF8019BDE
:1016B8000CF1010C18BF3EF8120003EB090B18BF20
:1016C800013203F809004FEA1029002808BF4046F4
:1016D800BCF10D0F8BF80190E7D1404502D03EF8E0
:1016E80012200AB941F04001197001230021204657
:1016F800F370FFF7C1FD814600287FF456AF013D26
:10170800B8D1A1693046FFF740FA814600287FF436
:101718004CAF01462022E069FFF78EF90B223946CB
:10172800E069FFF7FDF994F82B30E26903F018033C
:1017380013730123F37038E7211001008471010845
:101748002DE9F74F0646D0F800B0894611F8013B5D
:101758002F2BFAD05C2BF8D00021B16099F800301B
:101768001F2B00F2AF808023304686F82B3003B061
:10177800BDE8F04FFFF73FBD0134B6E0B4F5807F18
:1017880000930CD0012100F03DFB40B17F28009B65
:1017980007D87F4911F8012B1AB19042FAD10620D7
:1017A8004DE0274628F8020F95E035F81730202B32
:1017B80002D02E2B40F0A980013FA3E00131B0E018
:1017C800434505D2BA4249D1B8F10B0F3FD102E0E7
:1017D800B8F10B0F36D144F003044FF00B0896F81C
:1017E8002030E52B04BF052386F82030B8F1080F18
:1017F80004BFAD00EDB205F00C030C2B03D005F0CF
:101808000302032A01D144F00204A10709D405F018
:101818000305012D08BF44F01004042B08BF44F051
:101828000804304686F82B40FFF79CFD96F82B30CD
:10183800C0B3042803D113F0040F08BF052003B078
:10184800BDE8F08FBA4202D044F00304C7D8AD0017
:101858003A464FF00B080823EDB287E07F280ED9EF
:10186800002144F00204CDE9002300F0CBFADDE9C1
:10187800002360B14749084410F8800C38B1DFF8FC
:1018880018C11CF8011B002974D08142F9D144F019
:1018980003045F20F118013381F8200066E045F069
:1018A8000205F7E75A07CAD4B379DB0660D5316970
:1018B8000BF134039BF80000C1F308011944FFF74A
:1018C800ACFBB06033680027D3F80CA009F1FF33F4
:1018D800AAF10205A84613F8010F7C1C1F280CD991
:1018E8002F2802D05C287FF449AF19F804302F2B39
:1018F8003FF442AF5C2B3FF43FAF2028A14434BFF4
:1019080004240024002F7FF450AF00232AF8173056
:10191800002F3FF444AF20210B227018FFF78CF8FA
:1019280019463AF81130202B3FF448AF2E2B3FF4DC
:1019380045AF09B144F0030435F817302E2B01D018
:10194800013FF9D100234FF008081D463AF811006D
:101958004A1C00283FF443AF202805D02E287FF4E6
:101968002FAFBA423FF430AF44F003041146EDE71D
:10197800052064E7A0F14101192990D9A0F161017E
:1019880019299EBF203845F0010580B282E700BFC3
:10199800F470010804710108FD7001081FB5CDE954
:1019A800001003A814460391FFF783F8031E15DB04
:1019B8000C4A52F8231009B100200870019808B1A8
:1019C8000021017042F8230030B1012C08D1002217
:1019D80001A96846FFF72CF904B010BD0B20FBE7FE
:1019E8000020F9E73C0600242DE9F04190B01746A5
:1019F80004460191002800F0D48002F03F0603A9B4
:101A080001A83246FFF714F9054600284FD1039B79
:101A180004A801990493FFF793FE20B99DF93B3080
:101A2800002BB8BF062017F01C0F00F09A80002882
:101A380044D004283BD104A8FFF744FD002836D140
:101A480046F0080605F00AFF0146009020220B9890
:101A58000E30FEF7E9FF0B9800991630FEF7E4FF09
:101A68000B9BDDF80C80DA720B9998F80000FFF7F1
:101A7800D4FA002207464046FFF700F80B9B0022E5
:101A880001211A775A779A77DA77039BD970F7B1D9
:101A9800394604A8D3F83080FFF71DFB38B9414612
:101AA8000398FFF772F8013F039B1F6178B1002389
:101AB80005462360284610B0BDE8F0819DF8163031
:101AC80013F0110F57D1780765D43907BAD4039F9B
:101AD80031070B993B6B48BF46F0400661622362B1
:101AE8003878FFF79AFAA06001F11C000021FEF790
:101AF80099FFFB88276004F12C074FF40072E0601F
:101B0800A1623846A38026746174E1616161FEF7C1
:101B180093FFB206CED5D4F80C80B8F1000FC9D027
:101B2800039BA1685E89C4F814807602464524D3D5
:101B38000020A1610028BAD1C8F30803002BB9D04E
:101B4800039E3046FEF77EFF48B300EB5822012380
:101B58003946E2617078FEF73BFF0028AAD00120E1
:101B6800A5E70028A3D19DF81630DA0615D4BF07DB
:101B7800ADD5D807ABD5072099E72068A8EB0608AC
:101B8800FFF753FA0128014603D9431CCED101209F
:101B9800CFE70220CDE7082089E7042087E7022065
:101BA80085E7092586E72DE9F04F87B0164689466F
:101BB800044601930023019A05A91360FEF796FFD6
:101BC800054618BB657C0DBB237C13F0010302930B
:101BD80000F09980E26804F12C0A6369D21A9642EF
:101BE80028BF164696B16169C1F30803002B7CD162
:101BF800059BB3F80A8008F1FF3818EA51281BD171
:101C080041B9A068012810D802256574284607B094
:101C1800BDE8F08FA36A1BB12046FEF71EFFF1E76F
:101C2800A1692068FFF701FAECE7431C03D10123FF
:101C3800029D6374EAE7A061DDF814B0A169584613
:101C4800FEF700FF0028DFD0B6F5007F08EB00079D
:101C58002ED3BBF80A2008EB5621730A9BF8010023
:101C68009142494688BFA2EB08033A460393FEF720
:101C7800AFFE0028DBD194F91020039B002A0BDA71
:101C8800E069C01B984207D24FF40072514609EB35
:101C98004020FEF745FF039B5F026369B944019A40
:101CA800F61B3B446361019B1B683B44136099E747
:101CB800E269BA4218D094F91030002B0BDA0123EC
:101CC80051469BF80100FEF791FE0028AFD1237C16
:101CD80003F07F032374059801233A465146407860
:101CE800FEF776FE0028A2D1E76161694846C1F394
:101CF8000801C1F500775144B74228BF37463A4634
:101D0800FEF70EFFC9E7072580E7F7B501A90546E5
:101D1800FEF7ECFE044600283BD12B7C13F0400470
:101D280037D01B060CD501980123EA6905F12C016F
:101D38004078FEF75BFE78BB2B7C03F07F032B74A7
:101D480005F08CFD296A07460198FEF71EFF044638
:101D5800F8B96E6AF37A314643F02003F372AA6841
:101D68002868FEF78BFEE96806F11C00FEF75CFEAA
:101D7800394606F11600FEF757FE01230198B474A0
:101D8800F474C370FFF7FEF82B7C044623F040037D
:101D98002B74204603B0F0BD0124FAE713B50446BE
:101DA800FFF7B3FF28B901A92046FEF79FFE00B947
:101DB800206002B010BD00000F4B30B59C7B012C99
:101DC80017D89D7B0024EDB25C559D7B03EB850500
:101DD8006860987B184402739A7B501C3032C0B2FA
:101DE80098733A2320460A704B702F23CC708B705F
:101DF80030BD0120FCE700BF480800240022FFF79F
:101E0800DBBF00007F2810B506D931B1FF2812D8F2
:101E180080380A4B33F8100010BD084A32F8024BDC
:101E28008BB2844203D001318029F7D10B4603F1EC
:101E38008000C0B2F0E70020EEE700BF9271010811
:101E48001E4B1F4AB0F5805F28BF134670B5191D99
:101E580031F8043C0A46ABB1984213D331F8024C2E
:101E6800250AE6B253FA84F4A04221DA082D09D8EB
:101E7800DFE805F005090F11131517191B00C01A23
:101E880031F8100070BDC31A03F00103C01A80B204
:101E9800F8E71038FBE72038F9E73038F7E71A3861
:101EA800F5E70830F3E75038F1E7A0F5E350EEE73F
:101EB8000431002DCCD102EB4603C8E79272010829
:101EC80084740108704770477047704700F1140325
:101ED80000F214404A4203F8012B8342FAD17047BA
:101EE80038B5054600F59074AC4204D0183C20463D
:101EF80014F00CFBF8E7204638BD402070478020DE
:101F0800704710B5044640F2144114F0BCFA20465C
:101F180010BD10B50446006818B1A168091A14F07C
:101F2800B2FA204610BD000000F1080373B504465C
:101F38000D460360D9B10846FEF7CAF90F2805EB2C
:101F48000006019007D9002201A9204614F0BCFA26
:101F5800019B2060A36032462946206814F00EFBDE
:101F6800019B226800216360D15402B070BD014812
:101F780014F09FFA407501081FB5044608460391FE
:101F8800FEF7A6F9039B002162680090204614F032
:101F980063FB04B010BD036870B50E46DB680446E9
:101FA80015469847B04205D823682046DB6898470D
:101FB800013886B223682046A6809B689847A842C5
:101FC80005D8236820469B689847013885B2E58084
:101FD80070BD13B504468DF807100830002102F0D3
:101FE80063FD642301220DF10701204604F04AFC39
:101FF80002B010BD70B50024ADF5826D20490125F1
:102008008460C0E9004404A814F064FF4FF400722F
:10201800214684A814F022FE04A8FEF759F92146A7
:102028000646184801F062FC032301A916488DF8FA
:102038000C40CDE9013503F017FD2946134805F09A
:10204800E9FB2A4612491348FFF7A8FC2A46124919
:102058001248FFF7C9FC40B96B46324684A90F48BD
:10206800FFF7A1FD0D48FFF799FE0124FA2005F0BE
:10207800A9FC2146034884F0010401F0CBFBF5E7F5
:102088006A750108D40B0024BCA60024600C002447
:102098008D750108640C00248F7501085808002408
:1020A80084B070B505AC0646054684E80E0000F11C
:1020B8002403C3610023036280F824300FCC0FC5CA
:1020C80094E8070085E807000DAD0C9906F11C009F
:1020D80006F1340414F057FA0FCD0FC40FCD0FC416
:1020E80095E80F0084E80F003046BDE8704004B062
:1020F80070470000DD48DE4A00F51043DD492DE950
:10210800F04F0027DFF8D083ADB0DB4CC3F89C71EB
:10211800C3F8B871076047610762C0F8F470D74E1A
:10212800DFF8B8A33546D146C3E96827D44AC3E9DE
:102138006A12D44AD449C3F8B021424614F09EF931
:10214800D2484246D24907604761076214F096F9BF
:102158004246D049D04814F091F9D048D049FFF709
:10216800E3FE42462146CD4814F088F9CD48CE49D1
:10217800FFF7DAFE42462146CA4814F07FF919AC47
:102188000FCD0FC495E8070084E8070013A8C749D6
:10219800FFF7CAFE20AC20ADB9E80F000FC4B9E8BC
:1021A8000F000FC499E80F0084E80F00642005AC05
:1021B80014F06BF983460FCD0FC40FCD0FC495E80B
:1021C8000F0084E80F001CAC13AB19AD049394E81E
:1021D8000F008DE80F0095E80E005846FFF760FFE6
:1021E800B34B13A8C3F800B014F090F906F11C0E15
:1021F800AC46BEE80F00ACE80F009EE807008CE88C
:10220800070013A8AB49FFF78FFEDFF8D4E20DF102
:10221800800CBEE80F00ACE80F00BEE80F00ACE889
:102228000F009EE80F008CE80F00642014F02DF9D1
:102238000DF1800E83460DF1140CBEE80F00ACE8DA
:102248000F00BEE80F00ACE80F009EE80F008CE816
:102258000F0013A9049194E80F008DE80F0095E88A
:102268000E005846FFF71CFF934913A8C1F800B0A9
:1022780014F04CF906F1380EAC46DFF868B2BEE847
:102288000F00ACE80F009EE807008CE8070013A8D1
:102298008A49FFF749FE0DF1800CBAE80F00ACE857
:1022A8000F00BAE80F00ACE80F0099E80F008CE8BF
:1022B8000F006420DFF830A214F0E7F80DF1800E6B
:1022C80081460DF1140CBEE80F00ACE80F00BEE823
:1022D8000F00ACE80F009EE80F008CE80F0013A871
:1022E800049094E80F008DE80F0095E80E0048462A
:1022F800FFF7D6FE0DF14C0C7148C0F8009060460F
:1023080014F004F906F1540EAC46BEE80F00ACE830
:102318000F009EE807008CE807000DF14C0C694996
:102328006046FFF701FEDFF8C4E10DF1800CBEE85E
:102338000F00ACE80F00BEE80F00ACE80F009EE805
:102348000F008CE80F00642014F09FF80DF1800E48
:1023580081460DF1140CBEE80F00ACE80F00BEE892
:102368000F00ACE80F009EE80F008CE80F0013ABDD
:10237800049394E80F008DE80F0095E80E00484696
:10238800FFF78EFE0DF14C0C4F4B6046C3F80090E2
:1023980014F0BCF806F1700EAC46BEE80F00ACE8CD
:1023A8000F009EE807008CE807000DF14C0C474928
:1023B8006046FFF7B9FDDFF838E10DF1800CBEE8A3
:1023C8000F00ACE80F00BEE80F00ACE80F009EE875
:1023D8000F008CE80F00642014F057F80DF1800E00
:1023E80081460DF1140CBEE80F00ACE80F00BEE802
:1023F8000F00ACE80F009EE80F008CE80F0013AB4D
:10240800049394E80F008DE80F0095E80E00484605
:10241800FFF746FE0DF14C0C2D4B6046C3F80090BB
:1024280014F074F806F18C0EAC46BEE80F00ACE868
:102438000F009EE807008CE807000DF14C0C2549B9
:102448006046FFF771FDDFF8ACE00DF1800CBEE8E7
:102458000F00ACE80F00BEE80F00ACE80F009EE8E4
:102468000F008CE80F00642046E000BFEC10002449
:102478000107010680707FF053660108486F010864
:102488000FF80700B87A0108D11E0008D40B002401
:10249800CF1E0008CD1E0008BCA60024840A002414
:1024A8008C750108BC0B0024A1750108A3750108EF
:1024B800E0100024A8750108E8100024B075010890
:1024C800DC100024AD750108E4100024A67501088D
:1024D800500C0024B275010800000024F400002408
:1024E80004000024540C0024580C0024C4000024C8
:1024F800140200242401002413F0C7FF0DF1800EFC
:1025080081460DF1140CBEE80F00ACE80F00BEE8E0
:102518000F00ACE80F009EE80F008CE80F0013A92D
:10252800049194E80F008DE80F0095E80E004846E6
:10253800FFF7B6FD0DF14C0CEF496046C1F800906D
:1025480013F0E4FF06F1A80EAC46BEE80F00ACE8B5
:102558000F009EE807008CE807000DF14C0CE749D6
:102568006046FFF7E1FCDFF8C0E30DF1800CBEE840
:102578000F00ACE80F00BEE80F00ACE80F009EE8C3
:102588000F008CE80F00642013F07FFF0DF1800E20
:1025980081460DF1140CBEE80F00ACE80F00BEE850
:1025A8000F00ACE80F009EE80F008CE80F0013A89E
:1025B800049094E80F008DE80F0095E80E00484657
:1025C800FFF76EFD0DF14C0CCD48C0F80090604649
:1025D80013F09CFF06F1C40EAC46BEE80F00ACE851
:1025E8000F009EE807008CE807000DF14C0CC54968
:1025F8006046FFF799FCDFF834E30DF1800CBEE884
:102608000F00ACE80F00BEE80F00ACE80F009EE832
:102618000F008CE80F00642013F037FF0DF1800ED7
:1026280081460DF1140CBEE80F00ACE80F00BEE8BF
:102638000F00ACE80F009EE80F008CE80F0013AB0A
:10264800049394E80F008DE80F0095E80E004846C3
:10265800FFF726FD0DF14C0CAB4B6046C3F800901C
:1026680013F054FF06F1E00EAC46BEE80F00ACE8EC
:102678000F009EE807008CE807000DF14C0CA349F9
:102688006046FFF751FCDFF8A8E20DF1800CBEE8C8
:102698000F00ACE80F00BEE80F00ACE80F009EE8A2
:1026A8000F008CE80F00642013F0EFFE0DF1800E90
:1026B80081460DF1140CBEE80F00ACE80F00BEE82F
:1026C8000F00ACE80F009EE80F008CE80F0013AB7A
:1026D800049394E80F008DE80F0095E80E00484633
:1026E800FFF7DEFC0DF14C0C894B6046C3F80090F7
:1026F80013F00CFF06F1FC0EAC46BEE80F00ACE888
:102708000F009EE807008CE807000DF14C0C81498A
:102718006046FFF709FCDFF81CE20DF1800CBEE80B
:102728000F00ACE80F00BEE80F00ACE80F009EE811
:102738000F008CE80F00642013F0A7FE0DF1800E47
:1027480081460DF1140CBEE80F00ACE80F00BEE89E
:102758000F00ACE80F009EE80F008CE80F0013A9EB
:10276800049194E80F008DE80F0095E80E004846A4
:10277800FFF796FC0DF14C0C67496046C1F80090D4
:1027880013F0C4FE06F58C7EAC46BEE80F00ACE83C
:102798000F009EE807008CE807000DF14C0C5F491C
:1027A8006046FFF7C1FBDFF890E10DF1800CBEE851
:1027B8000F00ACE80F00BEE80F00ACE80F009EE881
:1027C8000F008CE80F00642013F05FFE0DF1800EFF
:1027D80081460DF1140CBEE80F00ACE80F00BEE80E
:1027E8000F00ACE80F009EE80F008CE80F0013A85C
:1027F800049094E80F008DE80F0095E80E00484615
:10280800FFF74EFC0DF14C0CCBF80090604613F02E
:102818007DFE06F59A7EAC4606F5A876BEE80F0062
:10282800ACE80F009EE807008CE807000DF14C0C9F
:102838003B496046FFF778FBDFF800E10DF1800CBB
:10284800BEE80F00ACE80F00BEE80F00ACE80F00D0
:102858009EE80F008CE80F00642013F016FE0DF1BF
:10286800800E81460DF1140CBEE80F00ACE80F0095
:10287800BEE80F00ACE80F009EE80F008CE80F00E0
:1028880013A8049094E80F008DE80F0095E80E0057
:102898004846FFF705FC0DF14C0CCAF8009060465D
:1028A80013F034FEAC460FCEACE80F0096E80700F4
:1028B80013AE8CE8070030461A49FFF735FBDFF8FE
:1028C80080C020AEBCE80F000FC6BCE80F000FC6E2
:1028D8009CE80F0086E80F00642013F0D6FD0DF188
:1028E800800E06460DF1140CBEE80F00ACE80F0090
:1028F800BEE80F0026E000BFD8100024B675010816
:102908004C0C0024BB7501085C0C0024BF75010841
:10291800C4A60024C3750108C0A60024C675010812
:10292800CB750108D075010894000024E401002447
:10293800340000248401002454010024B40100243C
:1029480064000024ACE80F009EE80F008CE80F003C
:1029580013A8049094E80F0013AC8DE80F0095E8D5
:102968000E0030463C4DFFF79BFB20463B4C2E604B
:1029780013F0CCFD20463A49FFF7D6FA04F11800C7
:102988003849FFF7D1FA04F130003749FFF7CCFA9C
:1029980004F148003549FFF7C7FA04F160003449EB
:1029A800FFF7C2FA04F178003249FFF7BDFA04F1E3
:1029B80090003149FFF7B8FA04F1A8002F49FFF752
:1029C800B3FA04F1C0002E49FFF7AEFA04F1D800BB
:1029D8002C49FFF7A9FA04F1F0002B49FFF7A4FAF4
:1029E80004F584702949FFF79FFA42462849204692
:1029F80013F044FD274A284B1268284928481A60D2
:102A08000A6828495A60026827489A60274A126863
:102A1800DA60274A12681A610A6826495A61026808
:102A280025489A61254A87601268DA61244A126843
:102A38001A620A6823495A62DBF800209A62DAF8B7
:102A48000020DA622A681A634246C0E900772DB08E
:102A5800BDE8F04F13F012BD100C00249C0A0024AE
:102A6800D4750108D6750108D9750108DB75010808
:102A7800DE750108E0750108E2750108E5750108D1
:102A8800E7750108EA750108EC750108EF7501089A
:102A9800E91E0008E0100024140C0024E8100024AB
:102AA800DC100024D81000244C0C0024E41000246E
:102AB800500C0024C0A60024C8A600245C0C0024E6
:102AC800C4A600241B1F000800B58BB000210848CD
:102AD80000F0EEFD06AB04A8064904930023059315
:102AE8008DF81830FFF748FA01A8FFF783FA00BFFE
:102AF800EC100024F175010870B5044600F10C06CD
:102B0800B02529462046FFF764FA01350021204602
:102B1800FFF75FFA10212046EDB2FFF75AFA0121BC
:102B280004F1080001F0C0FF3146642380222046EA
:102B3800803603F0A7FEB82DE3D170BD083008B584
:102B4800FFF7DAFF08BD7F2910B510D83F2A0ED845
:102B5800D40802F0070201EBC4110124084404FA66
:102B680002F290F90C1052B213B11143017310BD67
:102B780021EA0201FAE7083008B5FFF7E4FF08BDCB
:102B88002DE9F04F0E4685B0044604A9A6F12005AC
:102B98009DF838B001E90C00EBB25E2B04D9002691
:102BA800304605B0BDE8F08F03689DF80870DB6813
:102BB8009DF809A09847A3883B449842EFDB236817
:102BC80020469B689847E38853449842E7DB0AFB12
:102BD80005F54FF000096D00CA451DD9039B4FF05C
:102BE80000085B5B01934745A188E28810D9019BE7
:102BF80041444A4404F1080003FA08F308F10108C3
:102C08001B044CBF5B468BF00103FFF79CFFEAE710
:102C180009F101090235DFE7A1882046E288394435
:102C280089B2FFF7B8F9BBE7F0B585B006464C1E88
:102C380002AD9DF8287085E80C0014F8011F41B119
:102C48000097304695E80C00FFF79AFF21788842F4
:102C5800F3D0084605B0F0BD2DE9F043914685B0A4
:102C68000446984608464B46DDE90C52A3EB090C8E
:102C780013F8011B0029F9D198F8006098F80110A1
:102C880016FB0CF60F4636B226EAE676082A76D800
:102C9800DFE802F06B05270B35453C536100B5F9B9
:102CA8000020B5F90230228053E02B88A988B5F9B5
:102CB80002200B4462809B1B2380A680E7806288E9
:102CC80021880390FFF767F99DF838304946039843
:102CD800009398E80C00FFF7A7FF204605B0BDE871
:102CE800F083B5F90430B5F9021003EBD3722B88E1
:102CF800618003EB6203A3EB66032380DDE76B8847
:102D0800B5F90020ED882B445B1ACCE76B88EA887C
:102D180013445B1A2A88A9880A44921BC3E76B8864
:102D2800EA8813445B1AB5F9042002EBD2712A88A9
:102D380002EB6102A2EB6602B5E7B5F90630B5F918
:102D4800001003EBD3726B88218003EB6203A3EBC3
:102D580057036380B1E7B5F9063003EBD3726B888C
:102D680003EB6203A3EB5103D4E7B5F9063003EB99
:102D7800D3726B8803EB6203A3EB5103D3E7002301
:102D880023806380A380E38099E7000000000000AF
:102D98002DE9F04F2DED068B87B01C4603929DF868
:102DA8006030DDE916289FEDB64BB8F1000F0493AB
:102DB800BCBF4244C8F1000807EE902A02EB0803A2
:102DC800B8EEE76B07EE103A9FEDAF5B26EE046BAB
:102DD800B8EEC77BCDE9010186EE050B27EE047B33
:102DE800F7EEC08B87EE050BF7EEC09BB0EE680AD6
:102DF80013F0BAFC07EE904AB8EE67AA2AEE008AEA
:102E0800B0EE680A13F0ACFD60EE4A8AB0EE690ACB
:102E180013F0AAFC2AEE009AB0EE690A13F0A0FD9E
:102E280020EE4AAA39EE487A049B7AEE687A67EE71
:102E3800A77AE7EE077AB0EE007AF4EEC77AF1EEF9
:102E480010FA08D5B8F1B40F00F3CA8007B0BDEC8A
:102E5800068BBDE8F08F002201276542C4F101040A
:102E68000026BB46BA466400B9460492049A002A72
:102E78006ED107EE906A7242B8F1B40FF8EEE76AC5
:102E880007EE905AB8EEE77A07EE902AC5F10002ED
:102E980066EE884AF8EEE77A06EE102A27EE285AF8
:102EA80066EE896AB8EEC66A67EE885A27EE0A7A2D
:102EB80066EE283A67EE897A26EE0A6A34EEE34A25
:102EC80074EEC54A35EEC55AB5EEC04A75EEE35AFA
:102ED80040F39180F1EE10FA00F1848036EEC64A94
:102EE800B5EEC04AF1EE10FACCBF4FF001094FF031
:102EF8000009F5EEC04AF1EE10FA76D476EEC76A0C
:102F0800F5EEC06AF1EE10FACCBF4FF0010A4FF0AF
:102F1800000AB5EEC05AF1EE10FA69D437EEC77A56
:102F2800B5EEC07AF1EE10FACCBF4FF0010B4FF0BE
:102F3800000BF5EEC05AF1EE10FA00F19B8077EE27
:102F4800C67AF5EEC07AF1EE10FACCBF0127002759
:102F5800B9F1000F09D0039A02990198B218491BD8
:102F680005930830FFF7EFFD059BBAF1000F09D074
:102F7800039A02990198B218691805930830FFF767
:102F8800E2FD059BBBF1000F09D0039A0299019855
:102F9800921B691805930830FFF7D5FD059B4FB1C3
:102FA800039A02990198921B491B05930830FFF771
:102FB800CAFD059BA6425FDB013604EB4602EE42E2
:102FC80002F1010202D1A54202DB0024A54255DA32
:102FD800013502EB4502541C002D7FF747AF35E75A
:102FE800012239E74FF0010983E74FF0010A90E722
:102FF8004FF0010B9DE7F1EE10FA32D536EEC64AD6
:10300800B5EEC04AF1EE10FACCBF4FF001094FF00F
:103018000009F5EEC04AF1EE10FA25D576EEC76A3A
:10302800F5EEC06AF1EE10FACCBF4FF0010A4FF08E
:10303800000AB5EEC05AF1EE10FA18D537EEC77A85
:10304800B5EEC07AF1EE10FACCBF4FF0010B4FF09D
:10305800000BF5EEC05AF1EE10FA3FF570AF0027FD
:1030680076E7DDF81090D4E74FF0000AE1E74FF07B
:10307800000BEEE701276BE72246A7E71446ABE70C
:103088007A008BFCFA2109400000000000806640AD
:103098002DE9F04F1F4685B014460830DDF838A0FA
:1030A800A7EB01089DF83C300D46AAEB0209B8F1E0
:1030B800000F0393B8BFC8F10008B9F1000F0290E0
:1030C800B8BFC9F1000992458CBF01224FF0FF3209
:1030D8008F428CBF4FF0010B4FF0FF3B39460192F6
:1030E8005246FFF730FDA8EB0906DDE90203BD42B1
:1030F80001D1544516D02946224603930290FFF782
:1031080022FDC9F100017200B1EB460FBCBFA6EB6E
:1031180009065D449045DDE90203E8DD019A46446D
:103128001444E4E705B0BDE8F08F2DE9F3479DF8B6
:1031380030C005460C4616461F46DDF828809DF827
:103148002C90BCF1000F10D0A7422AD3B246D0452C
:1031580009D352464B46214605F108000AF1010AF7
:10316800FFF7F1FCF3E70134EEE7CDE90029FFF7BB
:103178008FFF3B46324639462846CDE90089FFF79E
:1031880087FF2346424639462846CDE90089FFF79E
:103198007FFF2346424621462846CDE90069FFF7CE
:1031A80077FF02B0BDE8F087FEF7A4BF30B59DB049
:1031B800054600F013FC01285FD0334900220123A3
:1031C800CDF82A10CDE91023002230490123032429
:1031D8001B200F9312930C94CDE9082140F204515F
:1031E800CDE90D32CDE91832CDE91A23ADF8281012
:1031F800CDE9164300F0F4FA03461820ADF84E3036
:1032080000F0EEFA03461C20ADF84C3000F0E8FA66
:1032180003461920ADF8503000F0E2FA03461A20B0
:10322800ADF8543000F0DCFA0022002308A9ADF80C
:10323800520002A8CDE9022302F00AFB12A903A852
:1032480002F006FB1D2000F0CBFAADF8040001984F
:1032580000F0DCFB4FF07E5230214FF07C5C07928F
:1032680005F11400049104A9039B029A0594CDF872
:1032780018C000F07FFE1DB030BD034A0023109037
:10328800CDF82A2011939FE70406040304020404DE
:10329800F0B506460F20002406F1180706F164056C
:1032A8002DED028B99B09FED258A00F099FA03461F
:1032B80007A8ADF80C30039900F040FF102000F08B
:1032C8008FFA03460DF12D00ADF81030049900F087
:1032D80035FF152000F084FA03460DF13E00ADF8E5
:1032E8001430059900F02AFF122000F079FA0346FD
:1032F8000DF14F00ADF81830069900F01FFF0423B8
:1033080007A938461A4600F027FFE1B2384601F00F
:1033180007F9014601343046019100F077FA284652
:10332800F0EE480A002301220199203500F080FEC2
:10333800042CEAD119B0BDEC028BF0BD6F12033B2F
:103348002DE9F04F8046A5B0092049F2B81400F0E5
:1033580047FA03461E200125ADF8303000F040FA48
:103368004444002606950DF1380AADF832000DF1F7
:10337800640CD64608F5104804F10409CAA3D3E939
:103388000023CDE90866CDE9022300220023CDE918
:103398000423082202230DEB020BA7180792CDE99C
:1033A8000A33BBE80F00AAE80F00BBE80F00AAE841
:1033B8000F009BE807008AE80700BEE80F00ACE8AA
:1033C8000F00BEE80F00ACE80F009EE807008CE88D
:1033D8000700BDF88C30384688F8C251A8F8C031CB
:1033E80001F078FABDF88E30484688F8BE51A8F842
:1033F800BC3101F06FFA19A9204603F0BDF9314636
:10340800484601F051FB0A2004F0DCFA29464846F8
:1034180001F04AFB0A2004F0D5FAAE2331463846BB
:103428008DF8073001F040FB2A460DF107016423AF
:10343800204603F027FAD523314638468DF8073061
:1034480001F032FB2A460DF107016423204603F000
:1034580019FA8023314638468DF8073001F024FBED
:103468002A460DF107016423204603F00BFAA8232E
:10347800314638468DF8073001F016FB2A460DF123
:1034880007016423204603F0FDF93F2331463846FF
:103498008DF8073001F008FB2A460DF10701642377
:1034A800204603F0EFF9DA23314638468DF8073025
:1034B80001F0FAFA2A460DF107016423204603F0C9
:1034C800E1F91223314638468DF8073001F0ECFA5D
:1034D8002A460DF107016423204603F0D3F9D323CC
:1034E800314638468DF8073001F0DEFA2A46642363
:1034F8000DF10701204603F0C5F9314638468DF82D
:10350800076001F0D1FA2A460DF10701642320462D
:1035180003F0B8F94023314638468DF8073001F0FA
:10352800C3FA2A460DF107016423204603F0AAF9DD
:10353800A623314638468DF8073001F0B5FA2A46F9
:103548000DF107016423204603F09CF9A4233146BA
:1035580038468DF8073001F0A7FA2A460DF1070121
:103568006423204603F08EF98D23314638468DF8C2
:10357800073001F099FA2A460DF107016423204625
:1035880003F080F91423314638468DF8073001F0EE
:103598008BFA2A460DF107016423204603F072F9DD
:1035A800A123314638468DF8073001F07DFA2A46C6
:1035B8000DF107016423204603F064F9C82331465E
:1035C80038468DF8073001F06FFA2A460DF10701E9
:1035D8006423204603F056F98123314638468DF896
:1035E800073001F061FA2A460DF1070164232046ED
:1035F80003F048F98F23314638468DF8073001F03B
:1036080053FA2A460DF107016423204603F03AF9DC
:10361800D923314638468DF8073001F045FA2A4655
:103628000DF107016423204603F02CF925233146C8
:1036380038468DF8073001F037FA2A460DF10701B0
:103648006423204603F01EF9DB23314638468DF803
:10365800073001F029FA2A460DF1070164232046B4
:1036680003F010F93423314638468DF8073001F05D
:103678001BFA2A460DF107016423204603F002F9DC
:10368800AF23314638468DF8073001F00DFA642330
:103698002A460DF10701204603F0F4F825B0BDE8ED
:1036A800F08F00BFAFF30080060B0B000105060A80
:1036B8002DE9F04304468DB000250127019100F063
:1036C8008DF80199204600F011F904F120092046EF
:1036D8004FF00208FFF76AFD2046FFF731FE05A903
:1036E800484604F51046CDE90875CDE9068501F090
:1036F8003BF82A464146484601F0B4F80C2000F051
:103708006FF8ADF810000B2000F06AF8ADF80C0067
:10371800284600F065F89FED2F0A0499ADF80800D7
:1037280004F13C00DDE9023200F0B4FC112000F0A5
:1037380057F8A6F8C40549F2C450A6F8C67520443F
:1037480001F0C8F8142000F04BF83A4605A9ADF886
:10375800140004F1E40000F0CDFC132000F040F860
:103768003A4605A9ADF8140004F1EB0000F0C2FCDC
:103778002046FFF7E5FD47F6122349F2A41005A9F4
:103788000B93154B2044C6F89C51059303F17F43D6
:10379800CDF8248003F5807307970A97C6F8A031FF
:1037A8000895069503F0F8FE0A23C6F890512046BE
:1037B800C6F88C5184F8FC3084F8F850FFF768FD9F
:1037C8001123C6F8CC3504F0FBF8C6F8C8050DB0CF
:1037D800BDE8F0830000000001060107704700BF44
:1037E800202882B009D8084B03EB400213F81030A8
:1037F800507843EA002002B0704701230C2043EAC6
:10380800002002B0704700BFEC7A010890ED0E0A64
:10381800704700BF253001F047B900BFF0B503235A
:1038280099B000270125129306462C4B09A8159537
:10383800CDE90E7340F20453ADF84030284BCDE982
:103848001357099301F046F809A801F01FF9002859
:1038580036D1244B04AF04460090CDF842301023F3
:10386800394604958DF820301F4BCDE91650CDE927
:1038780006506846059301F097FA0823009A01A9B3
:1038880009A8ADF804508DF80640099402950393F1
:1038980000F0FCF800230EA938463024049301F008
:1038A800D7FF03224FF07E5309A906F114000B93AA
:1038B8000C93CDE90942049A00F024FB19B0F0BD3D
:1038C80040F60132074B169704AFADF8242009984B
:1038D800CDF84230179500F099F8DBE704020404AC
:1038E80003030001040604030704010B2DE9F04358
:1038F80004462DED028B83B0002948D0012140F207
:10390800011200230091ADF804208DF80630304AEA
:103918000126304B271D304904F12908626040F226
:103928000272A36040F60663E16004F1250926826D
:10393800A4F8252084F82760A4F8293084F82B609F
:1039480004F0B0F96946054648B304F130008DF833
:10395800066004F003F9072D34D104F1140520465C
:10396800FFF75CFF284600F04DFB2846B0EE408A82
:1039780000F044FBD0ED007AF8EE677A88EE277AFB
:1039880084ED0E7A03B0BDEC028BBDE8F08340F203
:10399800011300918DF80610ADF80430B7E704F173
:1039A800300004F0DBF83946204601F045FC484673
:1039B80000F090FF404600F08DFF04F1120000F087
:1039C8008FF9CAE73946204601F036FCC5E700BF43
:1039D8000508050905070506050A06060A4B4FF4FA
:1039E800807200B583B01B8801A8ADF80620ADF839
:1039F800043000F06FFF01A801F048F8B0FA80F039
:103A0800400903B05DF804FBB470010810B584B038
:103A180003460124ADF8040003A8ADF80C30ADF856
:103A28000E4000F057FF214603A801F03DF820465C
:103A380003F0C8FF002103A801F036F8204603F080
:103A4800C1FF214603A801F02FF804B010BD00BF44
:103A580010B5C2F3002384B00C46017C8DF80D200C
:103A680043EA4402FA2402238DF80C2003AA0094A6
:103A780001F030FA18B10124204604B010BD044604
:103A88000A2003F09FFF204604B010BD034670B51E
:103A980043F8042B044684B007C983E80700A379D8
:103AA80083B91A210B461E22FA2523742046ADF845
:103AB8000C20022303AA009501F00CFA28B101207A
:103AC80004B070BD1B210B46EDE70A2003F07AFF16
:103AD8004FF4B85200950223ADF80C20204603AAF3
:103AE800217C01F0F7F90028E9D10A2003F06AFFE8
:103AF80041F2027200950223ADF80C20204603AA79
:103B0800217C01F0E7F90028D9D10A2003F05AFFF7
:103B1800042200950223ADF80C20204603AA217C3C
:103B280001F0D8F90028CAD10A2003F04BFF062279
:103B380000950223ADF80C20204603AA217C01F051
:103B4800C9F90028BBD10A2003F03CFF41F2082242
:103B580000950223ADF80C20204603AA217C01F031
:103B6800B9F90028ABD10A20064603F02BFF0095CF
:103B7800022303AA217C2046ADF80C6001F0AAF9C3
:103B880000289CD1304603F01DFF009522790C23B4
:103B98002046002A8DF80C3003AA4FF0020314BF08
:103BA800622142218DF80D10217C01F093F9002843
:103BB80085D1304603F006FF2279D4E902310B4360
:103BC800DBB20AB943F0400362790AB143F020033B
:103BD8000E22FA258DF80D302046009502238DF827
:103BE8000C2003AA217C01F075F900287FF467AF47
:103BF8000A2003F0E7FE102200950223ADF80C20FE
:103C0800204603AA217C01F065F900287FF457AF0C
:103C18000A2003F0D7FE122100950223ADF80C10FC
:103C280003AA217C204601F055F900287FF447AF0C
:103C38000A2003F0C7FE012209212046FFF708FFEA
:103C4800003818BF01203BE7F0B5102387B0234C9C
:103C5800012200250126002702A920460195CDE969
:103C680002234FF48052CDE904670BF01BFE642059
:103C780004F08EFD02A94FF480522046CDE9046776
:103C880002261027CDE902670BF00CFE0322102351
:103C980002A92046CDE9022300230422CDE904230A
:103CA8004FF480520BF0FEFD40F23223042202A9A9
:103CB800019310232046CDE90223019A012305929E
:103CC8004FF4805204930BF0EDFD40F606012046B8
:103CD8000BF008FE284607B0F0BD00BFDCA60024A4
:103CE8001C4B00221C494FF0400C30B5054689B0EA
:103CF8000220596007219A601A620124DA620A22B6
:103D08004FF4006EDC6006922022CDE90001042009
:103D18000821CDE9020103201021CDE90401082082
:103D28006946C3E904024FF4C072181DC3E906C20C
:103D38004FF48052C3E909E20BF08AFD38B92846EE
:103D4800FFF782FF003818BF012009B030BD2046B8
:103D580009B030BDD8A6002440410052614A002174
:103D6800D0B513688EB00A91002B40F0B9805E4B35
:103D780001214FF683700C2411600221D3F8D4205E
:103D88000026032742F48052C3F8D420D3F8D42065
:103D980002F480520092009AD3F8E02042F0100218
:103DA800C3F8E020D3F8E02002F010020192019A53
:103DB800D3F8E02042F04002C3F8E020D3F8E02036
:103DC80002F040020292029AD3F8E02042F0080280
:103DD800C3F8E020D3F8E02002F008020392039A27
:103DE800D3F8E02042F48072C3F8E020D3F8E02052
:103DF80002F480720492049AD3F8E02042F0800220
:103E0800C3F8E020D3F8E02002F080020592059A7A
:103E1800D3F8E02042F02002C3F8E020D3F8E020F5
:103E280002F020020692069AD3F8E02042F004023B
:103E3800C3F8E020D3F8E0300C9403F004030793B0
:103E48000323079A0B93CDE9080108A9274806F030
:103E58009FFA48F23712022308A925480C94CDE9A5
:103E68000823CDE90A6706F093FA4CF2037202239D
:103E780008A920480C94CDE90823CDE90A6706F083
:103E880087FA40F2FF62022308A91B480C94CDE987
:103E98000823CDE90A6706F07BFA4FF60C72022375
:103EA80008A916480C94CDE90823CDE90A6706F05D
:103EB8006FFA4FF63F02022308A911480C94CDE986
:103EC8000823CDE90A6706F063FA2022022308A92D
:103ED8000A480C94CDE90A67CDE9082306F058FA98
:103EE8000EB0D0BDD4A600240044025800100258D9
:103EF80000180258000C025800200258001C0258F2
:103F08000014025830B5184C154685B0046004F109
:103F1800080EEC460FC98EE80F00D4ED047AF5EED2
:103F2800C07A8CE80F00F1EE10FA1ADDB7EE006ADD
:103F380094ED057A27EE277AC6EE276A84ED0D7A86
:103F4800C4ED0C6A6DB1204640F8185F01F078FDA9
:103F5800064903690020064A2162A262E36005B0AF
:103F680030BD012005B030BD10A70024002000306E
:103F780000000030F0B51C4C16461F4689B004609E
:103F880004F10805EE460DF1100C0FC985E80F0085
:103F9800D4ED047AF5EEC07A8EE80F00F1EE10FA4F
:103FA8008CE80F0017DDB7EE006A94ED057A27EE6E
:103FB800277AC6EE276A84ED0D7AC4ED0C6A56B1ED
:103FC800204640F8186F01F03BFD08490369084A8C
:103FD8002162A262E360074A0020074BE761626240
:103FE800E36209B0F0BD00BF10A700240020003034
:103FF8000000003000300030001000300068083049
:10400800704700BF0068183001F01CBD10B4074BA2
:104018004FF07E5130240022032019619C60D86043
:104028005DF8044B5961C3E90622704710A70024C4
:10403800F6EE007A9FED166A20EE207A0160F7EE20
:10404800006A80ED036A80ED020A27EE277AC6EE41
:10405800877AF4EEE67AF1EE10FA11DDF0EE667A80
:104068004FF07E514FF0000C02760022C0ED017A2D
:10407800C0F814C0016143768276C0ED070A704724
:10408800F4EEC67AF1EE10FAEAD5F0EE467AE7E7F2
:104098000000000030B585B004460025ADF80C10CE
:1040A800ADF80820ADF8043003F08AFCBDF80C2008
:1040B8004FF48073206004F118002283BDF80820B3
:1040C8006383E383A283257100F004FC04F11C00E0
:1040D80000F000FC9FED060A019904F1080000F0C9
:1040E80013F84FF6FF736562238405B030BD00BF37
:1040F8000000000009884FF0000C8271C0F802C06F
:10410800018000F0E7BB00BF70B5044682B0C1F380
:104118000726CDB2ADF8041003F052FC4FF48072BC
:104128004FF001232060A01DA571A280E671A36055
:1041380002B0BDE8704000F0CDBB00BF82B04FF0C8
:10414800000C0323ADF80410BDF8042080F810C05B
:104158000280438002B070472DE9F04FBE4E002523
:104168008FB0BE4C037006F14003426007460192CF
:104178008846202229463046C4F85831C4F854618C
:10418800CDE90355CDE90555CDE90755CDE90955E3
:10419800CDE90B5512F062FD2022294604F59970ED
:1041A800C4F82151C4F82551C4F82951C4F82D5137
:1041B80012F054FD019B84F8385284F820317A6853
:1041C800002A5FD02B464146B64604F590759946BD
:1041D8004FF0010A03EB0310D1F800B0D1F80480C6
:1041E8000133D1F808C02218CE6844F800B0C2F8EC
:1041F8000480C2F808C0D660087C2EF8029B1074B0
:104208000A7C05F8012F002A69D07A68113184F8F0
:1042180038A29A42DED84FF4802291489DF80430A3
:1042280008214FF000084FF00009C4F8743100234A
:10423800C4E957020122C4F8643184F87031C4E932
:104248005A2194F83812C4E9608981B3C4F88821E6
:10425800002284F8713184F878313B78C4E963220C
:10426800A3B3012200200121013B84F89421C4E971
:104278006801082B2CD8DFE803F0ABB0B5BABFC48F
:10428800C9CFD6009DF804300121C4F86421C4F8D0
:1042980074314FF4802384F87021714AC4E957239C
:1042A80008230022C4E95A130023C4E96023012328
:1042B800002284F87131002384F878310323C4F88C
:1042C80088313B78C4E96322002BCAD184F8943141
:1042D800644804F035FD034638B1FFBEFEE77A684E
:1042E80011319A423FF676AF95E703A95D480393EB
:1042F80004F032FE0546002868D1022240F2FF731E
:10430800CDE9082300230422CDE90A2394F82031BB
:10431800002B00F0D5804FF0060921E0022B00F0B9
:104328008980012B40F0C4809AF80130012B00F0FD
:10433800C180002B4C4B18BF002306A94948CDE982
:10434800063904F03DFA002840F0BF80013594F8A2
:104358002031EDB2AB4240F2B380444B53F8259084
:104368002FB207EB071704EB070A504600F0B2FA22
:1043780005EB051323441B7C042B7DDC022B00F387
:10438800918000F08D806319002283F81021E35D8D
:10439800002BC3D19AF80130062B00F08580072B3B
:1043A80000F08A80022B00F09680032B00F09580A5
:1043B800002B00F09680012B00F09180042B00F078
:1043C8009280052B2A4B18BF0023B6E7FFBEFEE7F5
:1043D80003224023C4E966237AE707226023C4E95D
:1043E800662375E70F228023C4E9662370E71F223E
:1043F800A023C4E966236BE73F22C023C4E96623F0
:1044080066E77F22E023C4E9662361E7FF224FF4D1
:104418008073C4E966235BE740F2FF124FF49073A0
:10442800C4E9662354E740F2FF324FF4A073C4E9AD
:1044380066234DE79AF80130042B37D0052B3DD081
:10444800002B40D0012B42D0022B42D0032B094B2A
:1044580018BF002371E700BF0040003048A70024C0
:1044680000200240A4A800240002B025307B0108E7
:104478000000B84F0020903603233E1D04EB0508CA
:104488004FF0000B264488F8103130460BF1010B31
:1044980000F020FA98F8103104365B45F5DC76E731
:1044A8000123EAE70223E8E7104B46E7104B44E70D
:1044B800002342E70F4B40E70F4B3EE70F4B3CE72B
:1044C8000FB0BDE8F08F0E4B37E7FFBEFEE70D4B90
:1044D80033E70D4B31E70D4B2FE70D4B2DE70D4B18
:1044E8002BE70D4B29E70D4B27E700BF0800900C81
:1044F8001000C0102000F0148000501D0001802121
:104508000004002A0008302E001060320040C03A33
:104518000080F03E00005247000021430000844B19
:10452800034B0F29D3F8540198BF00EB41007047A3
:1045380048A70024214B02689A4200D07047204ABD
:1045480000232048D2F8D81030B51F4C41F0200184
:1045580083B0C4F8C001092004F5E075C4E971030B
:104568004FF48060C2F8D810D2F8D8204FF4006118
:10457800C4E9733094F8380202F02002C4F8D41168
:104588004FF40051984201922846C4F8D811C4E962
:104598007833019B14BF00234FF48073C4F8DC31D7
:1045A80005F02CF808B1FFBEFEE704F5AE73C4F8B9
:1045B800A851C4F8F83103B030BD00BF0020024054
:1045C800004402584000024048A70024014805F072
:1045D8008DBB00BF08A900244F4B02689A4200D047
:1045E80070474E4BD3F8E81030B541F000514C4CB1
:1045F80085B0D4F84821C3F8E810D3F8E81001F0E2
:10460800005101910199D3F8E01041F00101C3F87C
:10461800E010D3F8E03003F001030293029B32F07C
:1046280002033DD0013A012A6BD9D4F84C31012B51
:104638000AD000223620114604F002FD362005B0CB
:10464800BDE8304004F03ABDD4F8483133F00202F6
:1046580034D0013B012BECD8442240233149324D60
:10466800C4F88C1000212846C4F8B010C4E92423EB
:1046780000224FF48063C4E926234FF400624FF40C
:104688000053C4E928234FF480724FF48033C4E9FF
:104698002A2304F0B3FF80B9E560C4F8C440C8E732
:1046A8004FF48062032303A8ADF80C208DF80E3078
:1046B80000F010F9D4F84821B4E7FEE71B4BA263D9
:1046C8004322636140231A4DC4E9062300224FF4B4
:1046D80080632846C4E908234FF400624FF400536E
:1046E800C4E90A234FF480724FF48033C4E90C23E1
:1046F80004F084FF20B9D4F84831A560E464A8E741
:10470800FEE74FF4A062032303A8ADF80C208DF850
:104718000E3000F0DFF888E70074004000440258CB
:1047280088A900242804024014AA00241004024086
:104738009CA90024014805F0D9BA00BF9CA900240F
:10474800014805F0D3BA00BF14AA002410B5054CDF
:10475800204604F09FFD04F58270BDE810400CF07F
:1047680091B900BF88A9002430B58C463A4C3B4D1E
:104778008DB0046004F5A27EBCE80F00AEE80F001F
:10478800DCF8003020462560CEF8003004F024FD27
:104798000023D4F84C510393C5B11622012D04927D
:1047A80017D00022D4F85411D4F848319142CDE9F9
:1047B800062218BF0222059233F0020235D0013BCF
:1047C800012B3CD9002528460DB030BD02230493A7
:1047D800E7E7234A0093C4F80C31C4F81431C4F84D
:1047E8000421C4F81C31CDE9013303F059FAD4F897
:1047F80044314BF68032C4F80851002B08BF1346E9
:10480800B0FBF3F304F58270C4F810310BF0A4FF89
:104818000028D8D120230290694604F582700093BD
:104828000CF0E8F90028BCD0CDE703A90A4804F049
:1048380065FD78B9D4F84831013B012BC2D8102264
:1048480003A9054804F05AFD051E18BF012528468E
:104858000DB030BD0125B6E788A9002400740040DA
:10486800001000402DE9F0410668D6F84C5105BB10
:10487800D6F850310C461746002B0CBF4FF00808ED
:104888004FF0000831F0020305D0013C012C14D987
:104898002846BDE8F0811346294642463046013C89
:1048A80004F0DEFC2946304604F0ACFC012CEFD8BD
:1048B80003E001252846BDE8F0813B464246102129
:1048C800304604F0CDFC1021304604F09BFC28460D
:1048D800BDE8F0818378022B30B504468FB037D01D
:1048E800032B33D0012B31D000230A93E378012B1B
:1048F8002AD0022B28D000230B93002320460C93A8
:1049080003F09AFB0546204603F09EFB23780990A6
:10491800082B13D8DFE803F01F3245586B7E91A4AB
:104928000500594BD3F8E02042F48072C3F8E02028
:10493800D3F8E03003F480730893089B09A928464C
:1049480005F026FD0FB030BD0B93D6E70A93CDE7EF
:1049580011230A93CAE74C4B09A92846D3F8E0204B
:1049680042F00102C3F8E020D3F8E03003F001037D
:104978000093009B05F00CFD0FB030BD424B09A918
:104988002846D3F8E02042F00202C3F8E020D3F82A
:10499800E03003F002030193019B05F0F9FC0FB02E
:1049A80030BD394B09A92846D3F8E02042F004026B
:1049B800C3F8E020D3F8E03003F004030293029B2D
:1049C80005F0E6FC0FB030BD2F4B09A92846D3F8F7
:1049D800E02042F00802C3F8E020D3F8E03003F00A
:1049E80008030393039B05F0D3FC0FB030BD264B9F
:1049F80009A92846D3F8E02042F01002C3F8E020C5
:104A0800D3F8E03003F010030493049B05F0C0FCD6
:104A18000FB030BD1C4B09A92846D3F8E02042F05E
:104A28002002C3F8E020D3F8E03003F02003059318
:104A3800059B05F0ADFC0FB030BD134B09A9284606
:104A4800D3F8E02042F04002C3F8E020D3F8E03089
:104A580003F040030693069B05F09AFC0FB030BDA7
:104A6800094B09A92846D3F8E02042F08002C3F890
:104A7800E020D3F8E03003F080030793079B05F0AC
:104A880087FC0FB030BD00BF0044025838B505465A
:104A980003F0D2FA0446284603F0D6FA0146204627
:104AA800BDE8384005F07CBE70B506460D4603F0FB
:104AB800C3FA0446304603F0C7FA2A1E01462046C8
:104AC80018BF0122BDE8704005F070BE0023122215
:104AD80070B586B0CDE9022304930368032B01D88F
:104AE80004230593061D841D304603F0A5FA0546E8
:104AF800304603F0A9FA034601A92846019305F0B8
:104B080047FC204603F098FA034620461C4603F06B
:104B18009BFA01A903462046019305F039FC06B02B
:104B280070BD00BF634A0368934210B58CB028D0AB
:104B3800614A934258D0614A934200F09480604A97
:104B4800934201D00CB010BD5E4C5F48D4F8E03001
:104B580043F00203C4F8E030D4F8E03003F0020375
:104B68000A930A9BFFF7B2FFD4F8F43043F08003AE
:104B7800C4F8F430D4F8F43003F080030B930B9BA3
:104B8800E0E7504C5148D4F8E03043F00203C4F851
:104B9800E030D4F8E03003F002030193019BFFF703
:104BA80095FFD4F8E83000221F2043F40013114683
:104BB800C4F8E830D4F8E83003F400130293029BF9
:104BC800D4F8D83043F00103C4F8D830D4F8D8303A
:104BD80003F001030393039B04F032FA1F200CB087
:104BE800BDE8104004F06ABA364C3948D4F8E030D1
:104BF80043F08003C4F8E030D4F8E03003F08003D9
:104C08000493049BD4F8E03043F00203C4F8E03086
:104C1800D4F8E03003F002030593059BFFF756FF35
:104C2800D4F8E8300022212043F480031146C4F868
:104C3800E830D4F8E83003F480030693069BD4F8F0
:104C4800D83043F00103C4F8D830D4F8D83003F092
:104C580001030793079B04F0F3F921200CB0BDE88A
:104C6800104004F02BBA1B48FFF730FF154B002209
:104C78004820D3F8E840114644F40004C3F8E8405B
:104C8800D3F8E84004F400040894089CD3F8D8400A
:104C980044F00104C3F8D840D3F8D83003F0010336
:104CA8000993099B04F0CCF948200CB0BDE81040EA
:104CB80004F004BA0054004000580040005C004072
:104CC800001C0058004402587CAD0024F4AA0024BB
:104CD800CCAB0024A4AC00242DE9F0431A4B87B0D8
:104CE80000254FF010099E46EC46184BFF22E0467F
:104CF80067461A700EF118060EF13004CDE900551A
:104D0800CDE90255ADF80090BCE80F00CDE9045597
:104D1800AEE80F009CE803000095ADF800908EE81F
:104D28000300B8E80F000FC69CE803000095ADF833
:104D3800009086E803000FCF0FC49CE8030084E8C6
:104D4800030007B0BDE8F08344020024F0AA002461
:104D580010B5EFF3108472B6084B1A78120602D514
:104D680004B962B610BD1B78D82205485BB202FBB5
:104D78000300143004F0BAFFF2E700BFF0AA0024E1
:104D8800F4AA0024014806F01FBC00BF80AB002431
:104D9800014806F019BC00BF58AC0024014806F0D1
:104DA80013BC00BF30AD00242DE9F0430F68D824B0
:104DB8003F4D85B007FB04F4032F05EB04030360A4
:104DC80040DCCB680E46012B3CD84DD04FF0D808BC
:104DD800B646DFF8FC9008FB0758BEE80F00C4464B
:104DE800ACE80F00DEF800300DF1100ECCF8003002
:104DF800D8F808C099E80F000EE90F000EEB8703FA
:104E0800BCF1010F53F8103CC8F88C3031D0BCF11C
:104E1800020F42D0BCF1000F35D0317C8C34D8233E
:104E2800002201202C4403FB07534900C3E9260252
:104E3800C3F894102046C3E92822C3E92A2206F0C1
:104E4800B5F918B1012005B0BDE8F0830146204648
:104E580006F0C6FB0028F5D10146204606F0EAFB1D
:104E6800003818BF0120EEE70B7C103B672BADD94B
:104E7800E8E702F013FF0F4B98420CBF0E4B0F4BA5
:104E8800C8F89030C9E702F009FF0A4B98420CBFF6
:104E98000B4B0C4BC8F89030BFE702F0FFFE054BF8
:104EA80098420CBF084B094BC8F89030B5E700BFD3
:104EB800F4AA0024000E27072D0FB0303211D0209D
:104EC8005F4390608A62E030200BA0101A098010BE
:104ED800B87001082DE9F041D0F8008082B00D4685
:104EE80017461E4608F18C04204606F075FB20285C
:104EF800FAD1D8F80C3073B96D002046089C3346B7
:104F08003A46A9B2009406F0A7F9003818BF012064
:104F180002B0BDE8F081089B32463946204606F0CB
:104F28006FFAF2E7044B10221A7483F8E82083F82A
:104F3800C02183F898227047F4AA002430B50023D2
:104F480095B04FF48071062204460B930692139392
:104F5800CDE90C13CDE90E33CDE9113302F0A2FEF1
:104F680007282BD004F1100541F2883206A92846FB
:104F780007F072F928B10123184684F85C3015B09F
:104F880030BD0222022306A92846CDE900231022BB
:104F98000123CDE9022300224FF48003CDE9042345
:104FA80005224FF0807306926A460F9341F28833C8
:104FB80007F0BEFA0028DED115B030BD032301206A
:104FC80084F85C3015B030BD70B50023A4B04FF044
:104FD80080724FF480750446ADF806300D93CDE924
:104FE80010320122CDE90E53CDE91223CDE9143355
:104FF800002943D0F02300F1100508AEADF80630C3
:10500800C02341F2883231462846089307F024F934
:1050180028B10123184684F85C3024B070BD41F2F1
:1050280088320DF10601284607F080F9034600286A
:10503800EFD105224FF480711E93284616924FF047
:1050480080721B9321931F9202AA9FED1F7BCDE9CB
:105058001C13CDE922338DED027B9FED1D7B41F2C0
:10506800883316A98DED047B9FED1B7B8DED067BA8
:1050780007F05EFA0028CCD124B070BD00F110050D
:1050880008AE612341F2883231462846089307F07A
:10509800E3F80028BDD141F288320DF10601284617
:1050A80007F0C2F90028B4D1BDF80630204623F035
:1050B800780343F04003ADF80630FFF73FFF0028C0
:1050C8009ED0A6E7AFF300800000000001000000BA
:1050D8001000000001000000000000000000400077
:1050E8002DE9F04F00234FF4807501264FF08078AA
:1050F80004462DED028BABB08DF807301393219346
:10510800299314950E96CDF85C80CDE91533CDE939
:105118001863CDE91A33CDE92253CDE92433CDE91B
:10512800273306231C9302F0BDFD072808D004F19D
:10513800100741F288321CA9384607F08DF840B1B3
:105148000123184684F85C302BB0BDEC028BBDE817
:10515800F08F4FF0020A4FF0020B4FF0050941F2B1
:10516800883308AA1CA93846CDF89480CDF87090E9
:105178009FED2D8BCDE908AB4FF0000A4FF4800B63
:105188008DED0A8BCDE90CAB07F0D2F90028D7D109
:1051980041F2883238460EA907F05EF80028CFD1D0
:1051A800402341F288320DF1070138468DF8073067
:1051B80007F0BCF80028C3D141F288330EA902AA2F
:1051C8003846CDF83890CDF85C809FED197B8DED91
:1051D800048BCDE906AB8DED027B07F0A9F90346F8
:1051E8000028ADD1CDF870904FF00109CDF894802A
:1051F8004FF00008219308AA29931CA93846229544
:10520800CDE92333CDE9273341F288338DED0A8B7D
:10521800CDE90CABCDE9088907F08AF9002893D0CD
:10522800304684F85C608FE7100000000100000041
:1052380040000000400000002DE9F043624CA3B09C
:105248000D46046002F02EFD072800F0A9802868AA
:1052580023466968AA6807C31E46AB8926F8043B3B
:105268003046257B677B06F0D9FFE0B9574B012D07
:105278004FF00108E061236114BF4FF480134FF42D
:105288000003C4E9058893FAA3F3B3FA83F34FF450
:105298008079013BC4F82490C4E90B0030462362AE
:1052A80006F050FF38B10122134684F85C201846F6
:1052B80023B0BDE8F08366230B90139041F2883247
:1052C80006A90693CDE90C90CDE90E00CDE91100B1
:1052D800304606F0C1FF0028E5D1992341F2883213
:1052E80006A93046069306F0B7FF0028DBD1052350
:1052F8001C9019906A4614934FF08073219014A95A
:105308001D9341F288339FED2A7BCDE91A90CDE9B0
:105318001F008DED007B9FED287B30468DED027BD5
:105328009FED277B8DED047B07F002F90028BAD1A9
:1053380029462046FFF748FE0028B4D12046FFF74B
:10534800CFFE03460028AED1002FB0D118933046C7
:105358000027002606AA14A9CDF86890CDE91F33C6
:10536800EB2314934FF440631B934FF400531793AC
:105378004FF440431C93A0231693062319934FF030
:10538800805321934FF04073CDE906671D9307F0D2
:1053980047F9034600288AD0434684F85C8086E7AC
:1053A80001230322184684F85C2023B0BDE8F0836B
:1053B80000000000010000001000000001000000D3
:1053C800000000000000400054AE002400500052CD
:1053D8002DE9F04F8FB0414B0024026800AF9A428C
:1053E8007C63C7E90944C7E90B4403D03C37BD4691
:1053F800BDE8F08F3A4B40F609213A48EB46D3F81E
:10540800D42007F11C0607F1220A4FF0020942F4E2
:1054180080424FF00308C3F8D420D3F8D42002F414
:105428008042BA60BA68D3F8E02042F04002C3F87C
:10543800E020D3F8E02002F04002FA60FA68D3F8DE
:10544800E02042F02002C3F8E020D3F8E02002F088
:1054580020023A613A69D3F8E02042F01002C3F81A
:10546800E020D3F8E02002F010027A617A69D3F8DC
:10547800E02042F00202C3F8E020D3F8E030F861FF
:1054880003F002033984BB61174B7B60BB697B68FF
:1054980053F8040F7B6002F0CFFD7B68054618685F
:1054A80002F0D2FD16F8013B786207F12401284684
:1054B800C7F830807B63C7E90A9404F069FF564552
:1054C800E5D100225C20114603F0BAFD5C2003F010
:1054D800F5FD3C37DD46BD46BDE8F08F0050005273
:1054E800004402580A0A0909B0AE0024114B0268A8
:1054F8009A4200D07047104A70B5D2F8D4300F4C99
:1055080023F4804304F11806C2F8D43054F8040F89
:1055180002F092FD0546206802F096FD01462846F5
:1055280005F076F8B442F1D15C20BDE8704003F094
:10553800D3BD00BF0050005200440258B0AE002452
:10554800014807F0F9B800BF64AE0024084B1A1DE3
:10555800981D03F1080110B49C1C9A6603F10A0215
:10556800C3E91834C3E91B015DF8044B5A67704757
:1055780054AE002438B5036871B9026A00F12805F1
:1055880000F5AC74012A0CBF002140218BBB1D4BD8
:105598005722C0F858310DE0426A00F1C00500F505
:1055A800E874012A0CBF00214021EBB1164B5A22A6
:1055B800C0F8D03100232046C4E901214FF48052BD
:1055C8004FF48061636262614FF48042C4E9033141
:1055D8004FF48073C4E906234FF40033236204F0C8
:1055E8000DF858B1FFBEFEE7084B5822C0F8D0317D
:1055F800E0E7074B5922C0F85831DBE7C5E92044FA
:10560800A56338BD10000240700002402800024027
:10561800580002402DE9F043821D05468BB0031D5A
:1056280005F10A010830CDE9052305F10C02AB6943
:10563800CDE907010992002B3DD0EB69B3FA83F855
:105648004FEA58180123022205AE0AAF4FF00609A7
:105658000393CDE9012356F8044B2B792278934222
:1056680016D02B68F3B1012B02D1F2B10A230493AF
:10567800204602F0E9FC03462046009302F0DCFCD9
:10568800694604F085FEBE42E5D10BB0BDE8F08363
:10569800697963789942E4D1B8F1000FF3D02B68A7
:1056A800002BE0D1CDF81090E2E76378022B14BF0D
:1056B8000A230823DBE74FF00108C3E7534A0368CE
:1056C800934230B505468BB055D02032934252D024
:1056D8004F4A934204D02032934201D00BB030BDE0
:1056E8004C4C4D48D4F8E03043F00103C4F8E030A6
:1056F800D4F8E03003F001030593059BD4F8E030BB
:1057080043F00803C4F8E030D4F8E03003F00803AD
:105718000693069BD4F8E03043F04003C4F8E03029
:10572800D4F8E03003F040030793079BD4F8F03037
:1057380043F40003C4F8F030D4F8F03003F4000365
:105748000893089BFFF766FFD4F8D830296843F020
:1057580001032F4A3048C4F8D830891AD4F8D83011
:1057680018BF012103F001030993099B0BB0BDE8A1
:105778003040FFF7FFBE274C2848D4F8E03043F00C
:105788000103C4F8E030D4F8E03003F001030093DB
:10579800009BD4F8E03043F01003C4F8E030D4F8AC
:1057A800E03003F010030193019BD4F8E03043F09C
:1057B8004003C4F8E030D4F8E03003F0400302932B
:1057C800029BD4F8F03043F48003C4F8F030D4F8E6
:1057D800F03003F480030393039BFFF71BFFD4F817
:1057E800D830296843F00103084A0C48C4F8D83077
:1057F800891AD4F8D83018BF012103F001030493A3
:10580800049B0BB0BDE83040FFF7B4BE045801401C
:10581800045C01400044025828B10024CCAE0024A6
:10582800014804F063BA00BF24B00024014804F022
:105838005DBA00BF9CB00024014804F057BA00BF0D
:1058480080B20024014804F051BA00BFF8B2002425
:105858002DE9F04F0C684FF41776754F87B004FBAD
:1058680006F6012C07EB060AC0F800A000F3A0809A
:105878000D468E464FF00008D44669A3D3E90023AD
:1058880069A1D1E90001CDE9022306ABCAF850822B
:1058980003EB8403CDE9040153F810BC53F8083C2A
:1058A800CAE992880193BEE80F00ACE80F00BEE891
:1058B8000F00ACE80F00019B9EE80300CAF828B06F
:1058C800CAF8C0308CE803002B69042B0CD8DFE839
:1058D80003F0737D879103004FF41773554A03FB58
:1058E80004739A64C3F8E020AA692B6A002A43D09B
:1058F800002B4FF4177308BF022203FB047318BF71
:105908000322DA6201221A63EA696B6A002A40D12B
:10591800191E4FF4177318BF012103FB0473C3E961
:1059280031126B69022B05D8434A12F80380434AA7
:1059380052F823904FF4177306F12800424649465F
:1059480003FB04740023384463646363E365C4F8A9
:10595800DC30C4F8CC30C4F8F430C4E90F33C4E9FF
:105968001533C4E93533C4E93B33022308F086FF15
:10597800002849D0FFBEFEE7191E4FF4177318BF61
:10598800012103FB0473C3E90B12EA696B6A002A5D
:10599800BED0002B4FF4177308BF022203FB047319
:1059A80018BF0322C3F8C4200122C3F8C820B8E7EF
:1059B800012007B0BDE8F08F4FF417734FF4FA5287
:1059C80003FB04739A64C3F8E0208DE74FF4177360
:1059D8004FF47A5203FB04739A64C3F8E02083E718
:1059E8004FF417734FF4FA4203FB04739A64C3F835
:1059F800E02079E74FF417734BF6803203FB04730A
:105A08009A64C3F8E0206FE706F1C000022342461B
:105A18004946384408F032FF0028CAD0FFBEFEE7E6
:105A280004580140045C014024580140245C0140B2
:105A3800CCAE002400770100707B0108747B01085C
:105A48000068704703681B69042B05D8044A02EBF9
:105A5800830393ED000A70479FED020A704700BF69
:105A6800807B010800803B47002091F808C01C4B50
:105A78001C4A844510B4C3E90020D1E90024186108
:105A880018BF4FF48050002C0CBF00214FF4804108
:105A9800C3E90201042A06D8DFE802F0090F151B42
:105AA800030001225A6100205DF8044B7047FA2276
:105AB80000205DF8044B5A617047082200205DF809
:105AC800044B5A617047042200205DF8044B5A6168
