:020000040800F2
:1000000000000220110A00080D0A0008A56C000873
:100010000D0A00080D0A00080D0A00080000000083
:100020000000000000000000000000000D0A0008B1
:100030000D0A0008000000000D0A0008296C0008E5
:100040000D0A00080D0A00080D0A00080D0A000834
:100050000D0A00080D0A00080D0A00080D0A000824
:100060000D0A00080D0A00080D0A0008A14D00083D
:10007000AD4D0008FD390008B94D0008C54D000818
:1000800029690008CD4200080D0A00080D0A000881
:100090000D0A00080D0A00080D0A00080D0A0008E4
:1000A0000D0A00080D0A00080D0A00080D0A0008D4
:1000B000C1220108CD220108D9220108014300080C
:1000C0000D0A00080D4300080D0A0008CD5700086E
:1000D000D95700085D6700088D670008C1670008F0
:1000E0000D0A00080D0A0008000000000D0A0008B3
:1000F0000D0A00080D0A00080D0A00080D0A000884
:100100000D0A00080D0A0008E5220108E55700085D
:10011000F567000829680008C93C00080D0A0008B6
:10012000B13C0008BD3C0008095800083D580008D3
:100130005D6900080D0A00080D0A00080D0A000894
:1001400000000000000000000000000000000000AF
:100150000D0A00080D0A00080D0A00085D68000875
:10016000194300080D0A0008396C00085D6C00088E
:100170000D0A0008816C00080D0A00080D0A00082D
:100180000D0A00080D0A000891680008C1680008FF
:10019000F1570008FD5700080D0A00080D0A000875
:1001A0000D0A00080D0A00080D0A00080D0A0008D3
:1001B000C14A00080D0A00080D0A00080D0A0008CF
:1001C0000D0A00080D0A00080D0A00080D0A0008B3
:1001D0000D0A00080D0A00080D0A00080D0A0008A3
:1001E0000D0A00080D0A00080D0A00080D0A000893
:1001F0000D0A00080D0A00080D0A00080D0A000883
:100200000D0A00080D0A00080D0A00080D0A000872
:100210000D0A00080D0A00080D0A00080D0A000862
:100220000D0A00080D0A00080D0A00080000000071
:100230000D0A00080D0A0008000000000D0A000861
:100240000D0A00080D0A00080D0A00080D0A000832
:100250000D0A00080D0A00080D0A00080D0A000822
:100260000D0A00080D0A00080D0A00080D0A000812
:100270000D0A00080D0A0008F568000800000000DB
:100280000D0A00080D0A00080D0A00080000000011
:08029000000000000D0A000847
:1002A00010B5054C237833B9044B13B10448AFF3B0
:1002B00000800123237010BD2806002400000000E8
:1002C000A857010808B5034B1BB103490348AFF316
:1002D000008008BD000000002C060024A85701087B
:1002E00001F0FF01102A2BDB10F0070F08D010F8E7
:1002F000013B013A8B422DD010F0070F42B3F6D1EB
:10030000F0B441EA012141EA014122F007047FF003
:1003100000070023F0E80256083C85EA010586EA5A
:10032000010685FA47F5A3FA87F586FA47F6A5FA96
:1003300087F68EB9EED1F0BC01F0FF0102F00702A2
:1003400032B110F8013B013A83EA010313B1F8D14D
:100350000020704701387047002D06BF354603382E
:10036000073815F0010F07D1013015F4807F02BF67
:10037000013015F4C03F0130F0BC0138704700BFB8
:10038000034613F8012B002AFBD1181A01387047D5
:1003900081F0004102E000BF83F0004330B54FEA36
:1003A00041044FEA430594EA050F08BF90EA020FA3
:1003B0001FBF54EA000C55EA020C7FEA645C7FEA36
:1003C000655C00F0E2804FEA5454D4EB5555B8BF59
:1003D0006D420CDD2C4480EA020281EA030382EACA
:1003E000000083EA010180EA020281EA0303362D5C
:1003F00088BF30BD11F0004F4FEA01314FF4801C2F
:100400004CEA113102D0404261EB410113F0004F40
:100410004FEA03334CEA133302D0524263EB4303F7
:1004200094EA050F00F0A780A4F10104D5F1200E95
:100430000DDB02FA0EFC22FA05F2801841F10001F0
:1004400003FA0EF2801843FA05F359410EE0A5F1C4
:1004500020050EF1200E012A03FA0EFC28BF4CF0F5
:10046000020C43FA05F3C01851EBE37101F00045AB
:1004700007D54FF0000EDCF1000C7EEB00006EEBB8
:100480000101B1F5801F1BD3B1F5001F0CD3490842
:100490005FEA30004FEA3C0C04F101044FEA445299
:1004A00012F5800F80F09A80BCF1004F08BF5FEA20
:1004B000500C50F1000041EB045141EA050130BD00
:1004C0005FEA4C0C404141EB0101013C28BFB1F512
:1004D000801FE9D291F0000F04BF01460020B1FA5D
:1004E00081F308BF2033A3F10B03B3F120020CDA30
:1004F0000C3208DD02F1140CC2F10C0201FA0CF00E
:1005000021FA02F10CE002F11402D8BFC2F1200C72
:1005100001FA02F120FA0CFCDCBF41EA0C01904028
:10052000E41AA2BF01EB0451294330BD6FEA040471
:100530001F3C1CDA0C340EDC04F11404C4F120025C
:1005400020FA04F001FA02F340EA030021FA04F36E
:1005500045EA030130BDC4F10C04C4F1200220FAC5
:1005600002F001FA04F340EA0300294630BD21FA03
:1005700004F0294630BD94F0000F83F4801306BFC9
:1005800081F480110134013D4EE77FEA645C18BFBD
:100590007FEA655C29D094EA050F08BF90EA020F54
:1005A00005D054EA000C04BF1946104630BD91EA4C
:1005B000030F1EBF0021002030BD5FEA545C05D14F
:1005C0004000494128BF41F0004130BD14F580048E
:1005D0003CBF01F5801130BD01F0004545F0FE4102
:1005E00041F470014FF0000030BD7FEA645C1ABF37
:1005F000194610467FEA655C1CBF0B46024650EA6E
:10060000013406BF52EA033591EA030F41F4002199
:1006100030BD00BF90F0000F04BF0021704730B51F
:100620004FF4806404F132044FF000054FF00001F4
:1006300050E700BF90F0000F04BF0021704730B5B5
:100640004FF4806404F1320410F0004548BF40428A
:100650004FF000013EE700BF42004FEAE2014FEADF
:1006600031014FEA02701FBF12F07F4393F07F4FBA
:1006700081F06051704732F07F4208BF704793F0BD
:100680007F4F04BF41F40021704730B54FF46074D0
:1006900001F0004521F000411CE700BF50EA0102D3
:1006A00008BF704730B54FF000050AE050EA01027C
:1006B00008BF704730B511F0004502D5404261EBEC
:1006C00041014FF4806404F132045FEA915C3FF42D
:1006D000D8AE4FF003025FEADC0C18BF03325FEACA
:1006E000DC0C18BF033202EBDC02C2F1200300FA7B
:1006F00003FC20FA02F001FA03FE40EA0E0021FAA0
:1007000002F11444BDE600BF53B94AB9002908BF3D
:1007100000281CBF4FF0FF314FF0FF3000F074B9DC
:10072000ADF1080C6DE904CE00F006F8DDF804E048
:10073000DDE9022304B070472DE9F047089D044627
:100740008E46002B4DD18A42944669D9B2FA82F284
:1007500052B101FA02F3C2F1200120FA01F10CFAC0
:1007600002FC41EA030E94404FEA1C48210CBEFBF8
:10077000F8F61FFA8CF708FB16E341EA034306FB81
:1007800007F199420AD91CEB030306F1FF3080F010
:100790001F81994240F21C81023E63445B1AA4B25D
:1007A000B3FBF8F008FB103344EA034400FB07F7FF
:1007B000A7420AD91CEB040400F1FF3380F00A8140
:1007C000A74240F207816444023840EA0640E41B35
:1007D00000261DB1D4400023C5E900433146BDE8E1
:1007E000F0878B4209D9002D00F0EF800026C5E983
:1007F000000130463146BDE8F087B3FA83F6002E9B
:100800004AD18B4202D3824200F2F980841A61EB12
:10081000030301209E46002DE0D0C5E9004EDDE730
:1008200002B9FFDEB2FA82F2002A40F09280A1EB18
:100830000C014FEA1C471FFA8CFE0126200CB1FB6D
:10084000F7F307FB131140EA01410EFB03F0884266
:1008500008D91CEB010103F1FF3802D2884200F2F3
:10086000CB804346091AA4B2B1FBF7F007FB101185
:1008700044EA01440EFB00FEA64508D91CEB040423
:1008800000F1FF3102D2A64500F2BB800846A4EB7E
:100890000E0440EA03409CE7C6F12007B34022FA69
:1008A00007FC4CEA030C20FA07F401FA06F31C4398
:1008B000F9404FEA1C4900FA06F3B1FBF9F8200CA5
:1008C0001FFA8CFE09FB181140EA014108FB0EF0EB
:1008D000884202FA06F20BD91CEB010108F1FF3A3B
:1008E00080F08880884240F28580A8F10208614447
:1008F000091AA4B2B1FBF9F009FB101144EA014155
:1009000000FB0EFE8E4508D91CEB010100F1FF34FF
:100910006CD28E456AD90238614440EA0840A0FB97
:100920000294A1EB0E01A142C846A64656D353D06D
:100930005DB1B3EB080261EB0E0101FA07F722FA91
:1009400006F3F1401F43C5E9007100263146BDE8BA
:10095000F087C2F12003D8400CFA02FC21FA03F31D
:10096000914001434FEA1C471FFA8CFEB3FBF7F09E
:1009700007FB10360B0C43EA064300FB0EF69E42C3
:1009800004FA02F408D91CEB030300F1FF382FD25C
:100990009E422DD9023863449B1B89B2B3FBF7F604
:1009A00007FB163341EA034106FB0EF38B4208D9DD
:1009B0001CEB010106F1FF3816D28B4214D9023E1E
:1009C0006144C91A46EA004638E72E46284605E73C
:1009D0000646E3E61846F8E64B45A9D2B9EB02080D
:1009E00064EB0C0E0138A3E74646EAE7204694E79D
:1009F0004046D1E7D0467BE7023B614432E73046D0
:100A000009E76444023842E7704700BFFEE7000090
:100A100009480A4A0A49121A12F02CFB09480A4AE4
:100A20000021121A12F04EFB06F068FB12F0D6FA03
:100A300001F08CF9FEE700BF000000242806002426
:100A4000D8570108280600245CD500247047704759
:100A500000F1140300F214404A4203F8012B8342D0
:100A6000FAD1704738B5054600F59074AC4204D011
:100A7000183C204611F068FEF8E7204638BD4020BB
:100A800070478020704710B5044640F2144111F0C1
:100A900060FD204610BD000000F1080373B5044658
:100AA0000D460360D9B10846FFF76AFC0F2805EB35
:100AB0000006019007D9002201A9204611F022FE6C
:100AC000019B2060A36032462946206811F087FE12
:100AD000019B226800216360D15402B070BD0148BF
:100AE00011F04DFDBC43010800F1080373B503602C
:100AF0000446D1E90053EE181DB916B10C4811F0A7
:100B00003EFD0F2B019307D9002201A9204611F0C9
:100B1000F9FD019B2060A36032462946206811F050
:100B200059FE019B226800216360D15402B070BD60
:100B3000BC4301081FB5044608460391FFF720FC9B
:100B4000039B002162680090204611F0D5FE04B09E
:100B500010BD10B50446006818B1A168091A11F05B
:100B6000F8FC204610BD0B4600F1080270B502608B
:100B700053F8084B9C420FD11C4601F1180554F85C
:100B8000046BAC4242F8046BF9D14A680B60002355
:100B900042604B600B7270BD8A6804608260F4E74B
:100BA000036870B50E46DB68044615469847B042A8
:100BB00005D823682046DB689847013886B2236849
:100BC0002046A6809B689847A84205D823682046FF
:100BD0009B689847013885B2E58070BD13B504461F
:100BE0008DF807100830002103F01CFA642301225D
:100BF0000DF10701204605F04DF802B010BD84B09C
:100C000070B505AC0646054684E80E0000F12403E5
:100C1000C3610023036280F824300FCC0FC594E831
:100C2000070085E807000DAD0C9906F11C0006F1E0
:100C3000340411F0D9FD0FCD0FC40FCD0FC495E8CA
:100C40000F0084E80F003046BDE8704004B07047E4
:100C5000E048E14A00F51043E0492DE9F04F002754
:100C6000DFF8CC83ADB0DE4CC3F89C71C3F8B8712B
:100C7000076047610762C0F8F470DA4EDFF8B4A38A
:100C80003546D146C3E96827D74AC3E96A12D74A2D
:100C9000D749C3F8B021424611F056FCD548D64991
:100CA000FFF7FAFE42462146D24811F04DFCD348E8
:100CB000D349FFF7F1FE42462146D04811F044FCEB
:100CC00019AC0FCD0FC495E8070084E8070013A8FE
:100CD000CC49FFF7E1FE20AC20ADB9E80F000FC40E
:100CE000B9E80F000FC499E80F0084E80F006420F2
:100CF00005AC11F030FC83460FCD0FC40FCD0FC4EF
:100D000095E80F0084E80F001CAC13AB19AD0493F9
:100D100094E80F008DE80F0095E80E005846FFF7A5
:100D20006EFFB94B13A8C3F800B011F00DFD06F12A
:100D30001C0EAC46BEE80F00ACE80F009EE80700B2
:100D40008CE8070013A8B149FFF7A6FEDFF8E8E238
:100D50000DF1800CBEE80F00ACE80F00BEE80F00FC
:100D6000ACE80F009EE80F008CE80F00642011F043
:100D7000F2FB0DF1800E83460DF1140CBEE80F005E
:100D8000ACE80F00BEE80F00ACE80F009EE80F00D3
:100D90008CE80F0013A9049194E80F008DE80F0070
:100DA00095E80E005846FFF72AFF994913A8C1F8A5
:100DB00000B011F0C9FC06F1380EAC46DFF87CB289
:100DC000BEE80F00ACE80F009EE807008CE80700C3
:100DD00013A89049FFF760FE0DF1800CBAE80F00F0
:100DE000ACE80F00BAE80F00ACE80F0099E80F007C
:100DF0008CE80F006420DFF848A211F0ACFB0DF185
:100E0000800E81460DF1140CBEE80F00ACE80F0017
:100E1000BEE80F00ACE80F009EE80F008CE80F0062
:100E200013A8049094E80F008DE80F0095E80E00D9
:100E30004846FFF7E4FE0DF14C0C7748C0F80090EF
:100E4000604611F081FC06F1540EAC46BEE80F007E
:100E5000ACE80F009EE807008CE807000DF14C0C91
:100E60006E496046FFF718FEDFF8D8E10DF1800CFF
:100E7000BEE80F00ACE80F00BEE80F00ACE80F00C2
:100E80009EE80F008CE80F00642011F064FB0DF168
:100E9000800E81460DF1140CBEE80F00ACE80F0087
:100EA000BEE80F00ACE80F009EE80F008CE80F00D2
:100EB00013AB049394E80F008DE80F0095E80E0043
:100EC0004846FFF79CFE0DF14C0C554B6046C3F8AD
:100ED000009011F039FC06F1700EAC46BEE80F0030
:100EE000ACE80F009EE807008CE807000DF14C0C01
:100EF0004C496046FFF7D0FDDFF84CE10DF1800C66
:100F0000BEE80F00ACE80F00BEE80F00ACE80F0031
:100F10009EE80F008CE80F00642011F01CFB0DF11F
:100F2000800E81460DF1140CBEE80F00ACE80F00F6
:100F3000BEE80F00ACE80F009EE80F008CE80F0041
:100F400013AB049394E80F008DE80F0095E80E00B2
:100F50004846FFF754FE0DF14C0C334B6046C3F886
:100F6000009011F0F1FB06F18C0EAC46BEE80F00CC
:100F7000ACE80F009EE807008CE807000DF14C0C70
:100F80002A496046FFF788FDDFF8C0E00DF1800CCC
:100F9000BEE80F00ACE80F00BEE80F00ACE80F00A1
:100FA0009EE80F008CE80F00642011F0D4FA0DF1D8
:100FB000800E81460DF1140CBEE80F00ACE80F0066
:100FC000BEE80F00ACE80F009EE80F008CE80F00B1
:100FD00013A93DE0F80700240107010680707FF0A7
:100FE000AD280108104201080FF807002849010840
:100FF0004D0A000844060024FA5501087C07002425
:10100000E6430108E8430108EC070024ED4301082A
:10101000F4070024F5430108E8070024F24301081F
:10102000F0070024EB430108D4070024F74301082C
:1010300000000024F400002404000024D807002449
:10104000DC070024C400002414020024240100242E
:10105000049194E80F008DE80F0095E80E004846D3
:10106000FFF7CDFD0DF14C0CEF496046C1F8009043
:1010700011F06AFB06F1A80EAC46BEE80F00ACE822
:101080000F009EE807008CE807000DF14C0CE749C3
:101090006046FFF701FDDFF8C0E30DF1800CBEE80C
:1010A0000F00ACE80F00BEE80F00ACE80F009EE8B0
:1010B0000F008CE80F00642011F04DFA0DF1800E46
:1010C00081460DF1140CBEE80F00ACE80F00BEE83D
:1010D0000F00ACE80F009EE80F008CE80F0013A88B
:1010E000049094E80F008DE80F0095E80E00484644
:1010F000FFF785FD0DF14C0CCD48C0F8009060461F
:1011000011F022FB06F1C40EAC46BEE80F00ACE8BD
:101110000F009EE807008CE807000DF14C0CC54954
:101120006046FFF7B9FCDFF834E30DF1800CBEE850
:101130000F00ACE80F00BEE80F00ACE80F009EE81F
:101140000F008CE80F00642011F005FA0DF1800EFD
:1011500081460DF1140CBEE80F00ACE80F00BEE8AC
:101160000F00ACE80F009EE80F008CE80F0013ABF7
:10117000049394E80F008DE80F0095E80E004846B0
:10118000FFF73DFD0DF14C0CAB4B6046C3F80090F2
:1011900011F0DAFA06F1E00EAC46BEE80F00ACE85A
:1011A0000F009EE807008CE807000DF14C0CA349E6
:1011B0006046FFF771FCDFF8A8E20DF1800CBEE895
:1011C0000F00ACE80F00BEE80F00ACE80F009EE88F
:1011D0000F008CE80F00642011F0BDF90DF1800EB6
:1011E00081460DF1140CBEE80F00ACE80F00BEE81C
:1011F0000F00ACE80F009EE80F008CE80F0013AB67
:10120000049394E80F008DE80F0095E80E0048461F
:10121000FFF7F5FC0DF14C0C894B6046C3F80090CC
:1012200011F092FA06F1FC0EAC46BEE80F00ACE8F5
:101230000F009EE807008CE807000DF14C0C814977
:101240006046FFF729FCDFF81CE20DF1800CBEE8D8
:101250000F00ACE80F00BEE80F00ACE80F009EE8FE
:101260000F008CE80F00642011F075F90DF1800E6D
:1012700081460DF1140CBEE80F00ACE80F00BEE88B
:101280000F00ACE80F009EE80F008CE80F0013A9D8
:10129000049194E80F008DE80F0095E80E00484691
:1012A000FFF7ADFC0DF14C0C67496046C1F80090AA
:1012B00011F04AFA06F58C7EAC46BEE80F00ACE8A9
:1012C0000F009EE807008CE807000DF14C0C5F4909
:1012D0006046FFF7E1FBDFF890E10DF1800CBEE81E
:1012E0000F00ACE80F00BEE80F00ACE80F009EE86E
:1012F0000F008CE80F00642011F02DF90DF1800E25
:1013000081460DF1140CBEE80F00ACE80F00BEE8FA
:101310000F00ACE80F009EE80F008CE80F0013A848
:10132000049094E80F008DE80F0095E80E00484601
:10133000FFF765FC0DF14C0CCBF80090604611F006
:1013400003FA06F59A7EAC4606F5A876BEE80F00CD
:10135000ACE80F009EE807008CE807000DF14C0C8C
:101360003B496046FFF798FBDFF800E10DF1800C88
:10137000BEE80F00ACE80F00BEE80F00ACE80F00BD
:101380009EE80F008CE80F00642011F0E4F80DF1E6
:10139000800E81460DF1140CBEE80F00ACE80F0082
:1013A000BEE80F00ACE80F009EE80F008CE80F00CD
:1013B00013A8049094E80F008DE80F0095E80E0044
:1013C0004846FFF71CFC0DF14C0CCAF80090604633
:1013D00011F0BAF9AC460FCEACE80F0096E8070062
:1013E00013AE8CE8070030461A49FFF755FBDFF8CB
:1013F00080C020AEBCE80F000FC6BCE80F000FC6CF
:101400009CE80F0086E80F00642011F0A4F80DF1AD
:10141000800E06460DF1140CBEE80F00ACE80F007C
:10142000BEE80F0026E000BFE4070024FB430108EC
:10143000D007002400440108E00700240444010808
:10144000D49D002408440108D09D00240B440108C9
:10145000104401081544010894000024E40100240C
:10146000340000248401002454010024B401002429
:1014700064000024ACE80F009EE80F008CE80F0029
:1014800013A8049094E80F0013AC8DE80F0095E8C2
:101490000E0030463C4DFFF7B2FB20463B4C2E6021
:1014A00011F052F920463A49FFF7F6FA04F1180014
:1014B0003849FFF7F1FA04F130003749FFF7ECFA49
:1014C00004F148003549FFF7E7FA04F160003449B8
:1014D000FFF7E2FA04F178003249FFF7DDFA04F190
:1014E00090003149FFF7D8FA04F1A8002F49FFF71F
:1014F000D3FA04F1C0002E49FFF7CEFA04F1D80068
:101500002C49FFF7C9FA04F1F0002B49FFF7C4FAA0
:1015100004F584702949FFF7BFFA4246284920465E
:1015200011F012F8274A284B1268284928481A60F7
:101530000A6828495A60026827489A60274A126850
:10154000DA60274A12681A610A6826495A610268F5
:1015500025489A61254A87601268DA61244A126830
:101560001A620A6823495A62DBF800209A62DAF8A4
:101570000020DA622A681A634246C0E900772DB07B
:10158000BDE8F04F10F0E0BF940700245C06002493
:10159000194401081B4401081E44010820440108A5
:1015A000234401087C570108254401086B570108B2
:1015B000284401082B4401082D4401083044010847
:1015C000650A0008EC07002498070024F4070024AB
:1015D000E8070024E4070024D0070024F0070024D3
:1015E000D4070024D09D0024D89D0024E0070024C7
:1015F000D49D0024530B000830B5039DB7EE007A4C
:10160000D1ED006A95ED006ABBFE665AF0EE474ADE
:1016100037EE466AD2ED005A76EEC56A0022F3EC48
:10162000017AF4EEC67AF1EE10FA1CDB07EE902A8E
:10163000B2EE084AF8EEE73AC3EE847A77EEA57A7E
:10164000F4EEE47AF1EE10FAC8BF77EEE47A77EEC2
:10165000E67AF0EEE77AF4EEC77AF1EE10FA44BFDC
:10166000B0EE677A144601320C2AD8D107EE904AC0
:10167000B2EE087A4460F8EEE76AC6EE877A77EE53
:10168000857A77EEA57AC0ED007A30BD70B50D464B
:10169000044600220D49284611F0E6F9431C06468F
:1016A00005D10B492046FFF7F7F9204670BD4FF0F2
:1016B000FF320649284611F0FDF9C6F10103324612
:1016C00029460344204611F04BFAEEE73244010864
:1016D000FA550108044808B500F0A8FE0248BDE824
:1016E000084000F0BDBE00BFF8070024426808B5FE
:1016F0004B689A4208D14AB10968006811F0AAFC07
:10170000B0FA80F0400908BD0020FCE70120FAE7AC
:101710002DE9F84FD0E9008993466FF06043A9EBBB
:10172000080207468A46B3EBA20F4FEAA20402D191
:101730001E4810F027FF012C2246A1EB080538BFF8
:101740000122A4182ED27CB39C4228BF1C46A000C4
:1017500010F001FF0646DBF80030002D735104DD68
:101760002A464146304611F093FCA9EB0A0904359C
:10177000B9F1000F354404DD4A465146284611F0C0
:1017800079FC4D44B8F1000F05D0B9684046A1EB93
:10179000080110F0DEFE06EB8404C7E90065BC60BA
:1017A000BDE8F88F1C46D2E72646D4E73944010845
:1017B00070B5044600F10C06B02529462046FFF717
:1017C0000DFA013500212046FFF708FA10212046C6
:1017D000EDB2FFF703FA012104F1080002F022FC48
:1017E0003146642380222046803604F053FAB82D17
:1017F000E3D170BD083008B5FFF7DAFF08BD00007F
:101800002DE9F74FD0E9008A2A4C8946AAEB080354
:101810001146294A0746DB106343934202D1274809
:1018200010F0B0FE012B1C46A9EB080538BF0124BF
:10183000E4181CD2ECB1944228BF14461820019140
:10184000604310F088FE0199064670194546FFF77F
:101850008AF93046A94500F1180B0CD02946FFF74C
:1018600082F9284610F070FF18355846F2E7144602
:10187000E4E72646E9E755450AD029465846FFF7EA
:1018800072F928460BF1180B183510F05DFFF2E7DE
:10189000B8F1000F05D0B9684046A1EB080110F07F
:1018A00058FE182000FB0464C7E9006BBC6003B05D
:1018B000BDE8F08FABAAAAAA5555550539440108D1
:1018C00038B5D0E9013504460A46AB4206D0184681
:1018D000FFF749F963681833636038BD1946FFF7AD
:1018E0008FFFFAE7F0B5D1E900678FB00024054615
:1018F000374404AA84608DF81040C0E90044CDE963
:101900000224BE4223D016F8011B7C2912D1039C6D
:10191000002CF6D002A908A8FFF7B8FE08A92846AF
:101920000024FFF7CDFF08A810F00EFF029A0394E1
:101930001470E6E70846019111F074FB019908B1B3
:10194000002CDED002A8012410F0B6FFD9E7039BDB
:1019500053B102A908A8FFF799FE284608A9FFF786
:10196000AFFF08A810F0F0FE02A810F0EDFE284628
:101970000FB0F0BD7F2910B510D83F2A0ED8D4087B
:1019800002F0070201EBC4110124084404FA02F238
:1019900090F90C1052B213B11143017310BD21EA3A
:1019A0000201FAE7083008B5FFF7E4FF08BD2DE9AA
:1019B000F04F0E4685B0044604A9A6F120059DF817
:1019C00038B001E90C00EBB25E2B04D9002630469A
:1019D00005B0BDE8F08F03689DF80870DB689DF8DE
:1019E00009A09847A3883B449842EFDB2368204630
:1019F0009B689847E38853449842E7DB0AFB05F568
:101A00004FF000096D00CA451DD9039B4FF0000837
:101A10005B5B01934745A188E28810D9019B414453
:101A20004A4404F1080003FA08F308F101081B0412
:101A30004CBF5B468BF00103FFF79CFFEAE709F11F
:101A400001090235DFE7A1882046E288394489B2DE
:101A5000FFF7A6F8BBE7F0B585B006464C1E02AD11
:101A60009DF8287085E80C0014F8011F41B100971B
:101A7000304695E80C00FFF79AFF21788842F3D0B2
:101A8000084605B0F0BD00002DE9F0479A489B4D8F
:101A90009B4F9C4C2DED028BBEB001F0F3FC80B14E
:101AA0003A682B6853F822102268D1E900130132FA
:101AB0005B1A9549DB104B4392FBF3F103FB1123B7
:101AC0002360924801F0DEFC08B1002323603A68ED
:101AD00018212B6813A88E4F53F822302268002457
:101AE0001B68B846254601FB0231FEF7FDFF894918
:101AF00019A8FEF7D1FF88491FA8FEF7CDFF13995B
:101B00000AA811F01BFC85490AA811F01FFC014628
:101B10000DA811F013FC8149002011F017FC0146BB
:101B200010A811F00BFC0DA919A8FFF703F810A9D4
:101B30001FA8FEF7FFFF394619A8FFF7D7FD0028B9
:101B400018BF2546013418370C2CF4D1744B0027EC
:101B5000DFF8F4A11C685AF8049B01371FA909F1AA
:101B60001C00FFF7C3FD002818BF4C460E2FF2D112
:101B700007EE905A231F2BAA04F11801B8EEE77A5A
:101B8000F2EE087AC7EE275ACDED025A93ED016ABC
:101B9000B2EE084B0433B8EEC66A9942B7EEC66A95
:101BA00086EE047BB7EEE56A37EE067BB7EEC77BC1
:101BB000A2EC017AEAD1182132A801FB0581594D26
:101BC000FEF792FF32A8D4E9071210F013FF329902
:101BD00034AB2868339A99427DD10AB110F0E2FD06
:101BE000339B00212A686B60D1540026329B32A8B7
:101BF0000127339634341E7010F0A6FD4FF4806236
:101C00003146494811F05EFA25A84649FEF76CFFB7
:101C1000324631464548259DFEF7C2FF444B2946D2
:101C20000097424832AD9FED438A0CCBFFF713FF7C
:101C30004148FFF7BDFD0FCC0FC50FCC0FC594E891
:101C40000F0085E80F003D4B31463D4808AC03933B
:101C50000023049300F0FEFB4FF07C5302AA05A979
:101C600006A8089332AB00948DED050AFFF7C4FC7B
:101C700003AB02AA04A92046009332ABFFF7BCFCD9
:101C80009DED067A31462F4827EE087ABCEEC77ADA
:101C900017EE103A9AB202F0A3F8DDED2B7A39462E
:101CA000284867EE887AFCEEE77A17EE903A9AB207
:101CB00002F096F825A810F047FD1FA810F044FD8B
:101CC00019A810F041FD13A810F03EFD3EB0BDEC88
:101CD000028BBDE8F08705F10807B842C5E900129C
:101CE00008BF0020349A18BFAE68AA6010B13290C5
:101CF00034967AE7329378E7DC080024D89D0024F4
:101D0000CC9D0024C89D0024ABAAAAAAE308002405
:101D10005C06002419440108E84301080E49010843
:101D2000EC07002444060024BC990024A899002450
:101D3000B4050024CDCC4C44B09900246666063F1F
:101D4000F8070024180800249807002480B58AB0FA
:101D500000215948002400F00BFE06AB574904A8A7
:101D6000049301AD05948DF81840FEF7E3FE24209E
:101D700010F0F1FB00F114038460047550490090E9
:101D8000C0E90334C0E900440C30FEF7D3FE04A9D7
:101D90002846FFF7A7FD009CAC4236D0D4F800805F
:101DA000A368DDE90159A3EB0803A9EB0507BB42D2
:101DB0003CD29FB1434B9F4201D910F0DDFB384626
:101DC00010F0C9FB0646B046A94509D02946404651
:101DD000183508F11808FEF787FEF5E73E46F2E7EA
:101DE000D4E90058A84504D02846183510F0ACFCBA
:101DF000F8E7206818B1A168091A10F0AAFB26605C
:101E00003E44A66023683B4463602F48D0E9011339
:101E100099424DD0009B41F8043B4160264800F0B8
:101E200001FBFFF757FCFFF72FFEFAE7636827482F
:101E3000A3EB08039F421ED8FE10C2464643B1469C
:101E4000B9F1000F09DD2946504618350AF1180A84
:101E500009F1FF3910F0C8FCF2E726EAE67618250A
:101E6000D4F8049005FB0685A945CBD02846183543
:101E700010F06AFCF8E7DE104643002E08DD294624
:101E80004046183508F11808013E10F0ADFCF4E7A3
:101E9000D4E90056DDF80880711B019D0D44A8456A
:101EA000B0D02946304618351836FEF71DFEF6E745
:101EB0006A46FFF72DFCB1E7F807002453440108F8
:101EC00010490108F8FFFF7FD89D0024ABAAAAAAF9
:101ED0002DE9F043914685B00446984608464B46A6
:101EE000DDE90C52A3EB090C13F8011B0029F9D111
:101EF00098F8006098F8011016FB0CF60F4636B201
:101F000026EAE676082A76D8DFE802F06B05270B8A
:101F100035453C536100B5F90020B5F90230228007
:101F200053E02B88A988B5F902200B4462809B1BE3
:101F30002380A680E780628821880390FEF730FE28
:101F40009DF8383049460398009398E80C00FFF755
:101F500082FD204605B0BDE8F083B5F90430B5F93F
:101F6000021003EBD3722B88618003EB6203A3EBB7
:101F700066032380DDE76B88B5F90020ED882B44EC
:101F80005B1ACCE76B88EA8813445B1A2A88A98815
:101F90000A44921BC3E76B88EA8813445B1AB5F9BD
:101FA000042002EBD2712A8802EB6102A2EB6602E6
:101FB000B5E7B5F90630B5F9001003EBD3726B88BD
:101FC000218003EB6203A3EB57036380B1E7B5F90C
:101FD000063003EBD3726B8803EB6203A3EB510370
:101FE000D4E7B5F9063003EBD3726B8803EB6203D9
:101FF000A3EB5103D3E7002323806380A380E38016
:1020000099E70000000000002DE9F04F2DED068B50
:1020100087B01C4603929DF86030DDE916289FEDDD
:10202000B64BB8F1000F0493BCBF4244C8F100089E
:1020300007EE902A02EB0803B8EEE76B07EE103AC2
:102040009FEDAF5B26EE046BB8EEC77BCDE90101D7
:1020500086EE050B27EE047BF7EEC08B87EE050BB3
:10206000F7EEC09BB0EE680A10F09AFD07EE904ABA
:10207000B8EE67AA2AEE008AB0EE680A10F08CFE6D
:1020800060EE4A8AB0EE690A10F08AFD2AEE009AE4
:10209000B0EE690A10F080FE20EE4AAA39EE487AC6
:1020A000049B7AEE687A67EEA77AE7EE077AB0EEDD
:1020B000007AF4EEC77AF1EE10FA08D5B8F1B40F51
:1020C00000F3CA8007B0BDEC068BBDE8F08F00229C
:1020D00001276542C4F101040026BB46BA466400EC
:1020E000B9460492049A002A6ED107EE906A7242B1
:1020F000B8F1B40FF8EEE76A07EE905AB8EEE77A57
:1021000007EE902AC5F1000266EE884AF8EEE77AFB
:1021100006EE102A27EE285A66EE896AB8EEC66ADD
:1021200067EE885A27EE0A7A66EE283A67EE897AD1
:1021300026EE0A6A34EEE34A74EEC54A35EEC55A15
:10214000B5EEC04A75EEE35A40F39180F1EE10FA15
:1021500000F1848036EEC64AB5EEC04AF1EE10FAC0
:10216000CCBF4FF001094FF00009F5EEC04AF1EE87
:1021700010FA76D476EEC76AF5EEC06AF1EE10FA80
:10218000CCBF4FF0010A4FF0000AB5EEC05AF1EE95
:1021900010FA69D437EEC77AB5EEC07AF1EE10FACC
:1021A000CCBF4FF0010B4FF0000BF5EEC05AF1EE33
:1021B00010FA00F19B8077EEC67AF5EEC07AF1EE68
:1021C00010FACCBF01270027B9F1000F09D0039AFC
:1021D00002990198B218491B05930830FFF7CAFB12
:1021E000059BBAF1000F09D0039A02990198B21821
:1021F000691805930830FFF7BDFB059BBBF1000F85
:1022000009D0039A02990198921B69180593083026
:10221000FFF7B0FB059B4FB1039A02990198921BFF
:10222000491B05930830FFF7A5FB059BA6425FDB22
:10223000013604EB4602EE4202F1010202D1A54250
:1022400002DB0024A54255DA013502EB4502541C9D
:10225000002D7FF747AF35E7012239E74FF001093D
:1022600083E74FF0010A90E74FF0010B9DE7F1EE95
:1022700010FA32D536EEC64AB5EEC04AF1EE10FA83
:10228000CCBF4FF001094FF00009F5EEC04AF1EE66
:1022900010FA25D576EEC76AF5EEC06AF1EE10FAAF
:1022A000CCBF4FF0010A4FF0000AB5EEC05AF1EE74
:1022B00010FA18D537EEC77AB5EEC07AF1EE10FAFB
:1022C000CCBF4FF0010B4FF0000BF5EEC05AF1EE12
:1022D00010FA3FF570AF002776E7DDF81090D4E7ED
:1022E0004FF0000AE1E74FF0000BEEE701276BE744
:1022F0002246A7E71446ABE77A008BFCFA21094097
:1023000000000000008066402DE9F04F1F4685B0B8
:1023100014460830DDF838A0A7EB01089DF83C30E2
:102320000D46AAEB0209B8F1000F0393B8BFC8F13C
:102330000008B9F1000F0290B8BFC9F10009924539
:102340008CBF01224FF0FF328F428CBF4FF0010B48
:102350004FF0FF3B394601925246FFF70BFBA8EBCB
:102360000906DDE90203BD4201D1544516D02946D4
:10237000224603930290FFF7FDFAC9F100017200B3
:10238000B1EB460FBCBFA6EB09065D449045DDE905
:102390000203E8DD019A46441444E4E705B0BDE8D1
:1023A000F08F2DE9F3479DF830C005460C461646E0
:1023B0001F46DDF828809DF82C90BCF1000F10D04E
:1023C000A7422AD3B246D04509D352464B462146AE
:1023D00005F108000AF1010AFFF7CCFAF3E701342E
:1023E000EEE7CDE90029FFF78FFF3B46324639463D
:1023F0002846CDE90089FFF787FF23464246394644
:102400002846CDE90089FFF77FFF23464246214653
:102410002846CDE90069FFF777FF02B0BDE8F087F5
:10242000FEF716BC183001F07DBA00BF10B50446A7
:10243000643000F08BFF04F1840000F087FF04F1AA
:10244000A40000F083FF04F1C400BDE8104000F0D8
:102450007DBF00BF00EB411191ED1C0A704700BF2A
:102460003C3000F0C7BF00BF30B59DB0054600F05E
:1024700011FC01285FD0334900220123CDF82A1036
:10248000CDE9102300223049012303241B200F93A0
:1024900012930C94CDE9082140F20451CDE90D329C
:1024A000CDE91832CDE91A23ADF82810CDE916434D
:1024B00000F0F6FA03461820ADF84E3000F0F0FABE
:1024C00003461C20ADF84C3000F0EAFA0346192010
:1024D000ADF8503000F0E4FA03461A20ADF854305D
:1024E00000F0DEFA0022002308A9ADF8520002A88D
:1024F000CDE9022302F06CFC12A903A802F068FCEB
:102500001D2000F0CDFAADF80400019800F0DAFBD0
:102510004FF07E5230214FF07C5C079205F11400A1
:10252000049104A9039B029A0594CDF818C000F009
:102530007DFE1DB030BD034A00231090CDF82A2047
:1025400011939FE70406040304020404F0B5064651
:102550000F20002406F1180706F164052DED028B0B
:1025600099B09FED258A00F09BFA034607A8ADF8C5
:102570000C30039900F0E4FF102000F091FA0346BC
:102580000DF12D00ADF81030049900F0D9FF1520A1
:1025900000F086FA03460DF13E00ADF814300599BF
:1025A00000F0CEFF122000F07BFA03460DF14F0041
:1025B000ADF81830069900F0C3FF042307A9384688
:1025C0001A4600F0CBFFE1B2384601F0C1F90146EE
:1025D00001343046019100F079FA2846F0EE480ABD
:1025E000002301220199203500F07EFE042CEAD15F
:1025F00019B0BDEC028BF0BD6F12033B0000000070
:102600002DE9F04F8046A5B0092049F2B81400F03A
:1026100047FA03461E200125ADF8303000F040FA9D
:102620004444002606950DF1380AADF832000DF14C
:10263000640CD64608F5104804F10409CAA3D3E98E
:102640000023CDE90866CDE9022300220023CDE96D
:102650000423082202230DEB020BA7180792CDE9F1
:102660000A33BBE80F00AAE80F00BBE80F00AAE896
:102670000F009BE807008AE80700BEE80F00ACE8FF
:102680000F00BEE80F00ACE80F009EE807008CE8E2
:102690000700BDF88C30384688F8C251A8F8C03120
:1026A00001F0D6FBBDF88E30484688F8BE51A8F838
:1026B000BC3101F0CDFB19A9204603F065FA314683
:1026C000484601F0AFFC0A2004F05EFB294648466C
:1026D00001F0A8FC0A2004F057FBAE23314638462F
:1026E0008DF8073001F09EFC2A460DF107016423A6
:1026F000204603F0CFFAD523314638468DF807300F
:1027000001F090FC2A460DF107016423204603F0F6
:10271000C1FA8023314638468DF8073001F082FC3B
:102720002A460DF107016423204603F0B3FAA823DB
:10273000314638468DF8073001F074FC2A460DF119
:1027400007016423204603F0A5FA3F2331463846AB
:102750008DF8073001F066FC2A460DF1070164236D
:10276000204603F097FADA23314638468DF80730D1
:1027700001F058FC2A460DF107016423204603F0BE
:1027800089FA1223314638468DF8073001F04AFCA9
:102790002A460DF107016423204603F07BFAD32378
:1027A000314638468DF8073001F03CFC2A46642358
:1027B0000DF10701204603F06DFA314638468DF8D9
:1027C000076001F02FFC2A460DF107016423204623
:1027D00003F060FA4023314638468DF8073001F0A7
:1027E00021FC2A460DF107016423204603F052FA2A
:1027F000A623314638468DF8073001F013FC2A46EF
:102800000DF107016423204603F044FAA423314666
:1028100038468DF8073001F005FC2A460DF1070116
:102820006423204603F036FA8D23314638468DF86E
:10283000073001F0F7FB2A460DF10701642320461B
:1028400003F028FA1423314638468DF8073001F09A
:10285000E9FB2A460DF107016423204603F01AFA2A
:10286000A123314638468DF8073001F0DBFB2A46BC
:102870000DF107016423204603F00CFAC82331460A
:1028800038468DF8073001F0CDFB2A460DF10701DF
:102890006423204603F0FEF98123314638468DF843
:1028A000073001F0BFFB2A460DF1070164232046E3
:1028B00003F0F0F98F23314638468DF8073001F0E8
:1028C000B1FB2A460DF107016423204603F0E2F92B
:1028D000D923314638468DF8073001F0A3FB2A464C
:1028E0000DF107016423204603F0D4F92523314676
:1028F00038468DF8073001F095FB2A460DF10701A7
:102900006423204603F0C6F9DB23314638468DF8B0
:10291000073001F087FB2A460DF1070164232046AA
:1029200003F0B8F93423314638468DF8073001F00A
:1029300079FB2A460DF107016423204603F0AAF92A
:10294000AF23314638468DF8073001F06BFB642326
:102950002A460DF10701204603F09CF925B0BDE899
:10296000F08F00BFAFF30080060B0B000105060AD5
:102970002DE9F04304468DB000250127019100F0B8
:102980008DF80199204600F00DF904F12009204648
:102990004FF00208FFF768FD2046FFF731FE05A95A
:1029A000484604F51046CDE90875CDE9068501F0E5
:1029B00099F92A464146484601F012FA0C2000F0E7
:1029C0006FF8ADF810000B2000F06AF8ADF80C00BD
:1029D000284600F065F89FED2F0A0499ADF808002D
:1029E00004F13C00DDE9023200F0D4FC112000F0DB
:1029F00057F8A6F8C40549F2C450A6F8C675204495
:102A000001F026FA142000F04BF83A4605A9ADF87B
:102A1000140004F1E40000F02BFD132000F040F856
:102A20003A4605A9ADF8140004F1EB0000F020FDD2
:102A30002046FFF7E5FD47F6122349F2A41005A949
:102A40000B93154B2044C6F89C51059303F17F432B
:102A5000CDF8248003F5807307970A97C6F8A03154
:102A60000895069503F0A0FF0A23C6F8905120466A
:102A7000C6F88C5184F8FC3084F8F850FFF766FDF6
:102A80001123C6F8CC3504F07DF9C6F8C8050DB0A1
:102A9000BDE8F0830000000001060107704700BF99
:102AA000202882B009D8084B03EB400213F81030FD
:102AB000507843EA002002B0704701230C2043EA1B
:102AC000002002B0704700BF5C49010890ED0E0A7B
:102AD000704700BFF0B5032399B00027012512937A
:102AE00006462C4B09A81595CDE90E7340F2045308
:102AF000ADF84030284BCDE91357099301F0A8F900
:102B000009A801F081FA002836D1244B04AF04460D
:102B10000090CDF842301023394604958DF82030CE
:102B20001F4BCDE91650CDE906506846059301F0DC
:102B3000F9FB0823009A01A909A8ADF804508DF803
:102B4000064009940295039300F0FCF800230EA9B7
:102B500038463024049302F03BF903224FF07E53B1
:102B600009A906F114000B930C93CDE90942049ACC
:102B700000F024FB19B0F0BD40F60132074B169768
:102B800004AFADF824200998CDF84230179500F035
:102B900099F8DBE7040204040303000104060403BC
:102BA0000704010B2DE9F04304462DED028B83B0A1
:102BB000002948D0012140F2011200230091ADF814
:102BC00004208DF80630304A0126304B271D30494D
:102BD00004F12908626040F20272A36040F60663C5
:102BE000E16004F125092682A4F8252084F82760F5
:102BF000A4F8293084F82B6004F036FA69460546BB
:102C000048B304F130008DF8066004F089F9072D0F
:102C100034D104F114052046FFF75CFF284600F08C
:102C20004DFB2846B0EE408A00F044FBD0ED007A20
:102C3000F8EE677A88EE277A84ED0E7A03B0BDEC61
:102C4000028BBDE8F08340F2011300918DF806106D
:102C5000ADF80430B7E704F1300004F061F939460B
:102C6000204601F0A9FD484601F0F2F8404601F087
:102C7000EFF804F1120000F08FF9CAE73946204658
:102C800001F09AFDC5E700BF05080509050705061F
:102C9000050A06060A4B4FF4807200B583B01B8804
:102CA00001A8ADF80620ADF8043001F0D1F801A874
:102CB00001F0AAF9B0FA80F0400903B05DF804FB16
:102CC0007C43010810B584B003460124ADF804002C
:102CD00003A8ADF80C30ADF80E4001F0B9F821466C
:102CE00003A801F09FF9204604F04EF8002103A844
:102CF00001F098F9204604F047F8214603A801F0B6
:102D000091F904B010BD00BF10B5C2F3002384B028
:102D10000C46017C8DF80D2043EA4402FA2402237C
:102D20008DF80C2003AA009401F092FB18B1012445
:102D3000204604B010BD04460A2004F025F82046C1
:102D400004B010BD034670B543F8042B044684B0AC
:102D500007C983E80700A37983B91A210B461E220D
:102D6000FA2523742046ADF80C20022303AA00950F
:102D700001F06EFB28B1012004B070BD1B210B4691
:102D8000EDE70A2004F000F84FF4B8520095022352
:102D9000ADF80C20204603AA217C01F059FB002845
:102DA000E9D10A2003F0F0FF41F2027200950223FC
:102DB000ADF80C20204603AA217C01F049FB002835
:102DC000D9D10A2003F0E0FF042200950223ADF8D8
:102DD0000C20204603AA217C01F03AFB0028CAD12E
:102DE0000A2003F0D1FF062200950223ADF80C2043
:102DF000204603AA217C01F02BFB0028BBD10A202E
:102E000003F0C2FF41F2082200950223ADF80C2026
:102E1000204603AA217C01F01BFB0028ABD10A202D
:102E2000064603F0B1FF0095022303AA217C204649
:102E3000ADF80C6001F00CFB00289CD1304603F08B
:102E4000A3FF009522790C232046002A8DF80C3030
:102E500003AA4FF0020314BF622142218DF80D1026
:102E6000217C01F0F5FA002885D1304603F08CFF73
:102E70002279D4E902310B43DBB20AB943F04003B3
:102E800062790AB143F020030E22FA258DF80D3045
:102E90002046009502238DF80C2003AA217C01F026
:102EA000D7FA00287FF467AF0A2003F06DFF1022E5
:102EB00000950223ADF80C20204603AA217C01F0E6
:102EC000C7FA00287FF457AF0A2003F05DFF1221F4
:102ED00000950223ADF80C1003AA217C204601F0D6
:102EE000B7FA00287FF447AF0A2003F04DFF012214
:102EF00009212046FFF708FF003818BF01203BE7F3
:102F0000F0B5102387B0234C0122002501260027AD
:102F100002A920460195CDE902234FF48052CDE964
:102F200004670AF0DFFD642004F044FB02A94FF4BB
:102F300080522046CDE9046702261027CDE90267BA
:102F40000AF0D0FD0322102302A92046CDE9022376
:102F500000230422CDE904234FF480520AF0C2FD7D
:102F600040F23223042202A9019310232046CDE926
:102F70000223019A012305924FF4805204930AF030
:102F8000B1FD40F6060120460AF0CCFD284607B008
:102F9000F0BD00BFEC9D00241C4B00221C494FF0EB
:102FA000400C30B5054689B00220596007219A606F
:102FB0001A620124DA620A224FF4006EDC60069283
:102FC0002022CDE9000104200821CDE902010320DF
:102FD0001021CDE9040108206946C3E904024FF439
:102FE000C072181DC3E906C24FF48052C3E909E25A
:102FF0000AF04EFD38B92846FFF782FF003818BFA7
:10300000012009B030BD204609B030BDE89D002444
:1030100040410052614A0021D0B513688EB00A9138
:10302000002B40F0B9805E4B01214FF683700C24D9
:1030300011600221D3F8D4200026032742F48052E5
:10304000C3F8D420D3F8D42002F480520092009A1E
:10305000D3F8E02042F01002C3F8E020D3F8E020DB
:1030600002F010020192019AD3F8E02042F04002EF
:10307000C3F8E020D3F8E02002F040020292029A66
:10308000D3F8E02042F00802C3F8E020D3F8E020B3
:1030900002F008020392039AD3F8E02042F480720F
:1030A000C3F8E020D3F8E02002F480720492049A7E
:1030B000D3F8E02042F08002C3F8E020D3F8E0200B
:1030C00002F080020592059AD3F8E02042F0200237
:1030D000C3F8E020D3F8E02002F020020692069A1E
:1030E000D3F8E02042F00402C3F8E020D3F8E03047
:1030F0000C9403F0040307930323079A0B93CDE981
:10310000080108A9274806F007FA48F237120223F7
:1031100008A925480C94CDE90823CDE90A6706F0F3
:10312000FBF94CF20372022308A920480C94CDE964
:103130000823CDE90A6706F0EFF940F2FF620223A7
:1031400008A91B480C94CDE90823CDE90A6706F0CD
:10315000E3F94FF60C72022308A916480C94CDE946
:103160000823CDE90A6706F0D7F94FF63F0202239C
:1031700008A911480C94CDE90823CDE90A6706F0A7
:10318000CBF92022022308A90A480C94CDE90A674A
:10319000CDE9082306F0C0F90EB0D0BDE49D0024AF
:1031A000004402580010025800180258000C02583F
:1031B00000200258001C02580014025830B5184C68
:1031C000154685B0046004F1080EEC460FC98EE880
:1031D0000F00D4ED047AF5EEC07A8CE80F00F1EE22
:1031E00010FA1ADDB7EE006A94ED057A27EE277A19
:1031F000C6EE276A84ED0D7AC4ED0C6A6DB12046E7
:1032000040F8185F01F0DCFE064903690020064A19
:103210002162A262E36005B030BD012005B030BD7F
:10322000209E00240020003000000030F0B51C4C2F
:1032300016461F4689B0046004F10805EE460DF1FC
:10324000100C0FC985E80F00D4ED047AF5EEC07AB2
:103250008EE80F00F1EE10FA8CE80F0017DDB7EEE4
:10326000006A94ED057A27EE277AC6EE276A84ED88
:103270000D7AC4ED0C6A56B1204640F8186F01F083
:103280009FFE08490369084A2162A262E360074A77
:103290000020074BE7616262E36209B0F0BD00BF46
:1032A000209E00240020003000000030003000305C
:1032B0000010003000680830704700BF0068183008
:1032C00001F080BE10B4074B4FF07E513024002235
:1032D000032019619C60D8605DF8044B5961C3E913
:1032E00006227047209E0024F6EE007A9FED166AB3
:1032F00020EE207A0160F7EE006A80ED036A80ED2F
:10330000020A27EE277AC6EE877AF4EEE67AF1EE25
:1033100010FA11DDF0EE667A4FF07E514FF0000C9E
:1033200002760022C0ED017AC0F814C00161437634
:103330008276C0ED070A7047F4EEC67AF1EE10FA15
:10334000EAD5F0EE467AE7E7000000000268037E67
:10335000128807EE902AFBEEC87A1BB1B7EE007A0E
:1033600077EE677AD0ED056A90ED047A77EEE67A2B
:10337000437E67EE877A0BB1F1EE677A90ED030A30
:1033800090ED017A77EEC07AA7EE270A80ED030A66
:10339000704700BF30B585B004460025ADF80C106D
:1033A000ADF80820ADF8043003F0ECFCBDF80C20BB
:1033B0004FF48073206004F118002283BDF80820C8
:1033C0006383E383A283257100F042FD04F11C00B6
:1033D00000F03EFD9FED060A019904F1080000F09F
:1033E00067F84FF6FF736562238405B030BD00BFF8
:1033F00000000000F8B5044603F0C4FC0026236872
:103400002671834205D104F10800BDE8F84000F0C0
:1034100069B8012794F82050206004F11800BD40DD
:10342000277100F0F1FD6DB2284394F82150BD40A2
:1034300084F8200004F11C0000F0E6FD94F8203030
:103440006DB2666203F003032843022BC0B284F816
:10345000210009D000F003000228D4D1002BD2D1E2
:103460004FF0FF336362CEE78307CCD16762CAE7D0
:1034700009884FF0000C8271C0F802C0018000F092
:10348000E7BC00BF10B583790446427902715BB195
:1034900000F0BAFDB0FA80F04009607118B12079EF
:1034A000B0FA80F0400910BD00F0AEFDF5E700BFB6
:1034B00070B5044682B0C1F30726CDB2ADF8041052
:1034C00003F060FC4FF480724FF001232060A01DD8
:1034D000A571A280E671A36002B0BDE8704000F063
:1034E000B7BC00BF38B5044603F04CFC002223688B
:1034F0002271834210D00122A57AE37A95402060A0
:103500002271A01D6DB243B900F07EFD40B2284388
:10351000C0B27F28A0720AD038BD00F075FDB0FAA5
:1035200080F040092843C0B27F28A072F4D103F094
:1035300029FC07EE900AF8EE677AC4ED037A38BDED
:1035400082B04FF0000C0323ADF80410BDF8042046
:1035500080F810C00280438002B070472DE9F04F20
:10356000BE4E00258FB0BE4C037006F14003426092
:10357000074601928846202229463046C4F8583131
:10358000C4F85461CDE90355CDE90555CDE907559A
:10359000CDE90955CDE90B550FF094FD20222946C0
:1035A00004F59970C4F82151C4F82551C4F8295183
:1035B000C4F82D510FF086FD019B84F8385284F831
:1035C00020317A68002A5FD02B464146B64604F582
:1035D000907599464FF0010A03EB0310D1F800B043
:1035E000D1F804800133D1F808C02218CE6844F81D
:1035F00000B0C2F80480C2F808C0D660087C2EF87B
:10360000029B10740A7C05F8012F002A69D07A68A1
:10361000113184F838A29A42DED84FF480229148C2
:103620009DF8043008214FF000084FF00009C4F85D
:1036300074310023C4E957020122C4F8643184F8CC
:103640007031C4E95A2194F83812C4E9608981B311
:10365000C4F88821002284F8713184F878313B78ED
:10366000C4E96322A3B3012200200121013B84F8B5
:103670009421C4E96801082B2CD8DFE803F0ABB033
:10368000B5BABFC4C9CFD6009DF804300121C4F833
:103690006421C4F874314FF4802384F87021714A96
:1036A000C4E9572308230022C4E95A130023C4E9BC
:1036B00060230123002284F87131002384F87831DB
:1036C0000323C4F888313B78C4E96322002BCAD1B4
:1036D00084F89431644804F0A5FB034638B1FFBE7A
:1036E000FEE77A6811319A423FF676AF95E703A973
:1036F0005D48039304F0F4FC0546002868D10222DB
:1037000040F2FF73CDE9082300230422CDE90A2308
:1037100094F82031002B00F0D5804FF0060921E00D
:10372000022B00F08980012B40F0C4809AF8013010
:10373000012B00F0C180002B4C4B18BF002306A9C1
:103740004948CDE9063903F099FF002840F0BF80D1
:10375000013594F82031EDB2AB4240F2B380444BD6
:1037600053F825902FB207EB071704EB070A5046D2
:1037700000F06EFB05EB051323441B7C042B7DDC62
:10378000022B00F3918000F08D806319002283F8F2
:103790001021E35D002BC3D19AF80130062B00F015
:1037A0008580072B00F08A80022B00F09680032B87
:1037B00000F09580002B00F09680012B00F09180A6
:1037C000042B00F09280052B2A4B18BF0023B6E78C
:1037D000FFBEFEE703224023C4E966237AE70722FF
:1037E0006023C4E9662375E70F228023C4E96623BA
:1037F00070E71F22A023C4E966236BE73F22C023A2
:10380000C4E9662366E77F22E023C4E9662361E713
:10381000FF224FF48073C4E966235BE740F2FF1296
:103820004FF49073C4E9662354E740F2FF324FF43B
:10383000A073C4E966234DE79AF80130042B37D012
:10384000052B3DD0002B40D0012B42D0022B42D083
:10385000032B094B18BF002371E700BF0040003065
:10386000589E002400200240B49F00240002B0258E
:10387000A04901080000B84F0020903603233E1DE8
:1038800004EB05084FF0000B264488F81031304651
:103890000BF1010B00F0DCFA98F8103104365B45AF
:1038A000F5DC76E70123EAE70223E8E7104B46E779
:1038B000104B44E7002342E70F4B40E70F4B3EE736
:1038C0000F4B3CE70FB0BDE8F08F0E4B37E7FFBE64
:1038D000FEE70D4B33E70D4B31E70D4B2FE70D4B5B
:1038E0002DE70D4B2BE70D4B29E70D4B27E700BFCD
:1038F0000800900C1000C0102000F0148000501D33
:10390000000180210004002A0008302E00106032DF
:103910000040C03A0080F03E0000524700002143C2
:103920000000844B38B5094C40F2FF724FF0011192
:1039300004F5AE75284604F081FB94F82021D4F8F4
:1039400054112846BDE8384004F0ECB8589E0024D5
:10395000034B0F29D3F8540198BF00EB4100704787
:10396000589E0024214B02689A4200D07047204A9A
:1039700000232048D2F8D81030B51F4C41F0200168
:1039800083B0C4F8C001092004F5E075C4E97103EF
:103990004FF48060C2F8D810D2F8D8204FF40061FC
:1039A000C4E9733094F8380202F02002C4F8D4114C
:1039B0004FF40051984201922846C4F8D811C4E946
:1039C0007833019B14BF00234FF48073C4F8DC31BB
:1039D00004F0D8FE08B1FFBEFEE704F5AE73C4F8EC
:1039E000A851C4F8F83103B030BD00BF0020024038
:1039F0000044025840000240589E0024014805F04F
:103A000039BA00BF18A0002402682DE9F84F4B4BCB
:103A10009A4201D0BDE8F88F494D95F83832002B15
:103A2000F8D095F82031002B77D0002405F10C094F
:103A300005F5997605F59077A04613E003F00101AE
:103A400017F811BCA9F1080000F0ECFABBF1010F66
:103A500025D895F82031013409F111090236A2B2B6
:103A600093422BD917F8012F002AF4D0D5F85431FE
:103A70000021327833F81400D5F8583103EB0413E1
:103A800023F81200338801339BB233805FFA83FA44
:103A90003A789A42D2D88A46A6F80080D0E7CAF38C
:103AA0004001A9F1040000F0BDFABBF1020FCAF316
:103AB0008001CED0484600F0B5FACAE7002395F859
:103AC0003802204909229842C5F8C8314FF4806075
:103AD000C5F8C011C5F8C4214FF400614FF400527D
:103AE000C5F8CC3108BF4FF48073C5F8D821C5E9BB
:103AF000740100221448C5E97732C5F8E42104F0C6
:103B000041FE08B1FFBEFEE795F82021D5F854111B
:103B10000E48BDE8F84F04F005B80A4909224FF4F1
:103B20008060C5F8C831C5E970124FF400614FF4E8
:103B30000052C5E97330C5E97512DAE7002002408A
:103B4000589E00244000024018A00024B49F002486
:103B5000704700BF4F4B02689A4200D070474E4BEF
:103B6000D3F8E81030B541F000514C4C85B0D4F892
:103B70004821C3F8E810D3F8E81001F00051019192
:103B80000199D3F8E01041F00101C3F8E010D3F837
:103B9000E03003F001030293029B32F002033DD0B8
:103BA000013A012A6BD9D4F84C31012B0AD00022FA
:103BB0003620114604F008FB362005B0BDE8304041
:103BC00004F040BBD4F8483133F0020234D0013B5A
:103BD000012BECD8442240233149324DC4F88C10DB
:103BE00000212846C4F8B010C4E9242300224FF471
:103BF0008063C4E926234FF400624FF40053C4E904
:103C000028234FF480724FF48033C4E92A2304F050
:103C1000B9FD80B9E560C4F8C440C8E74FF48062DC
:103C2000032303A8ADF80C208DF80E3000F010F936
:103C3000D4F84821B4E7FEE71B4BA263432263613B
:103C400040231A4DC4E9062300224FF4806328461E
:103C5000C4E908234FF400624FF40053C4E90A2377
:103C60004FF480724FF48033C4E90C2304F08AFDD2
:103C700020B9D4F84831A560E464A8E7FEE74FF422
:103C8000A062032303A8ADF80C208DF80E3000F0DD
:103C9000DFF888E7007400400044025898A0002430
:103CA0002804024024A1002410040240ACA00024F7
:103CB000014805F0DFB800BFACA00024014805F0C2
:103CC000D9B800BF24A1002410B5054C204604F04B
:103CD000A5FB04F58270BDE810400AF0F3BF00BFF9
:103CE00098A0002430B58C463A4C3B4D8DB0046012
:103CF00004F5A27EBCE80F00AEE80F00DCF800304F
:103D000020462560CEF8003004F02AFB0023D4F8CA
:103D10004C510393C5B11622012D049217D00022F5
:103D2000D4F85411D4F848319142CDE9062218BF95
:103D30000222059233F0020235D0013B012B3CD91F
:103D4000002528460DB030BD02230493E7E7234A3F
:103D50000093C4F80C31C4F81431C4F80421C4F839
:103D60001C31CDE9013303F07DF9D4F844314BF631
:103D70008032C4F80851002B08BF1346B0FBF3F3A0
:103D800004F58270C4F810310AF006FE0028D8D17C
:103D900020230290694604F5827000930BF04AF8E4
:103DA0000028BCD0CDE703A90A4804F06BFB78B922
:103DB000D4F84831013B012BC2D8102203A9054891
:103DC00004F060FB051E18BF012528460DB030BD6C
:103DD0000125B6E798A000240074004000100040C0
:103DE0002DE9F0410668D6F84C5105BBD6F85031A4
:103DF0000C461746002B0CBF4FF008084FF0000888
:103E000031F0020305D0013C012C14D92846BDE84D
:103E1000F0811346294642463046013C04F0E4FA5C
:103E20002946304604F0B2FA012CEFD803E0012510
:103E30002846BDE8F0813B4642461021304604F05A
:103E4000D3FA1021304604F0A1FA2846BDE8F081EB
:103E50008378022B30B504468FB037D0032B33D094
:103E6000012B31D000230A93E378012B2AD0022BB7
:103E700028D000230B93002320460C9303F078FAFC
:103E80000546204603F07CFA23780990082B13D8C6
:103E9000DFE803F01F3245586B7E91A40500594BB3
:103EA000D3F8E02042F48072C3F8E020D3F8E03089
:103EB00003F480730893089B09A9284605F02CFB9E
:103EC0000FB030BD0B93D6E70A93CDE711230A93C9
:103ED000CAE74C4B09A92846D3F8E02042F001027A
:103EE000C3F8E020D3F8E03003F001030093009B17
:103EF00005F012FB0FB030BD424B09A92846D3F89C
:103F0000E02042F00202C3F8E020D3F8E03003F0F2
:103F100002030193019B05F0FFFA0FB030BD394B4E
:103F200009A92846D3F8E02042F00402C3F8E020B3
:103F3000D3F8E03003F004030293029B05F0ECFA9F
:103F40000FB030BD2F4B09A92846D3F8E02042F02E
:103F50000802C3F8E020D3F8E03003F0080303932D
:103F6000039B05F0D9FA0FB030BD264B09A92846AE
:103F7000D3F8E02042F01002C3F8E020D3F8E0309C
:103F800003F010030493049B05F0C6FA0FB030BD94
:103F90001C4B09A92846D3F8E02042F02002C3F8C0
:103FA000E020D3F8E03003F020030593059B05F0F3
:103FB000B3FA0FB030BD134B09A92846D3F8E0205F
:103FC00042F04002C3F8E020D3F8E03003F04003B1
:103FD0000693069B05F0A0FA0FB030BD094B09A966
:103FE0002846D3F8E02042F08002C3F8E020D3F85E
:103FF000E03003F080030793079B05F08DFA0FB0C4
:1040000030BD00BF0044025838B5054603F0B0F992
:104010000446284603F0B4F901462046BDE838407E
:1040200005F082BC70B506460D4603F0A1F90446C2
:10403000304603F0A5F92A1E0146204618BF01228A
:10404000BDE8704005F076BC0023122270B586B042
:10405000CDE9022304930368032B01D804230593BD
:10406000061D841D304603F083F90546304603F0F3
:1040700087F9034601A92846019305F04DFA204629
:1040800003F076F9034620461C4603F079F901A9AE
:1040900003462046019305F03FFA06B070BD00BF0D
:1040A000634A0368934210B58CB028D0614A9342AA
:1040B00058D0614A934200F09480604A934201D004
:1040C0000CB010BD5E4C5F48D4F8E03043F0020302
:1040D000C4F8E030D4F8E03003F002030A930A9BFE
:1040E000FFF7B2FFD4F8F43043F08003C4F8F430A3
:1040F000D4F8F43003F080030B930B9BE0E7504CB3
:104100005148D4F8E03043F00203C4F8E030D4F86A
:10411000E03003F002030193019BFFF795FFD4F811
:10412000E83000221F2043F400131146C4F8E830A1
:10413000D4F8E83003F400130293029BD4F8D8308B
:1041400043F00103C4F8D830D4F8D83003F00103A9
:104150000393039B04F038F81F200CB0BDE8104017
:1041600004F070B8364C3948D4F8E03043F080039E
:10417000C4F8E030D4F8E03003F080030493049BEB
:10418000D4F8E03043F00203C4F8E030D4F8E03073
:1041900003F002030593059BFFF756FFD4F8E830C0
:1041A0000022212043F480031146C4F8E830D4F8FB
:1041B000E83003F480030693069BD4F8D83043F02C
:1041C0000103C4F8D830D4F8D83003F001030793C2
:1041D000079B03F0F9FF21200CB0BDE8104004F06C
:1041E00031B81B48FFF730FF154B00224820D3F8A9
:1041F000E840114644F40004C3F8E840D3F8E8402E
:1042000004F400040894089CD3F8D84044F0010456
:10421000C3F8D840D3F8D83003F001030993099BC1
:1042200003F0D2FF48200CB0BDE8104004F00AB8FB
:104230000054004000580040005C0040001C005842
:10424000004402588CA4002404A20024DCA2002410
:10425000B4A300242DE9F0431A4B87B000254FF09A
:1042600010099E46EC46184BFF22E04667461A703E
:104270000EF118060EF13004CDE90055CDE90255D6
:10428000ADF80090BCE80F00CDE90455AEE80F0092
:104290009CE803000095ADF800908EE80300B8E8B4
:1042A0000F000FC69CE803000095ADF8009086E86B
:1042B00003000FCF0FC49CE8030084E8030007B09D
:1042C000BDE8F0834402002400A2002410B5EFF3FF
:1042D000108472B6084B1A78120602D504B962B679
:1042E00010BD1B78D82205485BB202FB03001430D6
:1042F00004F0C0FDF2E700BF00A2002404A20024E5
:10430000014806F0AFB900BF90A20024014806F0B2
:10431000A9B900BF68A30024014806F0A3B900BFF3
:1043200040A400242DE9F0430F68D8243F4D85B008
:1043300007FB04F4032F05EB0403036040DCCB68A8
:104340000E46012B3CD84DD04FF0D808B646DFF8CA
:10435000FC9008FB0758BEE80F00C446ACE80F000D
:10436000DEF800300DF1100ECCF80030D8F808C09F
:1043700099E80F000EE90F000EEB8703BCF1010F67
:1043800053F8103CC8F88C3031D0BCF1020F42D049
:10439000BCF1000F35D0317C8C34D82300220120B1
:1043A0002C4403FB07534900C3E92602C3F89410C9
:1043B0002046C3E92822C3E92A2205F045FF18B1A7
:1043C000012005B0BDE8F0830146204606F056F90D
:1043D0000028F5D10146204606F07AF9003818BFCA
:1043E0000120EEE70B7C103B672BADD9E8E702F02C
:1043F00037FE0F4B98420CBF0E4B0F4BC8F8903056
:10440000C9E702F02DFE0A4B98420CBF0B4B0C4B38
:10441000C8F89030BFE702F023FE054B98420CBF6E
:10442000084B094BC8F89030B5E700BF04A2002440
:10443000000E27072D0FB0303211D0205F4390605F
:104440008A62E030200BA0101A0980108043010816
:104450002DE9F041D0F8008082B00D4617461E4687
:1044600008F18C04204606F005F92028FAD1D8F886
:104470000C3073B96D002046089C33463A46A9B209
:10448000009405F037FF003818BF012002B0BDE8E6
:10449000F081089B32463946204605F0FFFFF2E7DF
:1044A000044B10221A7483F8E82083F8C02183F8A3
:1044B0009822704704A2002430B5002395B04FF431
:1044C0008071062204460B9306921393CDE90C13D8
:1044D000CDE90E33CDE9113302F0C6FD07282BD00C
:1044E00004F1100541F2883206A9284606F002FFC1
:1044F00028B10123184684F85C3015B030BD022283
:10450000022306A92846CDE9002310220123CDE984
:10451000022300224FF48003CDE9042305224FF04B
:10452000807306926A460F9341F2883307F04EF883
:104530000028DED115B030BD0323012084F85C30A3
:1045400015B030BD0000000070B50023A4B04FF0DE
:1045500080724FF480750446ADF806300D93CDE9B6
:1045600010320122CDE90E53CDE91223CDE91433E7
:10457000002943D0F02300F1100508AEADF8063055
:10458000C02341F2883231462846089306F0B2FE35
:1045900028B10123184684F85C3024B070BD41F284
:1045A00088320DF10601284606F00EFF034600286A
:1045B000EFD105224FF480711E93284616924FF0DA
:1045C00080721B9321931F9202AA9FED1F7BCDE95E
:1045D0001C13CDE922338DED027B9FED1D7B41F253
:1045E000883316A98DED047B9FED1B7B8DED067B3B
:1045F00006F0ECFF0028CCD124B070BD00F110050E
:1046000008AE612341F2883231462846089306F00D
:1046100071FE0028BDD141F288320DF10601284615
:1046200006F050FF0028B4D1BDF80630204623F034
:10463000780343F04003ADF80630FFF73DFF002854
:104640009ED0A6E7AFF3008000000000010000004C
:104650001000000001000000000000000000400009
:104660002DE9F04F00234FF4807501264FF080783C
:1046700004462DED028BABB08DF8073013932193D8
:10468000299314950E96CDF85C80CDE91533CDE9CC
:104690001863CDE91A33CDE92253CDE92433CDE9AE
:1046A000273306231C9302F0DFFC072808D004F10F
:1046B000100741F288321CA9384606F01BFE40B1B3
:1046C0000123184684F85C302BB0BDEC028BBDE8AA
:1046D000F08F4FF0020A4FF0020B4FF0050941F244
:1046E000883308AA1CA93846CDF89480CDF870907C
:1046F0009FED2D8BCDE908AB4FF0000A4FF4800BF6
:104700008DED0A8BCDE90CAB06F060FF0028D7D108
:1047100041F2883238460EA906F0ECFD0028CFD1D0
:10472000402341F288320DF1070138468DF80730F9
:1047300006F04AFE0028C3D141F288330EA902AA2E
:104740003846CDF83890CDF85C809FED197B8DED23
:10475000048BCDE906AB8DED027B06F037FF0346F7
:104760000028ADD1CDF870904FF00109CDF89480BC
:104770004FF00008219308AA29931CA938462295D6
:10478000CDE92333CDE9273341F288338DED0A8B10
:10479000CDE90CABCDE9088906F018FF002893D0CD
:1047A000304684F85C608FE71000000001000000D4
:1047B00040000000400000002DE9F043624CA3B02F
:1047C0000D46046002F050FC072800F0A98028681C
:1047D00023466968AA6807C31E46AB8926F8043BCE
:1047E0003046257B677B06F067FDE0B9574B012D0E
:1047F0004FF00108E061236114BF4FF480134FF4C0
:104800000003C4E9058893FAA3F3B3FA83F34FF4E2
:104810008079013BC4F82490C4E90B003046236240
:1048200006F0DEFC38B10122134684F85C201846FD
:1048300023B0BDE8F08366230B90139041F28832D9
:1048400006A90693CDE90C90CDE90E00CDE9110043
:10485000304606F04FFD0028E5D1992341F2883219
:1048600006A93046069306F045FD0028DBD1052356
:104870001C9019906A4614934FF08073219014A9EC
:104880001D9341F288339FED2A7BCDE91A90CDE943
:104890001F008DED007B9FED287B30468DED027B68
:1048A0009FED277B8DED047B06F090FE0028BAD1AA
:1048B00029462046FFF748FE0028B4D12046FFF7DE
:1048C000CFFE03460028AED1002FB0D1189330465A
:1048D0000027002606AA14A9CDF86890CDE91F3359
:1048E000EB2314934FF440631B934FF4005317933F
:1048F0004FF440431C93A0231693062319934FF0C3
:10490000805321934FF04073CDE906671D9306F065
:10491000D5FE034600288AD0434684F85C8086E7AB
:1049200001230322184684F85C2023B0BDE8F083FD
:104930000000000001000000100000000100000065
:10494000000000000000400064A500240050005258
:104950002DE9F04F8FB0414B0024026800AF9A421E
:104960007C63C7E90944C7E90B4403D03C37BD4623
:10497000BDE8F08F3A4B40F609213A48EB46D3F8B0
:10498000D42007F11C0607F1220A4FF0020942F475
:1049900080424FF00308C3F8D420D3F8D42002F4A7
:1049A0008042BA60BA68D3F8E02042F04002C3F80F
:1049B000E020D3F8E02002F04002FA60FA68D3F871
:1049C000E02042F02002C3F8E020D3F8E02002F01B
:1049D00020023A613A69D3F8E02042F01002C3F8AD
:1049E000E020D3F8E02002F010027A617A69D3F86F
:1049F000E02042F00202C3F8E020D3F8E030F86192
:104A000003F002033984BB61174B7B60BB697B6891
:104A100053F8040F7B6002F0ABFC7B680546186816
:104A200002F0AEFC16F8013B786207F1240128463B
:104A3000C7F830807B63C7E90A9404F06DFD5645E2
:104A4000E5D100225C20114603F0BEFB5C2003F0A0
:104A5000F9FB3C37DD46BD46BDE8F08F0050005203
:104A6000004402580A0A0909C0A50024114B026833
:104A70009A4200D07047104A70B5D2F8D4300F4C2B
:104A800023F4804304F11806C2F8D43054F8040F1C
:104A900002F06EFC0546206802F072FC01462846D2
:104AA00004F07AFEB442F1D15C20BDE8704003F01E
:104AB000D7BB00BF0050005200440258C0A50024DC
:104AC000014806F087BE00BF74A50024084B1A1DDC
:104AD000981D03F1080110B49C1C9A6603F10A02A8
:104AE000C3E91834C3E91B015DF8044B5A677047EA
:104AF00064A5002438B5036871B9026A00F128057D
:104B000000F5AC74012A0CBF002140218BBB1D4B6A
:104B10005722C0F858310DE0426A00F1C00500F597
:104B2000E874012A0CBF00214021EBB1164B5A2238
:104B3000C0F8D03100232046C4E901214FF480524F
:104B40004FF48061636262614FF48042C4E90331D3
:104B50004FF48073C4E906234FF40033236203F05B
:104B600011FE58B1FFBEFEE7084B5822C0F8D03105
:104B7000E0E7074B5922C0F85831DBE7C5E920448C
:104B8000A56338BD100002407000024028000240BA
:104B9000580002402DE9F043821D05468BB0031DED
:104BA00005F10A010830CDE9052305F10C02AB69D6
:104BB000CDE907010992002B3DD0EB69B3FA83F8E8
:104BC0004FEA58180123022205AE0AAF4FF006093A
:104BD0000393CDE9012356F8044B2B7922789342B5
:104BE00016D02B68F3B1012B02D1F2B10A23049342
:104BF000204602F0C5FB03462046009302F0B8FBB6
:104C0000694604F089FCBE42E5D10BB0BDE8F083F3
:104C1000697963789942E4D1B8F1000FF3D02B6839
:104C2000002BE0D1CDF81090E2E76378022B14BF9F
:104C30000A230823DBE74FF00108C3E7534A036860
:104C4000934230B505468BB055D02032934252D0B6
:104C50004F4A934204D02032934201D00BB030BD72
:104C60004C4C4D48D4F8E03043F00103C4F8E03038
:104C7000D4F8E03003F001030593059BD4F8E0304D
:104C800043F00803C4F8E030D4F8E03003F0080340
:104C90000693069BD4F8E03043F04003C4F8E030BC
:104CA000D4F8E03003F040030793079BD4F8F030CA
:104CB00043F40003C4F8F030D4F8F03003F40003F8
:104CC0000893089BFFF766FFD4F8D830296843F0B3
:104CD00001032F4A3048C4F8D830891AD4F8D830A4
:104CE00018BF012103F001030993099B0BB0BDE834
:104CF0003040FFF7FFBE274C2848D4F8E03043F09F
:104D00000103C4F8E030D4F8E03003F0010300936D
:104D1000009BD4F8E03043F01003C4F8E030D4F83E
:104D2000E03003F010030193019BD4F8E03043F02E
:104D30004003C4F8E030D4F8E03003F040030293BD
:104D4000029BD4F8F03043F48003C4F8F030D4F878
:104D5000F03003F480030393039BFFF71BFFD4F8A9
:104D6000D830296843F00103084A0C48C4F8D83009
:104D7000891AD4F8D83018BF012103F00103049335
:104D8000049B0BB0BDE83040FFF7B4BE04580140AF
:104D9000045C01400044025838A80024DCA500242B
:104DA000014804F067B800BF34A70024014804F0AC
:104DB00061B800BFACA70024014804F05BB800BF95
:104DC00090A90024014804F055B800BF08AA0024A7
:104DD0002DE9F04F0C684FF41776754F87B004FB40
:104DE00006F6012C07EB060AC0F800A000F3A0802D
:104DF0000D468E464FF00008D44669A3D3E9002340
:104E000069A1D1E90001CDE9022306ABCAF85082BD
:104E100003EB8403CDE9040153F810BC53F8083CBC
:104E2000CAE992880193BEE80F00ACE80F00BEE823
:104E30000F00ACE80F00019B9EE80300CAF828B001
:104E4000CAF8C0308CE803002B69042B0CD8DFE8CB
:104E500003F0737D879103004FF41773554A03FBEA
:104E600004739A64C3F8E020AA692B6A002A43D02D
:104E7000002B4FF4177308BF022203FB047318BF03
:104E80000322DA6201221A63EA696B6A002A40D1BE
:104E9000191E4FF4177318BF012103FB0473C3E9F4
:104EA00031126B69022B05D8434A12F80380434A3A
:104EB00052F823904FF4177306F1280042464946F2
:104EC00003FB04740023384463646363E365C4F83C
:104ED000DC30C4F8CC30C4F8F430C4E90F33C4E992
:104EE0001533C4E93533C4E93B33022308F014FD1C
:104EF000002849D0FFBEFEE7191E4FF4177318BFF4
:104F0000012103FB0473C3E90B12EA696B6A002AEF
:104F1000BED0002B4FF4177308BF022203FB0473AB
:104F200018BF0322C3F8C4200122C3F8C820B8E781
:104F3000012007B0BDE8F08F4FF417734FF4FA5219
:104F400003FB04739A64C3F8E0208DE74FF41773F2
:104F50004FF47A5203FB04739A64C3F8E02083E7AA
:104F60004FF417734FF4FA4203FB04739A64C3F8C7
:104F7000E02079E74FF417734BF6803203FB04739C
:104F80009A64C3F8E0206FE706F1C00002234246AE
:104F90004946384408F0C0FC0028CAD0FFBEFEE7EE
:104FA00004580140045C014024580140245C014045
:104FB000DCA5002400770100E0490108E44901086C
:104FC0000068704703681B69042B05D8044A02EB8C
:104FD000830393ED000A70479FED020A704700BFFC
:104FE000F049010800803B4770B5002304464FF4A8
:104FF000806204214FF440353448C4F83821C4F8A5
:10500000D410C4F83431C4F84C113149C4F8B0009C
:10501000C4F82811C4E92F32C4E93133C4E9333567
:10502000C4E93733C4E94F33C4E95135C4E95533D2
:10503000A2680323C4F8D830C4F85031042A0AD82F
:10504000DFE802F01F262D34030055225623C4F852
:10505000B420C4F82C310022402304F1B005C4F878
:10506000B8202846C4F8303103F08CFB08B1FFBEED
:10507000FEE704F59476304603F084FBE8B1FFBE0A
:10508000FEE725222623C4F8B420C4F82C31E2E739
:1050900027222823C4F8B420C4F82C31DBE73D22B2
:1050A0003E23C4F8B420C4F82C31D4E7532254234F
:1050B000C4F8B420C4F82C31CDE704F12803C4E9C6
:1050C0002865C4F8E830C4F8603170BD400402407F
:1050D000580402402DE9F04F814683B00E46174632
:1050E0001D4600F12804204609F052FC01288246A2
:1050F000F9D14846FFF778FF8046002835D1EFF315
:105100001083019372B6DFF888B00C9B99F90820E0
:10511000DFF880A0DFF88090CBF800300D9B89F895
:105120000020CAF800300DB11846A847BAB231467F
:10513000204608F0A3FF30B9019B03B962B6404690
:1051400003B0BDE8F08F0023CBF80030CAF8003080
:10515000FF2389F800300C9B8BB101210D98884604
:105160009847019B002BEAD1E8E70C9B53B1D0464E
:105170000D9851469847404603B0BDE8F08F4FF078
:105180000108D9E7D046404603B0BDE8F08F00BF24
:10519000B4B40024BCB40024B8B400242DE9F04F0A
:1051A000814683B00E4617461D4600F1280420466E
:1051B00009F0EEFB01288246F9D14846FFF714FFBB
:1051C0008046002835D1EFF31083019372B6DFF8E3
:1051D00088B00C9B99F90820DFF880A0DFF8809058
:1051E000CBF800300D9B89F80020CAF800300DB1D3
:1051F0001846A847BAB23146204609F003F930B93B
:10520000019B03B962B6404603B0BDE8F08F0023AE
:10521000CBF80030CAF80030FF2389F800300C9B2F
:105220008BB101210D9888469847019B002BEAD14C
:10523000E8E70C9B53B1D0460D985146984740463D
:1052400003B0BDE8F08F4FF00108D9E7D0464046E3
:1052500003B0BDE8F08F00BFB4B40024BCB4002498
:10526000B8B400242DE9F04F814683B00F461646AE
:10527000984600F12804204609F08AFB0128FAD15B
:1052800082464846FFF7B0FE0546002838D1EFF3C6
:105290001083019372B699F90830DFF88890DFF82F
:1052A00088B089F800300D9BDFF880A0CBF8003083
:1052B0000E9BCAF800300C9B0BB10E9898471FFA52
:1052C00088F33A463146204608F090FF30B9019BFA
:1052D00003B962B6284603B0BDE8F08F0023CBF8CF
:1052E0000030CAF80030FF2389F800300D9B8BB1E5
:1052F00001210E980D469847019B002BEAD1E8E763
:105300000D9B4BB155460E9851469847284603B021
:10531000BDE8F08F0125DAE75546284603B0BDE821
:10532000F08F00BFB8B40024B4B40024BCB400248F
:105330002DE9F043002387B0022204460569049357
:10534000CDE90223D0E902128E00FAB1022D7AD003
:105350002178B5FA85F54FF00108276A0B294FEA45
:10536000551521D1A2780B2A02D0B8F1000F38D1FF
:1053700023790B2B01D0002D6CD1A37917B10B2B06
:1053800040F09980002007B0BDE8F08335F00203BB
:105390002178276A0CBF4FF001084FF00008023D4A
:1053A00018BF01250B29DDD07D4B94F801C053F8BF
:1053B000262010780B2802D0884200F0AD80D378E8
:1053C000D01C994202D10B2B40F0BD809379901DE7
:1053D0008B4202D10B2B40F0BC80012007B0BDE80E
:1053E000F083711C6E4BE07853F8213019780B294B
:1053F00002D08A4200F0B580D97803F1030C0B2962
:1054000002D08A4200F0BB80997903F1060C0B2987
:10541000E3D08A42E1D1DB798342DED1634604F1F5
:1054200002099B784846059301F0A2FF8046484652
:1054300001F0A6FF01A90190404604F06DF8237920
:105440000B2B98D199E70178076A0B2940F08680E9
:1054500001258DE7B11C524A607952F8212011785C
:105460000B2902D08B4200F08180D178D51C0B290A
:1054700002D08B4200F08D809179951D8B42ACD18A
:105480000B29AAD0D3798342A7D12A46251D937828
:105490002846059301F06CFF034628461D4601F09F
:1054A0006FFF01A90190284604F036F8A379002F78
:1054B0007FF465AF66E7F11C394AE07952F82120A4
:1054C00011780B2901D08B425FD0D178D51C0B29E4
:1054D00001D08B424FD09179951D8B427FF47DAFE7
:1054E0000B293FF47AAFD37983427FF476AF2A4613
:1054F000A51D93782846059301F03AFF04462846F7
:1055000001F03EFF034601A92046019304F004F890
:10551000002007B0BDE8F083537863457FF44FAFB8
:1055200093782046059301F023FF8146204601F041
:1055300027FF01A90190484603F0EEFFA2780B2A4D
:105540007FF413AF14E7137963457FF43FAF02464E
:10555000E6E7D37963457FF440AFF8E79846012545
:1055600022E7597881427FF447AF58E7517881426A
:105570007FF47BAF8AE711798142ACD1B7E7197923
:1055800081427FF441AF634649E7517881429CD123
:10559000AEE7117981427FF46FAF2A4676E700BF0C
:1055A0002C4A0108654A0368934200F0B980A2F5CD
:1055B0007842934200F0B68002F58062934200F098
:1055C000B38002F57842934200F0B08002F5E052D9
:1055D000934200F0AD805A4A934240F0AB800523DD
:1055E0004FF4D071574A01FB03F310B5D418D05CC7
:1055F00086B001F0CDFEA07801F0CAFE207901F05E
:10560000C7FEA07901F0C4FEA368052B11D8DFE81E
:1056100003F0192F455B71034B4BD3F8F42042F094
:105620002002C3F8F420D3F8F43003F020030593EC
:10563000059B2046FFF77CFE012801D006B010BD77
:10564000FFBEFEE7404B00222320D3F8F01041F4C8
:105650008051C3F8F0101146D3F8F03003F48053B2
:105660000093009B02F0B0FD232002F0EBFDE0E789
:10567000354B00222420D3F8E81041F48041C3F8D0
:10568000E8101146D3F8E83003F480430193019BFE
:1056900002F09AFD242002F0D5FDCAE72A4B002231
:1056A0003320D3F8E81041F40041C3F8E810114664
:1056B000D3F8E83003F400430293029B02F084FD28
:1056C000332002F0BFFDB4E71F4B00225420D3F873
:1056D000F01041F40051C3F8F0101146D3F8F03047
:1056E00003F400530393039B02F06EFD542002F079
:1056F000A9FD9EE7144B00225520D3F8F01041F489
:105700008011C3F8F0101146D3F8F03003F4801381
:105710000493049B02F058FD552002F093FD88E7A6
:1057200000235DE701235BE7022359E7032357E7E3
:10573000042355E700231B78FFDE00BF0030014043
:105740000014005894AA0024004402582DE9F043A4
:10575000002289B01B4B01210DF1040C9E461A4B0F
:105760000791E146E04667460EF11C060EF138054A
:105770000EF15404CDE90122CDE90322CDE9052241
:10578000FF221A70BCE80F00AEE80F009CE807008B
:105790008EE80700B9E80F000FC69CE8070086E80E
:1057A0000700B8E80F000FC59CE8070085E8070070
:1057B0000FCF0FC49CE8070084E8070009B0BDE8DC
:1057C000F08300BF4C030024B8B40024014808F063
:1057D000B3BF00BFBCAA0024014808F0ADBF00BFA2
:1057E0005CAC0024014808F0A7BF00BFFCAD00245A
:1057F000014808F0A1BF00BF9CAF0024014808F099
:105800009BBF00BF3CB1002410B5EFF3108472B60B
:10581000084B1A78120602D504B962B610BD1B787F
:105820004FF4D07204485BB202FB0300B03003F0C7
:1058300021FBF1E7B8B4002494AA002410B5EFF3DB
:10584000108472B6094B1A78120602D504B962B6F2
:1058500010BD1B784FF4D07205485BB202FB030009
:1058600000F5947003F006FBF0E700BFB8B4002425
:1058700094AA00242DE9F04184B0EFF3108772B6AA
:10588000284AFF21284C1368217023B100211160A0
:10589000264A1068984723781B061CD5DFF89480A9
:1058A0000025234E4446216879B162686AB1A36934
:1058B000012B22D0A3B96369304601932369009379
:1058C000E3682289FFF76AFC18B301351C3406F53A
:1058D000D076042DE7D107B962B604B0BDE8F081F7
:1058E000D4E90430CDE90130E068238900903046E6
:1058F000FFF7B8FC0028E8D10BE0D4E904301146EA
:10590000CDE900303046E3682289FFF7E3FB002849
:10591000DBD1C5EBC50508EB850348F825005860C9
:10592000D9E700BFB4B40024B8B40024BCB4002448
:1059300094AA00244C0300242DE9F04184B0EFF335
:10594000108772B6284AFF21284C1368217023B1B2
:1059500000211160264A1068984723781B061CD541
:10596000DFF894800025234E4446216879B16268AF
:105970006AB1A369012B22D0A3B9636930460193B0
:1059800023690093E3682289FFF708FC18B3013507
:105990001C3406F5D076042DE7D107B962B604B001
:1059A000BDE8F081D4E90430CDE90130E068238915
:1059B00000903046FFF756FC0028E8D10BE0D4E910
:1059C00004301146CDE900303046E3682289FFF704
:1059D00081FB0028DBD1C5EBC50508EB850348F842
:1059E00025005860D9E700BFB4B40024B8B400243F
:1059F000BCB4002494AA00244C0300242DE9F041F7
:105A000084B0EFF3108772B6284AFF21284C136840
:105A1000217023B100211160264A1068984723782D
:105A20001B061CD5DFF894800025234E44462168D0
:105A300079B162686AB1A369012B22D0A3B9636905
:105A40003046019323690093E3682289FFF7A6FBA0
:105A500018B301351C3406F5D076042DE7D107B90B
:105A600062B604B0BDE8F081D4E90430CDE901307C
:105A7000E068238900903046FFF7F4FB0028E8D166
:105A80000BE0D4E904301146CDE900303046E3683C
:105A90002289FFF71FFB0028DBD1C5EBC50508EB0A
:105AA000850348F825005860D9E700BFB4B4002446
:105AB000B8B40024BCB4002494AA00244C030024ED
:105AC0002DE9F04184B0EFF3108772B608F09EF82C
:105AD000284A294CFF21136821702BB10021116045
