:020000040800F2
:1000000000000220110A00080D0A0008718500088E
:100010000D0A00080D0A00080D0A00080000000083
:100020000000000000000000000000000D0A0008B1
:100030000D0A0008000000000D0A0008F584000801
:100040000D0A00080D0A00080D0A00080D0A000834
:100050000D0A00080D0A00080D0A00080D0A000824
:100060000D0A00080D0A00080D0A0008B164000816
:10007000BD6400080D510008C9640008D56400087B
:10008000A9810008DD5900080D0A00080D0A0008C2
:100090000D0A00080D0A00080D0A00080D0A0008E4
:1000A0000D0A00080D0A00080D0A00080D0A0008D4
:1000B000317101083D71010849710108115A0008A8
:1000C0000D0A00081D5A00080D0A00084D700008AE
:1000D00059700008DD7F00080D800008418000088D
:1000E0000D0A00080D0A0008000000000D0A0008B3
:1000F0000D0A00080D0A00080D0A00080D0A000884
:100100000D0A00085D680008557101086570000857
:1001100075800008A9800008D95300080D0A00085E
:10012000C1530008CD53000889700008BD70000855
:10013000DD8100080D0A00080D0A00080D0A0008FC
:1001400000000000000000000000000000000000AF
:100150000D0A00080D0A00080D0A0008DD800008DD
:10016000295A00080D0A000805850008298500089D
:100170000D0A00084D8500080D0A00080D0A000848
:100180000D0A00080D0A00081181000841810008CD
:10019000717000087D7000080D0A00080D0A000843
:1001A0000D0A00080D0A00080D0A00080D0A0008D3
:1001B000D16100080D0A00080D0A00080D0A0008A8
:1001C0000D0A00080D0A00080D0A00080D0A0008B3
:1001D0000D0A00080D0A00080D0A00080D0A0008A3
:1001E0000D0A00080D0A00080D0A00080D0A000893
:1001F0000D0A00080D0A00080D0A00080D0A000883
:100200000D0A00080D0A00080D0A00080D0A000872
:100210000D0A00080D0A00080D0A00080D0A000862
:100220000D0A00080D0A00080D0A00080000000071
:100230000D0A00080D0A0008000000000D0A000861
:100240000D0A00080D0A00080D0A00080D0A000832
:100250000D0A00080D0A00080D0A00080D0A000822
:100260000D0A00080D0A00080D0A00080D0A000812
:100270000D0A00080D0A0008758100080000000042
:100280000D0A00080D0A00080D0A00080000000011
:08029000000000000D0A000847
:1002A00010B5054C237833B9044B13B10448AFF3B0
:1002B00000800123237010BD2806002400000000E8
:1002C00000AD010808B5034B1BB103490348AFF368
:1002D000008008BD000000002C06002400AD0108CD
:1002E00001F0FF01102A2BDB10F0070F08D010F8E7
:1002F000013B013A8B422DD010F0070F42B3F6D1EB
:10030000F0B441EA012141EA014122F007047FF003
:1003100000070023F0E80256083C85EA010586EA5A
:10032000010685FA47F5A3FA87F586FA47F6A5FA96
:1003300087F68EB9EED1F0BC01F0FF0102F00702A2
:1003400032B110F8013B013A83EA010313B1F8D14D
:100350000020704701387047002D06BF354603382E
:10036000073815F0010F07D1013015F4807F02BF67
:10037000013015F4C03F0130F0BC0138704700BFB8
:10038000034613F8012B002AFBD1181A01387047D5
:1003900081F0004102E000BF83F0004330B54FEA36
:1003A00041044FEA430594EA050F08BF90EA020FA3
:1003B0001FBF54EA000C55EA020C7FEA645C7FEA36
:1003C000655C00F0E2804FEA5454D4EB5555B8BF59
:1003D0006D420CDD2C4480EA020281EA030382EACA
:1003E000000083EA010180EA020281EA0303362D5C
:1003F00088BF30BD11F0004F4FEA01314FF4801C2F
:100400004CEA113102D0404261EB410113F0004F40
:100410004FEA03334CEA133302D0524263EB4303F7
:1004200094EA050F00F0A780A4F10104D5F1200E95
:100430000DDB02FA0EFC22FA05F2801841F10001F0
:1004400003FA0EF2801843FA05F359410EE0A5F1C4
:1004500020050EF1200E012A03FA0EFC28BF4CF0F5
:10046000020C43FA05F3C01851EBE37101F00045AB
:1004700007D54FF0000EDCF1000C7EEB00006EEBB8
:100480000101B1F5801F1BD3B1F5001F0CD3490842
:100490005FEA30004FEA3C0C04F101044FEA445299
:1004A00012F5800F80F09A80BCF1004F08BF5FEA20
:1004B000500C50F1000041EB045141EA050130BD00
:1004C0005FEA4C0C404141EB0101013C28BFB1F512
:1004D000801FE9D291F0000F04BF01460020B1FA5D
:1004E00081F308BF2033A3F10B03B3F120020CDA30
:1004F0000C3208DD02F1140CC2F10C0201FA0CF00E
:1005000021FA02F10CE002F11402D8BFC2F1200C72
:1005100001FA02F120FA0CFCDCBF41EA0C01904028
:10052000E41AA2BF01EB0451294330BD6FEA040471
:100530001F3C1CDA0C340EDC04F11404C4F120025C
:1005400020FA04F001FA02F340EA030021FA04F36E
:1005500045EA030130BDC4F10C04C4F1200220FAC5
:1005600002F001FA04F340EA0300294630BD21FA03
:1005700004F0294630BD94F0000F83F4801306BFC9
:1005800081F480110134013D4EE77FEA645C18BFBD
:100590007FEA655C29D094EA050F08BF90EA020F54
:1005A00005D054EA000C04BF1946104630BD91EA4C
:1005B000030F1EBF0021002030BD5FEA545C05D14F
:1005C0004000494128BF41F0004130BD14F580048E
:1005D0003CBF01F5801130BD01F0004545F0FE4102
:1005E00041F470014FF0000030BD7FEA645C1ABF37
:1005F000194610467FEA655C1CBF0B46024650EA6E
:10060000013406BF52EA033591EA030F41F4002199
:1006100030BD00BF90F0000F04BF0021704730B51F
:100620004FF4806404F132044FF000054FF00001F4
:1006300050E700BF90F0000F04BF0021704730B5B5
:100640004FF4806404F1320410F0004548BF40428A
:100650004FF000013EE700BF42004FEAE2014FEADF
:1006600031014FEA02701FBF12F07F4393F07F4FBA
:1006700081F06051704732F07F4208BF704793F0BD
:100680007F4F04BF41F40021704730B54FF46074D0
:1006900001F0004521F000411CE700BF50EA0102D3
:1006A00008BF704730B54FF000050AE050EA01027C
:1006B00008BF704730B511F0004502D5404261EBEC
:1006C00041014FF4806404F132045FEA915C3FF42D
:1006D000D8AE4FF003025FEADC0C18BF03325FEACA
:1006E000DC0C18BF033202EBDC02C2F1200300FA7B
:1006F00003FC20FA02F001FA03FE40EA0E0021FAA0
:1007000002F11444BDE600BF53B94AB9002908BF3D
:1007100000281CBF4FF0FF314FF0FF3000F074B9DC
:10072000ADF1080C6DE904CE00F006F8DDF804E048
:10073000DDE9022304B070472DE9F047089D044627
:100740008E46002B4DD18A42944669D9B2FA82F284
:1007500052B101FA02F3C2F1200120FA01F10CFAC0
:1007600002FC41EA030E94404FEA1C48210CBEFBF8
:10077000F8F61FFA8CF708FB16E341EA034306FB81
:1007800007F199420AD91CEB030306F1FF3080F010
:100790001F81994240F21C81023E63445B1AA4B25D
:1007A000B3FBF8F008FB103344EA034400FB07F7FF
:1007B000A7420AD91CEB040400F1FF3380F00A8140
:1007C000A74240F207816444023840EA0640E41B35
:1007D00000261DB1D4400023C5E900433146BDE8E1
:1007E000F0878B4209D9002D00F0EF800026C5E983
:1007F000000130463146BDE8F087B3FA83F6002E9B
:100800004AD18B4202D3824200F2F980841A61EB12
:10081000030301209E46002DE0D0C5E9004EDDE730
:1008200002B9FFDEB2FA82F2002A40F09280A1EB18
:100830000C014FEA1C471FFA8CFE0126200CB1FB6D
:10084000F7F307FB131140EA01410EFB03F0884266
:1008500008D91CEB010103F1FF3802D2884200F2F3
:10086000CB804346091AA4B2B1FBF7F007FB101185
:1008700044EA01440EFB00FEA64508D91CEB040423
:1008800000F1FF3102D2A64500F2BB800846A4EB7E
:100890000E0440EA03409CE7C6F12007B34022FA69
:1008A00007FC4CEA030C20FA07F401FA06F31C4398
:1008B000F9404FEA1C4900FA06F3B1FBF9F8200CA5
:1008C0001FFA8CFE09FB181140EA014108FB0EF0EB
:1008D000884202FA06F20BD91CEB010108F1FF3A3B
:1008E00080F08880884240F28580A8F10208614447
:1008F000091AA4B2B1FBF9F009FB101144EA014155
:1009000000FB0EFE8E4508D91CEB010100F1FF34FF
:100910006CD28E456AD90238614440EA0840A0FB97
:100920000294A1EB0E01A142C846A64656D353D06D
:100930005DB1B3EB080261EB0E0101FA07F722FA91
:1009400006F3F1401F43C5E9007100263146BDE8BA
:10095000F087C2F12003D8400CFA02FC21FA03F31D
:10096000914001434FEA1C471FFA8CFEB3FBF7F09E
:1009700007FB10360B0C43EA064300FB0EF69E42C3
:1009800004FA02F408D91CEB030300F1FF382FD25C
:100990009E422DD9023863449B1B89B2B3FBF7F604
:1009A00007FB163341EA034106FB0EF38B4208D9DD
:1009B0001CEB010106F1FF3816D28B4214D9023E1E
:1009C0006144C91A46EA004638E72E46284605E73C
:1009D0000646E3E61846F8E64B45A9D2B9EB02080D
:1009E00064EB0C0E0138A3E74646EAE7204694E79D
:1009F0004046D1E7D0467BE7023B614432E73046D0
:100A000009E76444023842E7704700BFFEE7000090
:100A100009480A4A0A49121A17F010FB09480A4AFB
:100A20000021121A17F032FB07F0CEFF17F0BAFAC6
:100A300002F0FEFCFEE700BF0000002428060024B0
:100A400034AD01082806002414EF0024034B1A18C3
:100A500003EB80035B68107B5B6818475008002439
:100A6000064B1A5C42B901221A541A1803EB800390
:100A7000107B5B681B6818470020704750080024F3
:100A800030B4054C251804EB800460688468287B2A
:100A9000A44630BC604700BF5008002430B4054C69
:100AA000251804EB80046068C468287BA44630BC29
:100AB000604700BF50080024054B10B41C1803EB1E
:100AC00080035B68207B1B695DF8044B184700BFFF
:100AD00050080024006870470B0A017043700B0C2B
:100AE000090E8370C1707047024400F8011B9042E8
:100AF000FBD1704783690239023B8B4283BF438934
:100B0000C06A01FB0300002070470268490A836A3B
:100B100052890433B1FBF2F1186830B1814202D33B
:100B2000091A0833F8E7586808447047C2F30723E6
:100B30008A76CB760378032B01BF120C0A75120A52
:100B40004A75704700F10B010022D30143EA5203BA
:100B500010F8012B52FA83F38842DAB2F5D110462D
:100B600070470368014610B553B11846024610F8A5
:100B7000014B1F2C10D93A2CF8D1581C824202D0BC
:100B80004FF0FF3007E01B78303BD8B20128F7D890
:100B9000013218460A6010BD0020FCE738B50D464A
:100BA000044618B9092000232B6038BD0368002BC8
:100BB000F8D01A78002AF5D08188DA889142F1D1EC
:100BC0005878FFF743FF10F00100EBD12368EBE703
:100BD00001380A4411F8013B914200F8013FF9D174
:100BE00070472DE9F041066B00F1340804460123FB
:100BF000324641464078FFF751FF0546A8B9636A7F
:100C0000E269F31AE070934202D2A778012F02D86A
:100C10002846BDE8F081E36941466078013F1E4403
:100C200001233246FFF73AFFF0E70125F0E7C378EA
:100C30000BB1FFF7D6BF1846704738B5036B0546B2
:100C40000C468B4210D0FFF7F2FF60B92246012319
:100C500005F134016878FFF713FF00281CBF4FF03F
:100C6000FF3401202C6338BD0020FCE7002310B5C1
:100C7000C3704FF0FF3304460363FFF7DEFF034604
:100C800018BBB4F832124AF6552291421FD194F89B
:100C90003420E92A05D0626B0F4902F0FF128A4224
:100CA00017D104F16A000D4AFFF714FF20F07F40CE
:100CB000904208D002F14C5204F18600FFF70AFF7F
:100CC000904218BF0223184610BD0423FBE70323FC
:100CD000F9E70223F7E700BFEB009000464154001C
:100CE0002DE9FF4100230F4615460B60FFF739FF42
:100CF000061EC0F212818C4B53F82640002C00F0E7
:100D00000E813C6005F0FE0523786BB16078FFF73B
:100D10009DFEC10708D41DB110F0040500D00A25BE
:100D2000284604B0BDE8F0810023F0B22370607063
:100D3000FFF796FEC20700F1F4800DB14307EED431
:100D400000212046FFF792FF022840F0CB806F463B
:100D500004F5FD7304F23A213A4613F8040C10B17D
:100D60001846FFF7B7FE103342F8040B8B42F4D15C
:100D7000002557F8046B002E00F0AB80314620466A
:100D8000FFF774FF012800F2A580B4F83F30B3F5F7
:100D9000007F40F0AB80B4F84A1021B904F158004C
:100DA000FFF798FE014694F84430E1615A1EA370A3
:100DB000012A00F29B8094F841506581002D00F0DB
:100DC00095806A1E2A4240F09180B4F8458018F060
:100DD0000F0FA4F8088040F08980B4F8470018B9D4
:100DE00004F15400FFF776FEB4F84270002F7DD076
:100DF00001FB03FE07EB181CF444604576D3A0EB1F
:100E00000C02AA42B2FBF5F370D34FF6F57293428F
:100E100070D840F6F575AB428CBF02250125023330
:100E200037440CEB0602032DA36126626762E2627F
:100E300062D1B4F85E2052EA080257D19B0004F157
:100E40006000FFF747FEA06203F2FF13B1EB532FE0
:100E50004CD34FF0FF33032DC4E904334FF080032C
:100E600023712BD1B4F86430012B27D1711C20469B
:100E7000FFF7E3FE10BBB4F832224AF65523207187
:100E80009A421BD1294B04F13400FFF723FE98420C
:100E900014D103F1FF5304F50670FFF71BFE03F5B1
:100EA00000532033984209D104F50770FFF712FE72
:100EB000606104F50870FFF70DFE20611C4A257083
:100EC0000025138801339BB21380E380194BE36044
:100ED00026E703200135042D7FF44BAF042805D10C
:100EE00001251DE70428FBD0012801D90D2517E7AE
:100EF00000264AE7032592E7B8F1000FF6D0022D4D
:100F00004FEA430277441ABFD21803F00103134695
:100F1000A76218BF03EB520396E70B2500E70C25E9
:100F2000FEE60325FCE600BF440600245252614160
:100F30004C0600244E06002401292DE9F047064600
:100F40000C46174674D983698B4271D90378022BFA
:100F500040D0032B51D0012B6AD101EB5108416ADB
:100F600001EB5821FFF769FE054640BB14F0010470
:100F700006F1340908F1010AC8F3080808BFFBB2FA
:100F800030461FBF19F8083003F00F023B0103F091
:100F9000F00318BF134309F808300123716AF37096
:100FA00001EB5A21FFF749FE054640B9CAF3080A8A
:100FB00044B1C7F3071709F80A700123F3702846F4
:100FC000BDE8F08719F80A30C7F3032723F00F03B1
:100FD0001F43F0E7416A01EB1421FFF72EFE05469F
:100FE0000028ECD1640006F1340304F4FF741F55AB
:100FF0001819C7F307274770DFE7416A01EBD411DF
:10100000FFF71BFE05460028D9D1A40006F13403E2
:1010100027F0704704F4FE741C442046FFF75AFD85
:1010200000F0704047EA00012046FFF755FDC4E795
:101030000225C4E7F8B50446FFF7F9FD0546002888
:1010400042D12378032B37D12779012F34D104F1F2
:101050003406552301464FF400723046FFF744FD35
:1010600084F83232AA234122722104F5077084F8F1
:101070003332522384F8372084F8343084F8353002
:10108000612384F8181284F8363084F81B3284F80F
:10109000191284F81A226169FFF71EFD216904F50F
:1010A0000870FFF719FD226A3B463146013260782D
:1010B0002263FFF7F3FC2571002260781146FFF7E9
:1010C000FBFC003818BF0120F8BD03284B8B04BF80
:1010D0008A8A43EA0243184670470129F8B5064652
:1010E0000C464ED9836999424BD20378022B29D002
:1010F000032B34D0012B44D101EB5105416A01EBA4
:101100005521FFF79AFD10B14FF0FF30F8BD6F1C6D
:10111000C5F30805716A3046354401EB572195F84F
:101120003450FFF78AFD0028EED1C7F30807E30724
:101130003E4496F8340045EA00204CBF0009C0F355
:101140000B00E3E7416A01EB1421FFF776FD00286D
:10115000DAD1640004F4FF742644B08ED6E7416A05
:1011600001EBD411FFF769FD0028CDD1A40006F1F1
:10117000340004F4FE742044FFF7ACFC20F070400F
:10118000C4E70120C2E773B50C4606461146056860
:10119000012C2CD9AB69A34229D92AB14FF0FF32D7
:1011A0002846FFF7C9FE40B9214630680194FFF791
:1011B00094FF0199044610B9002002B070BD0128C7
:1011C00015D0431C15D000222846FFF7B5FE002895
:1011D000F3D1D5E90532911E8B4205D201336B6103
:1011E0002B7943F001032B71A242DDD8E4E7022002
:1011F000E3E70120E1E72DE9F041804605680F466D
:1012000071B92E69EEB1AB69B34298BF012634467D
:101210000134AB69A34217D8012E14D8002406E08C
:101220002846FFF75AFF0128044603D80124204628
:10123000BDE8F081431C30D0AB698342F7D83E460D
:10124000E5E70126E3E702242146D8F80000FFF78E
:1012500044FF30B10128E9D001301ED0B442D7D1CB
:10126000DCE74FF0FF3221462846FFF765FE90B9D4
:1012700057B92C61D5E90532023A934210D92B793E
:1012800043F001032B71D2E7224639462846FFF787
:1012900053FE0028EDD00128C8D14FF0FF34C6E737
:1012A000013B6B61EBE7B1F5001FF8B506460C4654
:1012B00001D30220F8BDCA06FBD18268056801612E
:1012C000CAB92B78022B01D9AB6A9BB92B89B3EB36
:1012D000541FEED9AB6AB361B3697261002BE8D0D9
:1012E00003EB54233435C4F308040020B3612C44C9
:1012F000F461DFE71A466F897F02BC42114604D2CF
:101300002846FFF7F7FBB061E6E73068FFF7E5FE38
:10131000431C024606D00128CBD9AB698342C8D909
:10132000E41BEAE70120C5E703692DE9F04703F173
:101330002008836905468A4693B1B8F5001F0FD28D
:10134000C8F308090468B9F1000F4DD101334169B0
:10135000836139B92389B3EB581F45D80023AB61AA
:1013600004200BE06789013F17EA58273CD120464B
:10137000FFF7B3FE0128064602D80220BDE8F08739
:10138000421C01D10120F9E7A369834226D8BAF1B2
:10139000000FE3D069692846FFF72DFF06460028B5
:1013A00035D00128E9D0431CECD02046FFF73FFCA4
:1013B00001460028E6D104F134004FF400724FF0EA
:1013C000010AFFF791FB31462046FFF793FB2063AC
:1013D00063899F420FD3236BDB1B23633146204677
:1013E0006E61FFF787FBA86134340020C5F81080D8
:1013F0004C44EC61C2E7204684F803A0FFF7F1FB00
:101400000028BFD1236B013701332363E0E70720B6
:10141000B4E700002DE9F04F002185B00446D0F874
:1014200000B0FFF740FF0646002840F098804FF0DC
:10143000FF084FF0FF3AC146C4F82CA0A1695846F6
:10144000FFF7FBFB0646002840F08980E5692F780E
:10145000002F00F08880EA7AE52F02F03F03A371A5
:1014600003D0100704D50F2B04D0C4F82CA050E0F3
:101470000F2B56D194F82B30590640D47A0646D516
:10148000236907F0BF0795F80D80E3626B7B434546
:101490003FD16B8B002B3CD12E780122DBF80C3036
:1014A00006F03F06DFF8C89000930D23013E5E432F
:1014B00019F8013BEB5A7AB3FE2E2AD8184603934B
:1014C00000F016FD009B711C029033F8160001918C
:1014D00000F00EFD029A82421BD1039B01991A462D
:1014E0000E46224B9945E3D12B785B0604D51AB101
:1014F000009B33F8163063B9013F5FFA87F900218A
:101500002046FFF711FF0646002897D027E0B9458F
:10151000BCD04FF0FF09F2E74FF6FF718B42E0D0ED
:10152000F7E7B9F1000F04D12846FFF70BFB404560
:1015300015D094F82B6016F0010696D104F1200224
:1015400005F10B0115F8013B12F8010B8D42A3EBDD
:10155000000302D0002BF5D087E7002B85D1304661
:1015600005B0BDE8F08F0426F9E700BF219401081B
:10157000149401082DE9F04F90F82B5089B00446DF
:1015800015F0A00540F08E800668F26832F815303C
:10159000002B66D104F120070C2205A83946FFF77D
:1015A00017FB9DF81F30DB0740F1858040234FF08B
:1015B000010ADFF8348284F82B300B2205A9384663
:1015C000D6F80C90FFF704FBBAF1050F59D9A9F131
:1015D0000201534631F8022F002A44D10DF11300C5
:1015E000072203F00F0C013A0CF13001392988BFB2
:1015F0000CF137010F2B00F801194FEA131142D8F3
:1016000002F120037E216B4403F8141C39460023A9
:101610009A4205D011F8010B03F1010C202834D1B6
:1016200004F11F00072A03F1010397BF02F1200113
:1016300020210132694498BF11F8141C072BC154B2
:10164000F0D92046FFF7E6FE814670BB0AF1010A99
:10165000BAF1640FB1D14FF00709484609B0BDE8AF
:10166000F08F013592E7102002F0010C52080CEBCC
:10167000430313F4803F18BF83EA08030138F3D112
:10168000A8E75346AAE70B46ABE76346C0E78046A8
:1016900001212046FFF748FE814608B3B9F1040F47
:1016A000D9D0DAE74FF00609D7E70428D5D19DF85D
:1016B0001F3084F82B309DF81F3000212046D4F8CD
:1016C00000A09B0745BF0C350D230125B5FBF3F5A5
:1016D00048BF0135FFF7E7FD81460028DED180468F
:1016E000A1695046FFF7A9FA81460028D6D1E369DF
:1016F0001B78E52B01D0002BC9D108F10108454525
:10170000C6D1013D55D021692046A1EB4511FFF717
:10171000CAFD81460028A0D14FF6FF783846FFF772
:1017200011FA0190A1693046FFF787FA8146002837
:1017300093D1E369E9B2019A4FF00D0CD6F80CE0B1
:101740005A734FF00F02DFF8A4A0DA724A1E187322
:101750000CFB02F284469876D87640451AF8019B35
:101760000CF1010C18BF3EF8120003EB090B18BF77
:10177000013203F809004FEA1029002808BF40464B
:10178000BCF10D0F8BF80190E7D1404502D03EF837
:1017900012200AB941F040011970012300212046AE
:1017A000F370FFF7C1FD814600287FF456AF013D7D
:1017B000B8D1A1693046FFF740FA814600287FF48E
:1017C0004CAF01462022E069FFF78EF90B22394623
:1017D000E069FFF7FDF994F82B30E26903F0180394
:1017E00013730123F37038E72110010014940108EA
:1017F0002DE9F74F0646D0F800B0894611F8013BB5
:101800002F2BFAD05C2BF8D00021B16099F8003072
:101810001F2B00F2AF808023304686F82B3003B0B8
:10182000BDE8F04FFFF73FBD0134B6E0B4F5807F6F
:1018300000930CD0012100F03DFB40B17F28009BBC
:1018400007D87F4911F8012B1AB19042FAD106202E
:101850004DE0274628F8020F95E035F81730202B89
:1018600002D02E2B40F0A980013FA3E00131B0E06F
:10187000434505D2BA4249D1B8F10B0F3FD102E03E
:10188000B8F10B0F36D144F003044FF00B0896F873
:101890002030E52B04BF052386F82030B8F1080F6F
:1018A00004BFAD00EDB205F00C030C2B03D005F026
:1018B0000302032A01D144F00204A10709D405F070
:1018C0000305012D08BF44F01004042B08BF44F0A9
:1018D0000804304686F82B40FFF79CFD96F82B3025
:1018E000C0B3042803D113F0040F08BF052003B0D0
:1018F000BDE8F08FBA4202D044F00304C7D8AD006F
:101900003A464FF00B080823EDB287E07F280ED946
:10191000002144F00204CDE9002300F0CBFADDE918
:10192000002360B14749084410F8800C38B1DFF853
:1019300018C11CF8011B002974D08142F9D144F070
:1019400003045F20F118013381F8200066E045F0C0
:101950000205F7E75A07CAD4B379DB0660D53169C7
:101960000BF134039BF80000C1F308011944FFF7A1
:10197000ACFBB06033680027D3F80CA009F1FF334B
:10198000AAF10205A84613F8010F7C1C1F280CD9E8
:101990002F2802D05C287FF449AF19F804302F2B90
:1019A0003FF442AF5C2B3FF43FAF2028A14434BF4B
:1019B00004240024002F7FF450AF00232AF81730AE
:1019C000002F3FF444AF20210B227018FFF78CF852
:1019D00019463AF81130202B3FF448AF2E2B3FF434
:1019E00045AF09B144F0030435F817302E2B01D070
:1019F000013FF9D100234FF008081D463AF81100C5
:101A00004A1C00283FF443AF202805D02E287FF43D
:101A10002FAFBA423FF430AF44F003041146EDE774
:101A2000052064E7A0F14101192990D9A0F16101D5
:101A300019299EBF203845F0010580B282E700BF1A
:101A400084930108949301088D9301081FB5CDE993
:101A5000001003A814460391FFF783F8031E15DB5B
:101A60000C4A52F8231009B100200870019808B1FF
:101A70000021017042F8230030B1012C08D100226E
:101A800001A96846FFF72CF904B010BD0B20FBE755
:101A90000020F9E7440600242DE9F04190B01746F4
:101AA00004460191002800F0D48002F03F0603A90B
:101AB00001A83246FFF714F9054600284FD1039BD1
:101AC00004A801990493FFF793FE20B99DF93B30D8
:101AD000002BB8BF062017F01C0F00F09A800028DA
:101AE00044D004283BD104A8FFF744FD002836D198
:101AF00046F0080606F0FAFC0146009020220B98FA
:101B00000E30FEF7E9FF0B9800991630FEF7E4FF60
:101B10000B9BDDF80C80DA720B9998F80000FFF748
:101B2000D4FA002207464046FFF700F80B9B00223C
:101B300001211A775A779A77DA77039BD970F7B130
:101B4000394604A8D3F83080FFF71DFB38B9414669
:101B50000398FFF772F8013F039B1F6178B10023E0
:101B600005462360284610B0BDE8F0819DF8163088
:101B700013F0110F57D1780765D43907BAD4039FF2
:101B800031070B993B6B48BF46F040066162236208
:101B90003878FFF79AFAA06001F11C000021FEF7E7
:101BA00099FFFB88276004F12C074FF40072E06076
:101BB000A1623846A38026746174E1616161FEF719
:101BC00093FFB206CED5D4F80C80B8F1000FC9D07F
:101BD000039BA1685E89C4F814807602464524D32D
:101BE0000020A1610028BAD1C8F30803002BB9D0A6
:101BF000039E3046FEF77EFF48B300EB58220123D8
:101C00003946E2617078FEF73BFF0028AAD0012038
:101C1000A5E70028A3D19DF81630DA0615D4BF0732
:101C2000ADD5D807ABD5072099E72068A8EB060803
:101C3000FFF753FA0128014603D9431CCED10120F6
:101C4000CFE70220CDE7082089E7042087E70220BC
:101C500085E7092586E72DE9F04F87B016468946C6
:101C6000044601930023019A05A91360FEF796FF2D
:101C7000054618BB657C0DBB237C13F00103029362
:101C800000F09980E26804F12C0A6369D21A964246
:101C900028BF164696B16169C1F30803002B7CD1B9
:101CA000059BB3F80A8008F1FF3818EA51281BD1C8
:101CB00041B9A068012810D802256574284607B0EC
:101CC000BDE8F08FA36A1BB12046FEF71EFFF1E7C7
:101CD000A1692068FFF701FAECE7431C03D1012357
:101CE000029D6374EAE7A061DDF814B0A16958466B
:101CF000FEF700FF0028DFD0B6F5007F08EB0007F5
:101D00002ED3BBF80A2008EB5621730A9BF801007A
:101D10009142494688BFA2EB08033A460393FEF777
:101D2000AFFE0028DBD194F91020039B002A0BDAC8
:101D3000E069C01B984207D24FF40072514609EB8C
:101D40004020FEF745FF039B5F026369B944019A97
:101D5000F61B3B446361019B1B683B44136099E79E
:101D6000E269BA4218D094F91030002B0BDA012343
:101D700051469BF80100FEF791FE0028AFD1237C6D
:101D800003F07F032374059801233A4651464078B7
:101D9000FEF776FE0028A2D1E76161694846C1F3EB
:101DA0000801C1F500775144B74228BF37463A468B
:101DB000FEF70EFFC9E7072580E7F7B501A905463D
:101DC000FEF7ECFE044600283BD12B7C13F04004C8
:101DD00037D01B060CD501980123EA6905F12C01C7
:101DE0004078FEF75BFE78BB2B7C03F07F032B74FF
:101DF00006F07CFB296A07460198FEF71EFF0446A1
:101E0000F8B96E6AF37A314643F02003F372AA6898
:101E10002868FEF78BFEE96806F11C00FEF75CFE01
:101E2000394606F11600FEF757FE01230198B474F7
:101E3000F474C370FFF7FEF82B7C044623F04003D4
:101E40002B74204603B0F0BD0124FAE713B5044615
:101E5000FFF7B3FF28B901A92046FEF79FFE00B99E
:101E6000206002B010BD00000F4B30B59C7B012CF0
:101E700017D89D7B0024EDB25C559D7B03EB850557
:101E80006860987B184402739A7B501C3032C0B251
:101E900098733A2320460A704B702F23CC708B70B6
:101EA00030BD0120FCE700BF500800240022FFF7EE
:101EB000DBBF00007F2810B506D931B1FF2812D84A
:101EC00080380A4B33F8100010BD084A32F8024B34
:101ED0008BB2844203D001318029F7D10B4603F144
:101EE0008000C0B2F0E70020EEE700BF22940108B6
:101EF0001E4B1F4AB0F5805F28BF134670B5191DF1
:101F000031F8043C0A46ABB1984213D331F8024C85
:101F1000250AE6B253FA84F4A04221DA082D09D842
:101F2000DFE805F005090F11131517191B00C01A7A
:101F300031F8100070BDC31A03F00103C01A80B25B
:101F4000F8E71038FBE72038F9E73038F7E71A38B8
:101F5000F5E70830F3E75038F1E7A0F5E350EEE796
:101F60000431002DCCD102EB4603C8E722950108CD
:101F700014970108704770477047704700F11403C9
:101F800000F214404A4203F8012B8342FAD1704711
:101F900038B5054600F59074AC4204D0183C204694
:101FA00015F066FBF8E7204638BD402070478020DA
:101FB000704710B5044640F2144115F05EFA204611
:101FC00010BD000000F1080373B504460D46036020
:101FD000D9B10846FEF7D4F90F2805EB00060190A9
:101FE00007D9002201A9204615F020FB019B2060A3
:101FF000A36032462946206815F0B0FB019B226899
:1020000000216360D15402B070BD014815F04BFA55
:10201000D097010800F1080373B503600446D1E9C5
:102020000053EE181DB916B10C4815F03CFA0F2BF1
:10203000019307D9002201A9204615F0F7FA019B68
:102040002060A36032462946206815F082FB019B80
:10205000226800216360D15402B070BDD09701089E
:10206000F8B50B460C460546006853F8081B626835
:1020700099420CD10AB115F029FB636800212A6846
:102080006B60D1540023226863601370F8BD05F1C2
:102090000807B842C5E9001208BF0020A26818BFAF
:1020A000AE68AA6010B12060A660EBE72360E9E7A4
:1020B0001FB5044608460391FEF762F9039B002111
:1020C00062680090204615F0D5FB04B010BD10B535
:1020D0000446006818B1A168091A15F0CEF9204627
:1020E00010BD0B4600F1080270B5026053F8084BB2
:1020F0009C420FD11C4601F1180554F8046BAC4208
:1021000042F8046BF9D14A680B60002342604B60CF
:102110000B7270BD8A6804608260F4E7036870B572
:102120000E46DB68044615469847B04205D823683A
:102130002046DB689847013886B223682046A6808F
:102140009B689847A84205D8236820469B68984713
:10215000013885B2E58070BD13B504468DF80710CF
:102160000830002103F0E6FA642301220DF1070193
:10217000204605F0CFF902B010BD00002DE9F04176
:10218000464990B006464648FFF792FF00230322D7
:102190000125B36001A943488DF80C30DFF8308188
:1021A000C6E90033CDE9012504F0A6FA29463E48E8
:1021B00006F078F92A463D493D48FFF747FC2A4694
:1021C0003C493D48FFF768FC88F80000002860D1D2
:1021D0003A4F40F6FF723A493B463748FFF73BFD1E
:1021E000044688F8000098B93B683549C8540AA8E5
:1021F000FFF7E8FE2A480AA915F0B5FA0AA815F073
:1022000037FA2D48FFF722FE304610B0BDE8F081C6
:10221000092803D9642834BF0225032506AB2D22E3
:10222000294604A8049315F07AFA049A1544632CFD
:1022300010D96423B4FBF3F103FB11430C4621498D
:1022400001EB430011F81330407805F8010C05F854
:10225000023DECE7092C04A889BF1A4B303403EB8C
:10226000440113F8143091BF147049781370517001
:102270000021154A15F094FB01460AA8FFF731FF2B
:1022800001460748FFF7ECFE0AA815F0F1F904A88B
:10229000B5E70E490248FFF70BFFB5E7FA970108CB
:1022A00060080024E8B60024881C0024089801086F
:1022B0008C1C00240A980108501A0024080A0024E3
:1022C0000C0A0024AC9D01081B98010828980108FD
:1022D000841C002484B070B505AC0646054684E82D
:1022E0000E0000F12403C3610023036280F8243050
:1022F0000FCC0FC594E8070085E807000DAD0C99D9
:1023000006F11C0006F1340415F02DFA0FCD0FC4B0
:102310000FCD0FC495E80F0084E80F003046BDE8EC
:10232000704004B070470000DC48DD4A00F51043FF
:10233000DC492DE9F04F0027DFF8D083ADB0DA4D4E
:10234000C3F89C71C3F8B871076047610762C0F8B1
:10235000F470D64CD64EDFF8B8A3C3E96827D54A47
:10236000D146C3E96A12D44AD449C3F8B0214246DF
:1023700015F07EF8D2484246D249076047610762AD
:1023800015F076F84246D049D04815F071F8294644
:10239000CF48FFF717FE42462146CD4815F068F8B2
:1023A000CC48CD49FFF70EFE42462146C94815F0FC
:1023B0005FF82946C9483546FFF704FE42462146E4
:1023C000C64815F055F819AC0FCD0FC495E80700B5
:1023D00084E8070013A8C249FFF7F4FD20AC20AD44
:1023E000B9E80F000FC4B9E80F000FC499E80F0057
:1023F00084E80F00642005AC15F041F883460FCD4A
:102400000FC40FCD0FC495E80F0084E80F001CAC7B
:1024100013AB19AD049394E80F008DE80F0095E815
:102420000E005846FFF756FFAE4B13A8C3F800B096
:1024300015F01EF906F11C0EAC46BEE80F00ACE824
:102440000F009EE807008CE8070013A8A649FFF7D5
:10245000B9FDDFF8C0E20DF1800CBEE80F00ACE87A
:102460000F00BEE80F00ACE80F009EE80F008CE8FC
:102470000F00642015F003F80DF1800E83460DF176
:10248000140CBEE80F00ACE80F00BEE80F00ACE88B
:102490000F009EE80F008CE80F0013A9049194E848
:1024A0000F008DE80F0095E80E005846FFF712FF69
:1024B0008E4913A8C1F800B015F0DAF806F1380E0D
:1024C000AC46DFF854B2BEE80F00ACE80F009EE85F
:1024D00007008CE8070013A88549FFF773FD0DF18D
:1024E000800CBAE80F00ACE80F00BAE80F00ACE8C7
:1024F0000F0099E80F008CE80F006420DFF81CA2A1
:1025000014F0BDFF0DF1800E81460DF1140CBEE8F4
:102510000F00ACE80F00BEE80F00ACE80F009EE82B
:102520000F008CE80F0013A8049094E80F008DE8CA
:102530000F0095E80E004846FFF7CCFE0DF14C0C5D
:102540006C48C0F80090604615F092F806F1540E01
:10255000AC46BEE80F00ACE80F009EE807008CE830
:1025600007000DF14C0C64496046FFF72BFDDFF8C6
:10257000B0E10DF1800CBEE80F00ACE80F00BEE842
:102580000F00ACE80F009EE80F008CE80F006420FD
:1025900014F075FF0DF1800E81460DF1140CBEE8AC
:1025A0000F00ACE80F00BEE80F00ACE80F009EE89B
:1025B0000F008CE80F0013AB049394E80F008DE834
:1025C0000F0095E80E004846FFF784FE0DF14C0C15
:1025D0004A4B6046C3F8009015F04AF806F1700EB9
:1025E000AC46BEE80F00ACE80F009EE807008CE8A0
:1025F00007000DF14C0C42496046FFF7E3FCDFF8A1
:1026000024E10DF1800CBEE80F00ACE80F00BEE83D
:102610000F00ACE80F009EE80F008CE80F0064206C
:1026200014F02DFF0DF1800E81460DF1140CBEE863
:102630000F00ACE80F00BEE80F00ACE80F009EE80A
:102640000F008CE80F0013AB049394E80F008DE8A3
:102650000F0095E80E004846FFF73CFE0DF14C0CCC
:10266000284B6046C3F8009015F002F806F18C0E76
:10267000AC46BEE80F00ACE80F009EE807008CE80F
:1026800007000DF14C0C20496046FFF79BFCDFF87A
:1026900098E00DF1800CBEE80F0047E01421002403
:1026A0000107010680707FF052AB01082B7801080A
:1026B000D89101080FF80700789D0108791F0008DC
:1026C000C8090024771F0008751F0008E8B6002419
:1026D00078080024B0090024389801086008002414
:1026E0003A980108082100243F980108102100248D
:1026F0004798010804210024449801080C21002473
:102700003D980108481A0024499801080000002457
:10271000F4000024040000244C1A00247C1C002433
:10272000C40000241402002424010024ACE80F009B
:10273000BEE80F00ACE80F009EE80F008CE80F0029
:10274000642014F09CFE0DF1800E81460DF1140CF6
:10275000BEE80F00ACE80F00BEE80F00ACE80F00C9
:102760009EE80F008CE80F0013A9049194E80F0075
:102770008DE80F0095E80E004846FFF7ABFD0DF120
:102780004C0CEF496046C1F8009014F071FF06F15F
:10279000A80EAC46BEE80F00ACE80F009EE80700AC
:1027A0008CE807000DF14C0CE6496046FFF70AFC87
:1027B000DFF8BCE30DF1800CBEE80F00ACE80F00C1
:1027C000BEE80F00ACE80F009EE80F008CE80F0099
:1027D000642014F054FE0DF1800E81460DF1140CAE
:1027E000BEE80F00ACE80F00BEE80F00ACE80F0039
:1027F0009EE80F008CE80F0013A8049094E80F00E7
:102800008DE80F0095E80E004846FFF763FD0DF1D7
:102810004C0CCD48C0F80090604614F029FF06F13A
:10282000C40EAC46BEE80F00ACE80F009EE80700FF
:102830008CE807000DF14C0CC4496046FFF7C2FB61
:10284000DFF830E30DF1800CBEE80F00ACE80F00BC
:10285000BEE80F00ACE80F009EE80F008CE80F0008
:10286000642014F00CFE0DF1800E81460DF1140C65
:10287000BEE80F00ACE80F00BEE80F00ACE80F00A8
:102880009EE80F008CE80F0013AB049394E80F0050
:102890008DE80F0095E80E004846FFF71BFD0DF18F
:1028A0004C0CAB4B6046C3F8009014F0E1FE06F10F
:1028B000E00EAC46BEE80F00ACE80F009EE8070053
:1028C0008CE807000DF14C0CA2496046FFF77AFB3B
:1028D000DFF8A4E20DF1800CBEE80F00ACE80F00B9
:1028E000BEE80F00ACE80F009EE80F008CE80F0078
:1028F000642014F0C4FD0DF1800E81460DF1140C1E
:10290000BEE80F00ACE80F00BEE80F00ACE80F0017
:102910009EE80F008CE80F0013AB049394E80F00BF
:102920008DE80F0095E80E004846FFF7D3FC0DF147
:102930004C0C894B6046C3F8009014F099FE06F1E8
:10294000FC0EAC46BEE80F00ACE80F009EE80700A6
:102950008CE807000DF14C0C80496046FFF732FB14
:10296000DFF818E20DF1800CBEE80F00ACE80F00B4
:10297000BEE80F00ACE80F009EE80F008CE80F00E7
:10298000642014F07CFD0DF1800E81460DF1140CD5
:10299000BEE80F00ACE80F00BEE80F00ACE80F0087
:1029A0009EE80F008CE80F0013A9049194E80F0033
:1029B0008DE80F0095E80E004846FFF78BFC0DF1FF
:1029C0004C0C67496046C1F8009014F051FE06F5C2
:1029D0008C7EAC46BEE80F00ACE80F009EE8070016
:1029E0008CE807000DF14C0C5E496046FFF7EAFAEF
:1029F000DFF88CE10DF1800CBEE80F00ACE80F00B1
:102A0000BEE80F00ACE80F009EE80F008CE80F0056
:102A1000642014F034FD0DF1800E81460DF1140C8C
:102A2000BEE80F00ACE80F00BEE80F00ACE80F00F6
:102A30009EE80F008CE80F0013A8049094E80F00A4
:102A40008DE80F0095E80E004846FFF743FC0DF1B6
:102A50004C0CCBF80090604614F00AFE06F59A7E06
:102A6000AC4606F5A876BEE80F00ACE80F009EE87D
:102A700007008CE807000DF14C0C3B496046FFF75E
:102A8000A1FADFF800E10DF1800CBEE80F00ACE820
:102A90000F00BEE80F00ACE80F009EE80F008CE8C6
:102AA0000F00642014F0EBFC0DF1800E81460DF157
:102AB000140CBEE80F00ACE80F00BEE80F00ACE855
:102AC0000F009EE80F008CE80F0013A8049094E814
:102AD0000F008DE80F0095E80E004846FFF7FAFB5F
:102AE0000DF14C0CCAF80090604614F0C1FDAC46E4
:102AF0000FCEACE80F0096E8070013AE8CE8070095
:102B000030461A49FFF75EFADFF87CC020AEBCE819
:102B10000F000FC6BCE80F000FC69CE80F0086E848
:102B20000F00642014F0ABFC0DF1800E06460DF191
:102B3000140CBEE80F00ACE80F00BEE80F0025E063
:102B4000002100244D980108441A002452980108DD
:102B5000801C002456980108F4B600245A980108F5
:102B6000F0B600245D980108629801086798010892
:102B700094000024E4010024340000248401002493
:102B800054010024B401002464000024ACE80F00C8
:102B90009EE80F008CE80F0013A8049094E80F0043
:102BA00013AC8DE80F0095E80E0030463C4DFFF762
:102BB00091FB20463B4C2E6014F05AFD20463A49CA
:102BC000FFF700FA04F118003849FFF7FBF904F1A8
:102BD00030003749FFF7F6F904F148003549FFF7AF
:102BE000F1F904F160003449FFF7ECF904F17800E1
:102BF0003249FFF7E7F904F190003149FFF7E2F9B4
:102C000004F1A8002F49FFF7DDF904F1C0002E49B7
:102C1000FFF7D8F904F1D8002C49FFF7D3F904F1F4
:102C2000F0002B49FFF7CEF904F584702949FFF72E
:102C3000C9F942462849204614F01AFC274A284B75
:102C40001268284928481A600A6828495A600268A8
:102C500027489A60274A1268DA60274A12681A6180
:102C60000A6826495A61026825489A61254A8760A0
:102C70001268DA61244A12681A620A6823495A62A1
:102C8000DBF800209A62DAF80020DA622A681A6318
:102C90004246C0E900772DB0BDE8F04F14F0E8BB24
:102CA000040A0024900800246B9801086D9801081C
:102CB000709801087298010875980108D4AC010851
:102CC00077980108C3AC01087A9801087D9801083B
:102CD0007F98010882980108911F000808210024AC
:102CE0000C1A0024102100240421002400210024B7
:102CF000441A00240C210024481A0024F0B60024B1
:102D0000F8B60024801C0024F4B60024CF2000086C
:102D100030B5039DB7EE007AD1ED006A95ED006AFB
:102D2000BBFE665AF0EE474A37EE466AD2ED005ACD
:102D300076EEC56A0022F3EC017AF4EEC67AF1EE83
:102D400010FA1CDB07EE902AB2EE084AF8EEE73ADA
:102D5000C3EE847A77EEA57AF4EEE47AF1EE10FA17
:102D6000C8BF77EEE47A77EEE67AF0EEE77AF4EE33
:102D7000C77AF1EE10FA44BFB0EE677A144601321A
:102D80000C2AD8D107EE904AB2EE087A4460F8EEE9
:102D9000E76AC6EE877A77EE857A77EEA57AC0ED98
:102DA000007A30BD70B50D46044600220D49284614
:102DB00014F040FE431C064605D10B492046FFF7A0
:102DC00001F9204670BD4FF0FF320649284614F045
:102DD00057FEC6F10103324629460344204614F04B
:102DE000A5FEEEE78498010852AB0108044808B537
:102DF00000F0A4FE0248BDE8084000F0B9BE00BFE4
:102E000014210024426808B54B689A4208D14AB19F
:102E10000968006815F002F9B0FA80F0400908BDB1
:102E20000020FCE70120FAE72DE9F0437B487C4DC8
:102E30007C4E7D4C2DED028BB9B001F0ABFE80B124
:102E400032682B6853F822102268D1E9001301324E
:102E50005B1A7649DB104B4392FBF3F103FB112322
:102E60002360734801F096FE08B1002323603268A6
:102E700018212B6813A86F4E53F8223022680024C3
:102E80001B683746254601FB0231FFF7C3F86A4944
:102E900019A8FFF797F869491FA8FFF793F8139946
:102EA0000AA815F02FFA66490AA815F033FA014668
:102EB0000DA815F027FA6249002015F02BFA0146FB
:102EC00010A815F01FFA0DA919A8FFF7F1F810A91D
:102ED0001FA8FFF7EDF8314619A8FFF793FF002868
:102EE00018BF2546013418360C2CF4D1554B00265A
:102EF000DFF868911C6859F8048B01361FA908F1A6
:102F00001C00FFF77FFF002818BF44460E2EF2D1A9
:102F100007EE905A231F25AA04F11801B8EEE77AAC
:102F2000F2EE087AC7EE275ACDED025A93ED016A08
:102F3000B2EE084B0433B8EEC66A9942B7EEC66AE1
:102F400086EE047BB7EEE56A37EE067BB7EEC77B0D
:102F5000A2EC017AEAD118212CA89FED3B8A01FB53
:102F600005712CADFFF756F82CA8D4E9071214F020
:102F700027FD34342CA93548FFF772F82CA814F03B
:102F800077FB0FCC0FC50FCC0FC594E80F0085E879
:102F90000F002F4B00212F4808AC0393002304930C
:102FA00000F0E0FD4FF07C5302AA05A906A80893A3
:102FB0002CAB00948DED050AFFF7AAFE03AB02AA25
:102FC00004A9204600932CABFFF7A2FE9DED067AE4
:102FD0000021214827EE087ABCEEC77A17EE103A96
:102FE0009AB202F085FADDED257A01211A4867EEE2
:102FF000887AFCEEE77A17EE903A9AB202F078FA05
:103000001FA814F035FB19A814F032FB13A814F014
:103010002FFB39B0BDEC028BBDE8F083F821002412
:10302000F8B60024ECB60024E4B60024ABAAAAAAA1
:10303000FF210024900800246B9801083A980108A9
:10304000609D010808210024CDCC4C447808002460
:103050006666063F14210024342100240C1A002443
:103060002DE9F84FD0E9008993466FF06043A9EB52
:10307000080207468A46B3EBA20F4FEAA20402D128
:103080001E4814F013FA012C2246A1EB080538BFA4
:103090000122A4182ED27CB39C4228BF1C46A0005B
:1030A00014F0EDF90646DBF80030002D735104DD15
:1030B0002A464146304614F0CFFFA9EB0A090435F1
:1030C000B9F1000F354404DD4A465146284614F054
:1030D000B5FF4D44B8F1000F05D0B9684046A1EBEB
:1030E000080114F0CAF906EB8404C7E90065BC6066
:1030F000BDE8F88F1C46D2E72646D4E78B98010836
:1031000070B5044600F10C06B02529462046FFF7AD
:1031100023F8013500212046FFF71EF81021204634
:10312000EDB2FFF719F8012104F1080002F002FBEB
:103130003146642380222046803604F0EBF9B82D16
:10314000E3D170BD083008B5FFF7DAFF08BD000015
:103150002DE9F74FD0E9008A2A4C8946AAEB0803EB
:103160001146294A0746DB106343934202D12748A0
:1031700014F09CF9012B1C46A9EB080538BF01246B
:10318000E4181CD2ECB1944228BF144618200191D7
:10319000604314F074F90199064670194546FEF72C
:1031A000A0FF3046A94500F1180B0CD02946FEF7C8
:1031B00098FF284614F05CFA18355846F2E7144692
:1031C000E4E72646E9E755450AD029465846FEF782
:1031D00088FF28460BF1180B183514F049FAF2E76E
:1031E000B8F1000F05D0B9684046A1EB080114F012
:1031F00044F9182000FB0464C7E9006BBC6003B00D
:10320000BDE8F08FABAAAAAA555555058B980108C1
:1032100038B5D0E9013504460A46AB4206D0184617
:10322000FEF75FFF63681833636038BD1946FFF728
:103230008FFFFAE7F0B5D1E900678FB000240546AB
:10324000374404AA84608DF81040C0E90044CDE9F9
:103250000224BE4223D016F8011B7C2912D1039C04
:10326000002CF6D002A908A8FFF79CFD08A9284663
:103270000024FFF7CDFF08A814F0FAF9029A03948E
:103280001470E6E70846019114F0B0FE019908B108
:10329000002CDED002A8012414F0CDFAD9E7039B5C
:1032A00053B102A908A8FFF77DFD284608A9FFF73A
:1032B000AFFF08A814F0DCF902A814F0D9F92846E9
:1032C0000FB0F0BD7F2910B510D83F2A0ED8D40812
:1032D00002F0070201EBC4110124084404FA02F2CF
:1032E00090F90C1052B213B11143017310BD21EAD1
:1032F0000201FAE7083008B5FFF7E4FF08BD2DE941
:10330000F04F0E4685B0044604A9A6F120059DF8AD
:1033100038B001E90C00EBB25E2B04D90026304630
:1033200005B0BDE8F08F03689DF80870DB689DF874
:1033300009A09847A3883B449842EFDB23682046C6
:103340009B689847E38853449842E7DB0AFB05F5FE
:103350004FF000096D00CA451DD9039B4FF00008CE
:103360005B5B01934745A188E28810D9019B4144EA
:103370004A4404F1080003FA08F308F101081B04A9
:103380004CBF5B468BF00103FFF79CFFEAE709F1B6
:1033900001090235DFE7A1882046E288394489B275
:1033A000FEF7BCFEBBE7F0B585B006464C1E02AD8D
:1033B0009DF8287085E80C0014F8011F41B10097B2
:1033C000304695E80C00FFF79AFF21788842F3D049
:1033D000084605B0F0BD000030B5124C89B04FF47E
:1033E00080620021204614F051FE02A80E49FEF72B
:1033F00011FE0022A4F11400029D1146FEF78EFE7C
:1034000001220A4B29460092A4F114000CCBFFF7CD
:10341000CAFFA4F10C00FFF773FE02A814F028F90C
:1034200009B030BDD8B2002460080024B4050024DF
:1034300080B58AB00021644800F022FE06AB01ADE1
:1034400062490493002304A805938DF81830FEF711
:103450002FFE2846FEF792FEDDE90146A64204D083
:103460002046183414F004F9F8E7019818B10399CC
:10347000091A14F002F8242014F001F8002300F1D6
:1034800014025349836003750090C0E90033C0E91A
:1034900003230C30FEF70CFE04A92846FFF7CAFEF2
:1034A000009CAC4236D0D4F80080A368DDE9015915
:1034B000A3EB0803A9EB0507BB423ED29FB1454BE6
:1034C0009F4201D913F0ECFF384613F0D8FF0646AF
:1034D000B046A94509D029464046183508F11808D4
:1034E000FEF798FDF5E73E46F2E7D4E90058A84517
:1034F00004D02846183514F0BBF8F8E7206818B156
:10350000A168091A13F0B9FF26603E44A66023683B
:103510003B4463603048D0E9011399424FD0009B8F
:1035200041F8043B4160284800F004FBFFF75EFCD3
:10353000FFF752FFFFF778FCF8E763682748A3EB33
:1035400008039F421ED8FE10C2464643B146B9F159
:10355000000F09DD2946504618350AF1180A09F10D
:10356000FF3914F000F9F2E726EAE6761825D4F8D8
:10357000049005FB0685A945C9D02846183514F0E6
:1035800077F8F8E7DE104643002E08DD294640466E
:10359000183508F11808013E14F0E5F8F4E7D4E90D
:1035A0000056DDF80880711B019D0D44A845AED082
:1035B0002946304618351836FEF72CFDF6E76A46E0
:1035C000FFF74EFDAFE700BF14210024A5980108C6
:1035D000629D0108F8FFFF7FF8B60024ABAAAAAAF3
:1035E0002DE9F043914685B00446984608464B467F
:1035F000DDE90C52A3EB090C13F8011B0029F9D1EA
:1036000098F8006098F8011016FB0CF60F4636B2D9
:1036100026EAE676082A76D8DFE802F06B05270B63
:1036200035453C536100B5F90020B5F902302280E0
:1036300053E02B88A988B5F902200B4462809B1BBC
:103640002380A680E780628821880390FEF766FDCC
:103650009DF8383049460398009398E80C00FFF72E
:10366000A2FE204605B0BDE8F083B5F90430B5F9F7
:10367000021003EBD3722B88618003EB6203A3EB90
:1036800066032380DDE76B88B5F90020ED882B44C5
:103690005B1ACCE76B88EA8813445B1A2A88A988EE
:1036A0000A44921BC3E76B88EA8813445B1AB5F996
:1036B000042002EBD2712A8802EB6102A2EB6602BF
:1036C000B5E7B5F90630B5F9001003EBD3726B8896
:1036D000218003EB6203A3EB57036380B1E7B5F9E5
:1036E000063003EBD3726B8803EB6203A3EB510349
:1036F000D4E7B5F9063003EBD3726B8803EB6203B2
:10370000A3EB5103D3E7002323806380A380E380EE
:1037100099E70000000000002DE9F04F2DED068B29
:1037200087B01C4603929DF86030DDE916289FEDB6
:10373000B64BB8F1000F0493BCBF4244C8F1000877
:1037400007EE902A02EB0803B8EEE76B07EE103A9B
:103750009FEDAF5B26EE046BB8EEC77BCDE90101B0
:1037600086EE050B27EE047BF7EEC08B87EE050B8C
:10377000F7EEC09BB0EE680A14F0F6F907EE904A37
:10378000B8EE67AA2AEE008AB0EE680A14F0E8FAEA
:1037900060EE4A8AB0EE690A14F0E6F92AEE009A61
:1037A000B0EE690A14F0DCFA20EE4AAA39EE487A43
:1037B000049B7AEE687A67EEA77AE7EE077AB0EEB6
:1037C000007AF4EEC77AF1EE10FA08D5B8F1B40F2A
:1037D00000F3CA8007B0BDEC068BBDE8F08F002275
:1037E00001276542C4F101040026BB46BA466400C5
:1037F000B9460492049A002A6ED107EE906A72428A
:10380000B8F1B40FF8EEE76A07EE905AB8EEE77A2F
:1038100007EE902AC5F1000266EE884AF8EEE77AD4
:1038200006EE102A27EE285A66EE896AB8EEC66AB6
:1038300067EE885A27EE0A7A66EE283A67EE897AAA
:1038400026EE0A6A34EEE34A74EEC54A35EEC55AEE
:10385000B5EEC04A75EEE35A40F39180F1EE10FAEE
:1038600000F1848036EEC64AB5EEC04AF1EE10FA99
:10387000CCBF4FF001094FF00009F5EEC04AF1EE60
:1038800010FA76D476EEC76AF5EEC06AF1EE10FA59
:10389000CCBF4FF0010A4FF0000AB5EEC05AF1EE6E
:1038A00010FA69D437EEC77AB5EEC07AF1EE10FAA5
:1038B000CCBF4FF0010B4FF0000BF5EEC05AF1EE0C
:1038C00010FA00F19B8077EEC67AF5EEC07AF1EE41
:1038D00010FACCBF01270027B9F1000F09D0039AD5
:1038E00002990198B218491B05930830FFF7EAFCCA
:1038F000059BBAF1000F09D0039A02990198B218FA
:10390000691805930830FFF7DDFC059BBBF1000F3C
:1039100009D0039A02990198921B691805930830FF
:10392000FFF7D0FC059B4FB1039A02990198921BB7
:10393000491B05930830FFF7C5FC059BA6425FDBDA
:10394000013604EB4602EE4202F1010202D1A54229
:1039500002DB0024A54255DA013502EB4502541C76
:10396000002D7FF747AF35E7012239E74FF0010916
:1039700083E74FF0010A90E74FF0010B9DE7F1EE6E
:1039800010FA32D536EEC64AB5EEC04AF1EE10FA5C
:10399000CCBF4FF001094FF00009F5EEC04AF1EE3F
:1039A00010FA25D576EEC76AF5EEC06AF1EE10FA88
:1039B000CCBF4FF0010A4FF0000AB5EEC05AF1EE4D
:1039C00010FA18D537EEC77AB5EEC07AF1EE10FAD4
:1039D000CCBF4FF0010B4FF0000BF5EEC05AF1EEEB
:1039E00010FA3FF570AF002776E7DDF81090D4E7C6
:1039F0004FF0000AE1E74FF0000BEEE701276BE71D
:103A00002246A7E71446ABE77A008BFCFA2109406F
:103A100000000000008066402DE9F04F1F4685B091
:103A200014460830DDF838A0A7EB01089DF83C30BB
:103A30000D46AAEB0209B8F1000F0393B8BFC8F115
:103A40000008B9F1000F0290B8BFC9F10009924512
:103A50008CBF01224FF0FF328F428CBF4FF0010B21
:103A60004FF0FF3B394601925246FFF72BFCA8EB83
:103A70000906DDE90203BD4201D1544516D02946AD
:103A8000224603930290FFF71DFCC9F1000172006A
:103A9000B1EB460FBCBFA6EB09065D449045DDE9DE
:103AA0000203E8DD019A46441444E4E705B0BDE8AA
:103AB000F08F2DE9F3479DF830C005460C461646B9
:103AC0001F46DDF828809DF82C90BCF1000F10D027
:103AD000A7422AD3B246D04509D352464B46214687
:103AE00005F108000AF1010AFFF7ECFBF3E70134E6
:103AF000EEE7CDE90029FFF78FFF3B463246394616
:103B00002846CDE90089FFF787FF2346424639461C
:103B10002846CDE90089FFF77FFF2346424621462C
:103B20002846CDE90069FFF777FF02B0BDE8F087CE
:103B3000FEF7FABB183001F07DBA00BF10B504469D
:103B4000643000F08BFF04F1840000F087FF04F183
:103B5000A40000F083FF04F1C400BDE8104000F0B1
:103B60007DBF00BF00EB411191ED1C0A704700BF03
:103B70003C3000F0C7BF00BF30B59DB0054600F037
:103B800011FC01285FD0334900220123CDF82A100F
:103B9000CDE9102300223049012303241B200F9379
:103BA00012930C94CDE9082140F20451CDE90D3275
:103BB000CDE91832CDE91A23ADF82810CDE9164326
:103BC00000F0F6FA03461820ADF84E3000F0F0FA97
:103BD00003461C20ADF84C3000F0EAFA03461920E9
:103BE000ADF8503000F0E4FA03461A20ADF8543036
:103BF00000F0DEFA0022002308A9ADF8520002A866
:103C0000CDE9022302F06CFC12A903A802F068FCC3
:103C10001D2000F0CDFAADF80400019800F0DAFBA9
:103C20004FF07E5230214FF07C5C079205F114007A
:103C3000049104A9039B029A0594CDF818C000F0E2
:103C40007DFE1DB030BD034A00231090CDF82A2020
:103C500011939FE70406040304020404F0B506462A
:103C60000F20002406F1180706F164052DED028BE4
:103C700099B09FED258A00F09BFA034607A8ADF89E
:103C80000C30039900F0E4FF102000F091FA034695
:103C90000DF12D00ADF81030049900F0D9FF15207A
:103CA00000F086FA03460DF13E00ADF81430059998
:103CB00000F0CEFF122000F07BFA03460DF14F001A
:103CC000ADF81830069900F0C3FF042307A9384661
:103CD0001A4600F0CBFFE1B2384601F0C1F90146C7
:103CE00001343046019100F079FA2846F0EE480A96
:103CF000002301220199203500F07EFE042CEAD138
:103D000019B0BDEC028BF0BD6F12033B0000000048
:103D10002DE9F04F8046A5B0092049F2B81400F013
:103D200047FA03461E200125ADF8303000F040FA76
:103D30004444002606950DF1380AADF832000DF125
:103D4000640CD64608F5104804F10409CAA3D3E967
:103D50000023CDE90866CDE9022300220023CDE946
:103D60000423082202230DEB020BA7180792CDE9CA
:103D70000A33BBE80F00AAE80F00BBE80F00AAE86F
:103D80000F009BE807008AE80700BEE80F00ACE8D8
:103D90000F00BEE80F00ACE80F009EE807008CE8BB
:103DA0000700BDF88C30384688F8C251A8F8C031F9
:103DB00001F0D6FBBDF88E30484688F8BE51A8F811
:103DC000BC3101F0CDFB19A9204603F01DFB3146A3
:103DD000484601F0AFFC0A2004F03CFC2946484666
:103DE00001F0A8FC0A2004F035FCAE233146384629
:103DF0008DF8073001F09EFC2A460DF1070164237F
:103E0000204603F087FBD523314638468DF807302E
:103E100001F090FC2A460DF107016423204603F0CF
:103E200079FB8023314638468DF8073001F082FC5B
:103E30002A460DF107016423204603F06BFBA823FB
:103E4000314638468DF8073001F074FC2A460DF1F2
:103E500007016423204603F05DFB3F2331463846CB
:103E60008DF8073001F066FC2A460DF10701642346
:103E7000204603F04FFBDA23314638468DF80730F1
:103E800001F058FC2A460DF107016423204603F097
:103E900041FB1223314638468DF8073001F04AFCC9
:103EA0002A460DF107016423204603F033FBD32398
:103EB000314638468DF8073001F03CFC2A46642331
:103EC0000DF10701204603F025FB314638468DF8F9
:103ED000076001F02FFC2A460DF1070164232046FC
:103EE00003F018FB4023314638468DF8073001F0C7
:103EF00021FC2A460DF107016423204603F00AFB4A
:103F0000A623314638468DF8073001F013FC2A46C7
:103F10000DF107016423204603F0FCFAA423314687
:103F200038468DF8073001F005FC2A460DF10701EF
:103F30006423204603F0EEFA8D23314638468DF88F
:103F4000073001F0F7FB2A460DF1070164232046F4
:103F500003F0E0FA1423314638468DF8073001F0BB
:103F6000E9FB2A460DF107016423204603F0D2FA4B
:103F7000A123314638468DF8073001F0DBFB2A4695
:103F80000DF107016423204603F0C4FAC82331462B
:103F900038468DF8073001F0CDFB2A460DF10701B8
:103FA0006423204603F0B6FA8123314638468DF863
:103FB000073001F0BFFB2A460DF1070164232046BC
:103FC00003F0A8FA8F23314638468DF8073001F008
:103FD000B1FB2A460DF107016423204603F09AFA4B
:103FE000D923314638468DF8073001F0A3FB2A4625
:103FF0000DF107016423204603F08CFA2523314696
:1040000038468DF8073001F095FB2A460DF107017F
:104010006423204603F07EFADB23314638468DF8D0
:10402000073001F087FB2A460DF107016423204683
:1040300003F070FA3423314638468DF8073001F02A
:1040400079FB2A460DF107016423204603F062FA4A
:10405000AF23314638468DF8073001F06BFB6423FF
:104060002A460DF10701204603F054FA25B0BDE8B9
:10407000F08F00BFAFF30080060B0B000105060AAE
:104080002DE9F04304468DB000250127019100F091
:104090008DF80199204600F00DF904F12009204621
:1040A0004FF00208FFF768FD2046FFF731FE05A933
:1040B000484604F51046CDE90875CDE9068501F0BE
:1040C00099F92A464146484601F012FA0C2000F0C0
:1040D0006FF8ADF810000B2000F06AF8ADF80C0096
:1040E000284600F065F89FED2F0A0499ADF8080006
:1040F00004F13C00DDE9023200F0D4FC112000F0B4
:1041000057F8A6F8C40549F2C450A6F8C67520446D
:1041100001F026FA142000F04BF83A4605A9ADF854
:10412000140004F1E40000F02BFD132000F040F82F
:104130003A4605A9ADF8140004F1EB0000F020FDAB
:104140002046FFF7E5FD47F6122349F2A41005A922
:104150000B93154B2044C6F89C51059303F17F4304
:10416000CDF8248003F5807307970A97C6F8A0312D
:104170000895069504F058F80A23C6F89051204691
:10418000C6F88C5184F8FC3084F8F850FFF766FDCF
:104190001123C6F8CC3504F05BFAC6F8C8050DB09B
:1041A000BDE8F0830000000001060107704700BF72
:1041B000202882B009D8084B03EB400213F81030D6
:1041C000507843EA002002B0704701230C2043EAF4
:1041D000002002B0704700BF789E010890ED0E0AE3
:1041E000704700BFF0B5032399B000270125129353
:1041F00006462C4B09A81595CDE90E7340F20453E1
:10420000ADF84030284BCDE91357099301F0A8F9D8
:1042100009A801F081FA002836D1244B04AF0446E6
:104220000090CDF842301023394604958DF82030A7
:104230001F4BCDE91650CDE906506846059301F0B5
:10424000F9FB0823009A01A909A8ADF804508DF8DC
:10425000064009940295039300F0FCF800230EA990
:1042600038463024049302F03BF903224FF07E538A
:1042700009A906F114000B930C93CDE90942049AA5
:1042800000F024FB19B0F0BD40F60132074B169741
:1042900004AFADF824200998CDF84230179500F00E
:1042A00099F8DBE704020404030300010406040395
:1042B0000704010B2DE9F04304462DED028B83B07A
:1042C000002948D0012140F2011200230091ADF8ED
:1042D00004208DF80630304A0126304B271D304926
:1042E00004F12908626040F20272A36040F606639E
:1042F000E16004F125092682A4F8252084F82760CE
:10430000A4F8293084F82B6004F014FB69460546B4
:1043100048B304F130008DF8066004F067FA072D09
:1043200034D104F114052046FFF75CFF284600F065
:104330004DFB2846B0EE408A00F044FBD0ED007AF9
:10434000F8EE677A88EE277A84ED0E7A03B0BDEC3A
:10435000028BBDE8F08340F2011300918DF8061046
:10436000ADF80430B7E704F1300004F03FFA394605
:10437000204601F0A9FD484601F0F2F8404601F060
:10438000EFF804F1120000F08FF9CAE73946204631
:1043900001F09AFDC5E700BF0508050905070506F8
:1043A000050A06060A4B4FF4807200B583B01B88DD
:1043B00001A8ADF80620ADF8043001F0D1F801A84D
:1043C00001F0AAF9B0FA80F0400903B05DF804FBEF
:1043D0004493010810B584B003460124ADF80400ED
:1043E00003A8ADF80C30ADF80E4001F0B9F8214645
:1043F00003A801F09FF9204604F02CF9002103A83E
:1044000001F098F9204604F025F9214603A801F0AF
:1044100091F904B010BD00BF10B5C2F3002384B001
:104420000C46017C8DF80D2043EA4402FA24022355
:104430008DF80C2003AA009401F092FB18B101241E
:10444000204604B010BD04460A2004F003F92046BB
:1044500004B010BD034670B543F8042B044684B085
:1044600007C983E80700A37983B91A210B461E22E6
:10447000FA2523742046ADF80C20022303AA0095E8
:1044800001F06EFB28B1012004B070BD1B210B466A
:10449000EDE70A2004F0DEF84FF4B852009502234D
:1044A000ADF80C20204603AA217C01F059FB00281E
:1044B000E9D10A2004F0CEF841F2027200950223FD
:1044C000ADF80C20204603AA217C01F049FB00280E
:1044D000D9D10A2004F0BEF8042200950223ADF8D9
:1044E0000C20204603AA217C01F03AFB0028CAD107
:1044F0000A2004F0AFF8062200950223ADF80C2044
:10450000204603AA217C01F02BFB0028BBD10A2006
:1045100004F0A0F841F2082200950223ADF80C2027
:10452000204603AA217C01F01BFB0028ABD10A2006
:10453000064604F08FF80095022303AA217C20464A
:10454000ADF80C6001F00CFB00289CD1304604F063
:1045500081F8009522790C232046002A8DF80C3032
:1045600003AA4FF0020314BF622142218DF80D10FF
:10457000217C01F0F5FA002885D1304604F06AF874
:104580002279D4E902310B43DBB20AB943F040038C
:1045900062790AB143F020030E22FA258DF80D301E
:1045A0002046009502238DF80C2003AA217C01F0FF
:1045B000D7FA00287FF467AF0A2004F04BF81022E6
:1045C00000950223ADF80C20204603AA217C01F0BF
:1045D000C7FA00287FF457AF0A2004F03BF81221F5
:1045E00000950223ADF80C1003AA217C204601F0AF
:1045F000B7FA00287FF447AF0A2004F02BF8012215
:1046000009212046FFF708FF003818BF01203BE7CB
:10461000F0B5102387B0234C012200250126002786
:1046200002A920460195CDE902234FF48052CDE93D
:1046300004670CF031F9642004F0F2FE02A94FF493
:1046400080522046CDE9046702261027CDE9026793
:104650000CF022F90322102302A92046CDE90223FF
:1046600000230422CDE904234FF480520CF014F906
:1046700040F23223042202A9019310232046CDE9FF
:104680000223019A012305924FF4805204930CF007
:1046900003F940F6060120460CF01EF9284607B043
:1046A000F0BD00BF0CB700241C4B00221C494FF08A
:1046B000400C30B5054689B00220596007219A6048
:1046C0001A620124DA620A224FF4006EDC6006925C
:1046D0002022CDE9000104200821CDE902010320B8
:1046E0001021CDE9040108206946C3E904024FF412
:1046F000C072181DC3E906C24FF48052C3E909E233
:104700000CF0A0F838B92846FFF782FF003818BF30
:10471000012009B030BD204609B030BD08B70024E3
:1047200040410052614A0021D0B513688EB00A9111
:10473000002B40F0B9805E4B01214FF683700C24B2
:1047400011600221D3F8D4200026032742F48052BE
:10475000C3F8D420D3F8D42002F480520092009AF7
:10476000D3F8E02042F01002C3F8E020D3F8E020B4
:1047700002F010020192019AD3F8E02042F04002C8
:10478000C3F8E020D3F8E02002F040020292029A3F
:10479000D3F8E02042F00802C3F8E020D3F8E0208C
:1047A00002F008020392039AD3F8E02042F48072E8
:1047B000C3F8E020D3F8E02002F480720492049A57
:1047C000D3F8E02042F08002C3F8E020D3F8E020E4
:1047D00002F080020592059AD3F8E02042F0200210
:1047E000C3F8E020D3F8E02002F020020692069AF7
:1047F000D3F8E02042F00402C3F8E020D3F8E03020
:104800000C9403F0040307930323079A0B93CDE959
:10481000080108A9274806F0B5FD48F2371202231F
:1048200008A925480C94CDE90823CDE90A6706F0CC
:10483000A9FD4CF20372022308A920480C94CDE98B
:104840000823CDE90A6706F09DFD40F2FF620223CE
:1048500008A91B480C94CDE90823CDE90A6706F0A6
:1048600091FD4FF60C72022308A916480C94CDE96D
:104870000823CDE90A6706F085FD4FF63F020223C3
:1048800008A911480C94CDE90823CDE90A6706F080
:1048900079FD2022022308A90A480C94CDE90A6771
:1048A000CDE9082306F06EFD0EB0D0BD04B700249C
:1048B000004402580010025800180258000C025818
:1048C00000200258001C02580014025830B5184C41
:1048D000154685B0046004F1080EEC460FC98EE859
:1048E0000F00D4ED047AF5EEC07A8CE80F00F1EEFB
:1048F00010FA1ADDB7EE006A94ED057A27EE277AF2
:10490000C6EE276A84ED0D7AC4ED0C6A6DB12046BF
:1049100040F8185F01F0DCFE064903690020064AF2
:104920002162A262E36005B030BD012005B030BD58
:1049300040B700240020003000000030F0B51C4CCF
:1049400016461F4689B0046004F10805EE460DF1D5
:10495000100C0FC985E80F00D4ED047AF5EEC07A8B
:104960008EE80F00F1EE10FA8CE80F0017DDB7EEBD
:10497000006A94ED057A27EE277AC6EE276A84ED61
:104980000D7AC4ED0C6A56B1204640F8186F01F05C
:104990009FFE08490369084A2162A262E360074A50
:1049A0000020074BE7616262E36209B0F0BD00BF1F
:1049B00040B70024002000300000003000300030FC
:1049C0000010003000680830704700BF00681830E1
:1049D00001F080BE10B4074B4FF07E51302400220E
:1049E000032019619C60D8605DF8044B5961C3E9EC
:1049F0000622704740B70024F6EE007A9FED166A53
:104A000020EE207A0160F7EE006A80ED036A80ED07
:104A1000020A27EE277AC6EE877AF4EEE67AF1EEFE
:104A200010FA11DDF0EE667A4FF07E514FF0000C77
:104A300002760022C0ED017AC0F814C0016143760D
:104A40008276C0ED070A7047F4EEC67AF1EE10FAEE
:104A5000EAD5F0EE467AE7E7000000000268037E40
:104A6000128807EE902AFBEEC87A1BB1B7EE007AE7
:104A700077EE677AD0ED056A90ED047A77EEE67A04
:104A8000437E67EE877A0BB1F1EE677A90ED030A09
:104A900090ED017A77EEC07AA7EE270A80ED030A3F
:104AA000704700BF30B585B004460025ADF80C1046
:104AB000ADF80820ADF8043003F0CAFDBDF80C20B5
:104AC0004FF48073206004F118002283BDF80820A1
:104AD0006383E383A283257100F042FD04F11C008F
:104AE00000F03EFD9FED060A019904F1080000F078
:104AF00067F84FF6FF736562238405B030BD00BFD1
:104B000000000000F8B5044603F0A2FD002623686B
:104B10002671834205D104F10800BDE8F84000F099
:104B200069B8012794F82050206004F11800BD40B6
:104B3000277100F0F1FD6DB2284394F82150BD407B
:104B400084F8200004F11C0000F0E6FD94F8203009
:104B50006DB2666203F003032843022BC0B284F8EF
:104B6000210009D000F003000228D4D1002BD2D1BB
:104B70004FF0FF336362CEE78307CCD16762CAE7A9
:104B800009884FF0000C8271C0F802C0018000F06B
:104B9000E7BC00BF10B583790446427902715BB16E
:104BA00000F0BAFDB0FA80F04009607118B12079C8
:104BB000B0FA80F0400910BD00F0AEFDF5E700BF8F
:104BC00070B5044682B0C1F30726CDB2ADF804102B
:104BD00003F03EFD4FF480724FF001232060A01DD2
:104BE000A571A280E671A36002B0BDE8704000F03C
:104BF000B7BC00BF38B5044603F02AFD0022236885
:104C00002271834210D00122A57AE37A9540206078
:104C10002271A01D6DB243B900F07EFD40B2284361
:104C2000C0B27F28A0720AD038BD00F075FDB0FA7E
:104C300080F040092843C0B27F28A072F4D103F06D
:104C400007FD07EE900AF8EE677AC4ED037A38BDE7
:104C500082B04FF0000C0323ADF80410BDF804201F
:104C600080F810C00280438002B070472DE9F04FF9
:104C7000BE4E00258FB0BE4C037006F1400342606B
:104C8000074601928846202229463046C4F858310A
:104C9000C4F85461CDE90355CDE90555CDE9075573
:104CA000CDE90955CDE90B5513F0F0F9202229463D
:104CB00004F59970C4F82151C4F82551C4F829515C
:104CC000C4F82D5113F0E2F9019B84F8385284F8AE
:104CD00020317A68002A5FD02B464146B64604F55B
:104CE000907599464FF0010A03EB0310D1F800B01C
:104CF000D1F804800133D1F808C02218CE6844F8F6
:104D000000B0C2F80480C2F808C0D660087C2EF853
:104D1000029B10740A7C05F8012F002A69D07A687A
:104D2000113184F838A29A42DED84FF4802291489B
:104D30009DF8043008214FF000084FF00009C4F836
:104D400074310023C4E957020122C4F8643184F8A5
:104D50007031C4E95A2194F83812C4E9608981B3EA
:104D6000C4F88821002284F8713184F878313B78C6
:104D7000C4E96322A3B3012200200121013B84F88E
:104D80009421C4E96801082B2CD8DFE803F0ABB00C
:104D9000B5BABFC4C9CFD6009DF804300121C4F80C
:104DA0006421C4F874314FF4802384F87021714A6F
:104DB000C4E9572308230022C4E95A130023C4E995
:104DC00060230123002284F87131002384F87831B4
:104DD0000323C4F888313B78C4E96322002BCAD18D
:104DE00084F89431644804F053FF034638B1FFBEA1
:104DF000FEE77A6811319A423FF676AF95E703A94C
:104E00005D48039305F0A2F80546002868D1022208
:104E100040F2FF73CDE9082300230422CDE90A23E1
:104E200094F82031002B00F0D5804FF0060921E0E6
:104E3000022B00F08980012B40F0C4809AF80130E9
:104E4000012B00F0C180002B4C4B18BF002306A99A
:104E50004948CDE9063904F047FB002840F0BF80FF
:104E6000013594F82031EDB2AB4240F2B380444BAF
:104E700053F825902FB207EB071704EB070A5046AB
:104E800000F06EFB05EB051323441B7C042B7DDC3B
:104E9000022B00F3918000F08D806319002283F8CB
:104EA0001021E35D002BC3D19AF80130062B00F0EE
:104EB0008580072B00F08A80022B00F09680032B60
:104EC00000F09580002B00F09680012B00F091807F
:104ED000042B00F09280052B2A4B18BF0023B6E765
:104EE000FFBEFEE703224023C4E966237AE70722D8
:104EF0006023C4E9662375E70F228023C4E9662393
:104F000070E71F22A023C4E966236BE73F22C0237A
:104F1000C4E9662366E77F22E023C4E9662361E7EC
:104F2000FF224FF48073C4E966235BE740F2FF126F
:104F30004FF49073C4E9662354E740F2FF324FF414
:104F4000A073C4E966234DE79AF80130042B37D0EB
:104F5000052B3DD0002B40D0012B42D0022B42D05C
:104F6000032B094B18BF002371E700BF004000303E
:104F700078B7002400200240D4B800240002B025F5
:104F8000BC9E01080000B84F0020903603233E1D50
:104F900004EB05084FF0000B264488F8103130462A
:104FA0000BF1010B00F0DCFA98F8103104365B4588
:104FB000F5DC76E70123EAE70223E8E7104B46E752
:104FC000104B44E7002342E70F4B40E70F4B3EE70F
:104FD0000F4B3CE70FB0BDE8F08F0E4B37E7FFBE3D
:104FE000FEE70D4B33E70D4B31E70D4B2FE70D4B34
:104FF0002DE70D4B2BE70D4B29E70D4B27E700BFA6
:105000000800900C1000C0102000F0148000501D0B
:10501000000180210004002A0008302E00106032B8
:105020000040C03A0080F03E00005247000021439B
:105030000000844B38B5094C40F2FF724FF001116B
:1050400004F5AE75284604F02FFF94F82021D4F81B
:1050500054112846BDE8384004F09ABC78B70024C3
:10506000034B0F29D3F8540198BF00EB4100704760
:1050700078B70024214B02689A4200D07047204A3A
:1050800000232048D2F8D81030B51F4C41F0200141
:1050900083B0C4F8C001092004F5E075C4E97103C8
:1050A0004FF48060C2F8D810D2F8D8204FF40061D5
:1050B000C4E9733094F8380202F02002C4F8D41125
:1050C0004FF40051984201922846C4F8D811C4E91F
:1050D0007833019B14BF00234FF48073C4F8DC3194
:1050E00005F086FA08B1FFBEFEE704F5AE73C4F81A
:1050F000A851C4F8F83103B030BD00BF0020024011
:10510000004402584000024078B70024014805F0EE
:10511000E7BD00BF38B9002402682DE9F84F4B4BBA
:105120009A4201D0BDE8F88F494D95F83832002BEE
:10513000F8D095F82031002B77D0002405F10C0928
:1051400005F5997605F59077A04613E003F0010187
:1051500017F811BCA9F1080000F0ECFABBF1010F3F
:1051600025D895F82031013409F111090236A2B28F
:1051700093422BD917F8012F002AF4D0D5F85431D7
:105180000021327833F81400D5F8583103EB0413BA
:1051900023F81200338801339BB233805FFA83FA1D
:1051A0003A789A42D2D88A46A6F80080D0E7CAF365
:1051B0004001A9F1040000F0BDFABBF1020FCAF3EF
:1051C0008001CED0484600F0B5FACAE7002395F832
:1051D0003802204909229842C5F8C8314FF480604E
:1051E000C5F8C011C5F8C4214FF400614FF4005256
:1051F000C5F8CC3108BF4FF48073C5F8D821C5E994
:10520000740100221448C5E97732C5F8E42105F09D
:10521000EFF908B1FFBEFEE795F82021D5F854114B
:105220000E48BDE8F84F04F0B3BB0A4909224FF419
:105230008060C5F8C831C5E970124FF400614FF4C1
:105240000052C5E97330C5E97512DAE70020024063
:1052500078B700244000024038B90024D4B80024B4
:10526000704700BF4F4B02689A4200D070474E4BC8
:10527000D3F8E81030B541F000514C4C85B0D4F86B
:105280004821C3F8E810D3F8E81001F0005101916B
:105290000199D3F8E01041F00101C3F8E010D3F810
:1052A000E03003F001030293029B32F002033DD091
:1052B000013A012A6BD9D4F84C31012B0AD00022D3
:1052C0003620114604F0B6FE362005B0BDE8304069
:1052D00004F0EEBED4F8483133F0020234D0013B82
:1052E000012BECD8442240233149324DC4F88C10B4
:1052F00000212846C4F8B010C4E9242300224FF44A
:105300008063C4E926234FF400624FF40053C4E9DC
:1053100028234FF480724FF48033C4E92A2305F028
:1053200067F980B9E560C4F8C440C8E74FF480620B
:10533000032303A8ADF80C208DF80E3000F010F90F
:10534000D4F84821B4E7FEE71B4BA2634322636114
:1053500040231A4DC4E9062300224FF480632846F7
:10536000C4E908234FF400624FF40053C4E90A2350
:105370004FF480724FF48033C4E90C2305F038F900
:1053800020B9D4F84831A560E464A8E7FEE74FF4FB
:10539000A062032303A8ADF80C208DF80E3000F0B6
:1053A000DFF888E70074004000440258B8B90024D0
:1053B0002804024044BA002410040240CCB900245E
:1053C000014805F08DBC00BFCCB90024014805F0B0
:1053D00087BC00BF44BA002410B5054C204604F039
:1053E00053FF04F58270BDE810400CF045BB00BFD0
:1053F000B8B9002430B58C463A4C3B4D8DB00460B2
:1054000004F5A27EBCE80F00AEE80F00DCF8003027
:1054100020462560CEF8003004F0D8FE0023D4F8F2
:105420004C510393C5B11622012D049217D00022CE
:10543000D4F85411D4F848319142CDE9062218BF6E
:105440000222059233F0020235D0013B012B3CD9F8
:10545000002528460DB030BD02230493E7E7234A18
:105460000093C4F80C31C4F81431C4F80421C4F812
:105470001C31CDE9013303F05BFAD4F844314BF62B
:105480008032C4F80851002B08BF1346B0FBF3F379
:1054900004F58270C4F810310CF058F90028D8D106
:1054A00020230290694604F5827000930CF09CFB67
:1054B0000028BCD0CDE703A90A4804F019FF78B949
:1054C000D4F84831013B012BC2D8102203A905486A
:1054D00004F00EFF051E18BF012528460DB030BD93
:1054E0000125B6E7B8B90024007400400010004060
:1054F0002DE9F0410668D6F84C5105BBD6F850317D
:105500000C461746002B0CBF4FF008084FF0000860
:1055100031F0020305D0013C012C14D92846BDE826
:10552000F0811346294642463046013C04F092FE83
:105530002946304604F060FE012CEFD803E0012537
:105540002846BDE8F0813B4642461021304604F033
:1055500081FE1021304604F04FFE2846BDE8F08160
:105560008378022B30B504468FB037D0032B33D06D
:10557000012B31D000230A93E378012B2AD0022B90
:1055800028D000230B93002320460C9303F09CFBB0
:105590000546204603F0A0FB23780990082B13D87A
:1055A000DFE803F01F3245586B7E91A40500594B8C
:1055B000D3F8E02042F48072C3F8E020D3F8E03062
:1055C00003F480730893089B09A9284605F0DAFEC6
:1055D0000FB030BD0B93D6E70A93CDE711230A93A2
:1055E000CAE74C4B09A92846D3F8E02042F0010253
:1055F000C3F8E020D3F8E03003F001030093009BF0
:1056000005F0C0FE0FB030BD424B09A92846D3F8C3
:10561000E02042F00202C3F8E020D3F8E03003F0CB
:1056200002030193019B05F0ADFE0FB030BD394B75
:1056300009A92846D3F8E02042F00402C3F8E0208C
:10564000D3F8E03003F004030293029B05F09AFEC6
:105650000FB030BD2F4B09A92846D3F8E02042F007
:105660000802C3F8E020D3F8E03003F00803039306
:10567000039B05F087FE0FB030BD264B09A92846D5
:10568000D3F8E02042F01002C3F8E020D3F8E03075
:1056900003F010030493049B05F074FE0FB030BDBB
:1056A0001C4B09A92846D3F8E02042F02002C3F899
:1056B000E020D3F8E03003F020030593059B05F0CC
:1056C00061FE0FB030BD134B09A92846D3F8E02086
:1056D00042F04002C3F8E020D3F8E03003F040038A
:1056E0000693069B05F04EFE0FB030BD094B09A98D
:1056F0002846D3F8E02042F08002C3F8E020D3F837
:10570000E03003F080030793079B05F03BFE0FB0EA
:1057100030BD00BF0044025838B5054603F0D4FA46
:105720000446284603F0D8FA01462046BDE8384032
:1057300006F030B870B506460D4603F0C5FA0446CB
:10574000304603F0C9FA2A1E0146204618BF01223E
:10575000BDE8704006F024B80023122270B586B070
:10576000CDE9022304930368032B01D80423059396
:10577000061D841D304603F0A7FA0546304603F0A7
:10578000ABFA034601A92846019305F0FBFD20462C
:1057900003F09AFA034620461C4603F09DFA01A93D
:1057A00003462046019305F0EDFD06B070BD00BF35
:1057B000634A0368934210B58CB028D0614A934283
:1057C00058D0614A934200F09480604A934201D0DD
:1057D0000CB010BD5E4C5F48D4F8E03043F00203DB
:1057E000C4F8E030D4F8E03003F002030A930A9BD7
:1057F000FFF7B2FFD4F8F43043F08003C4F8F4307C
:10580000D4F8F43003F080030B930B9BE0E7504C8B
:105810005148D4F8E03043F00203C4F8E030D4F843
:10582000E03003F002030193019BFFF795FFD4F8EA
:10583000E83000221F2043F400131146C4F8E8307A
:10584000D4F8E83003F400130293029BD4F8D83064
:1058500043F00103C4F8D830D4F8D83003F0010382
:105860000393039B04F0E6FB1F200CB0BDE810403F
:1058700004F01EBC364C3948D4F8E03043F08003C5
:10588000C4F8E030D4F8E03003F080030493049BC4
:10589000D4F8E03043F00203C4F8E030D4F8E0304C
:1058A00003F002030593059BFFF756FFD4F8E83099
:1058B0000022212043F480031146C4F8E830D4F8D4
:1058C000E83003F480030693069BD4F8D83043F005
:1058D0000103C4F8D830D4F8D83003F0010307939B
:1058E000079B04F0A7FB21200CB0BDE8104004F09A
:1058F000DFBB1B48FFF730FF154B00224820D3F8D1
:10590000E840114644F40004C3F8E840D3F8E84006
:1059100004F400040894089CD3F8D84044F001042F
:10592000C3F8D840D3F8D83003F001030993099B9A
:1059300004F080FB48200CB0BDE8104004F0B8BB78
:105940000054004000580040005C0040001C00581B
:1059500000440258ACBD002424BB0024FCBB00243E
:10596000D4BC00242DE9F0431A4B87B000254FF03A
:1059700010099E46EC46184BFF22E04667461A7017
:105980000EF118060EF13004CDE90055CDE90255AF
:10599000ADF80090BCE80F00CDE90455AEE80F006B
:1059A0009CE803000095ADF800908EE80300B8E88D
:1059B0000F000FC69CE803000095ADF8009086E844
:1059C00003000FCF0FC49CE8030084E8030007B076
:1059D000BDE8F0834402002420BB002410B5EFF39F
:1059E000108472B6084B1A78120602D504B962B652
:1059F00010BD1B78D82205485BB202FB03001430AF
:105A000005F06EF9F2E700BF20BB002424BB0024A0
:105A1000014806F0D3BD00BFB0BB0024014806F02A
:105A2000CDBD00BF88BC0024014806F0C7BD00BF43
:105A300060BD00242DE9F0430F68D8243F4D85B0A8
:105A400007FB04F4032F05EB0403036040DCCB6881
:105A50000E46012B3CD84DD04FF0D808B646DFF8A3
:105A6000FC9008FB0758BEE80F00C446ACE80F00E6
:105A7000DEF800300DF1100ECCF80030D8F808C078
:105A800099E80F000EE90F000EEB8703BCF1010F40
:105A900053F8103CC8F88C3031D0BCF1020F42D022
:105AA000BCF1000F35D0317C8C34D823002201208A
:105AB0002C4403FB07534900C3E92602C3F89410A2
:105AC0002046C3E92822C3E92A2206F069FB18B15F
:105AD000012005B0BDE8F0830146204606F07AFDBE
